:020000040800F2
:10000000A0040020090100083B1A0008AB180008F2
:10001000391A0008370700088D1E0008000000008C
:10002000000000000000000000000000D51A0008D9
:1000300039070008000000003D1A0008D71A000820
:100040002301000823010008230100082301000800
:1000500023010008230100082301000823010008F0
:1000600023010008230100082301000823010008E0
:1000700023010008230100082301000823010008D0
:1000800023010008230100082301000823010008C0
:1000900023010008230100082301000823010008B0
:1000A00000000000230100082301000823010008CC
:1000B00023010008511B0008230100082301000848
:1000C0002301000823010008230100082301000880
:1000D0002301000823010008230100082301000870
:1000E0002301000823010008230100082301000860
:1000F00023010008DFF80CD000F09CFA004800470C
:10010000BD270008A0040020064880470648004795
:10011000FEE7FEE7FEE7FEE7FEE7FEE7FEE7FEE7B7
:10012000FEE7FEE7411B0008F50000082DE9F05F3F
:100130000546002092469B46884606468146402456
:100140001BE0284641464746224600F073F85346D6
:100150005A46C01A914110D311461846224600F063
:100160005AF82D1A67EB01084F462246012000215C
:1001700000F051F817EB00094E41201EA4F10104D4
:10018000DFDC484631462A464346BDE8F09FD2B2FE
:1001900001E000F8012B491EFBD270470022F6E770
:1001A00010B513460A4604461946FFF7F0FF2046ED
:1001B00010BDC10F80EAE0700844CA0796230021F1
:1001C00000F051B800F0004230F000400AD0C10DFC
:1001D00001F56071C0F3160042EA0151C208400700
:1001E0001143704700200146704730B50B46014669
:1001F00000202022012409E021FA02F59D4205D3C6
:1002000003FA02F5491B04FA02F52844151EA2F16F
:100210000102F1DC30BD202A04DB203A00FA02F1B1
:10022000002070479140C2F1200320FA03F31943E4
:1002300090407047202A04DB203A21FA02F0002186
:10024000704721FA02F3D040C2F1200291400843E6
:10025000194670470029A8BF7047401C490008BFD5
:1002600020F00100704710B4B0FA80FC00FA0CF0E6
:1002700050EA010404BF10BC704749B1CCF120041E
:1002800021FA04F411FA0CF118BF012121430843AB
:10029000A3EB0C01CB1D4FEA00614FEA102042BFD7
:1002A000002010BC704700EBC35010440029A4BFCD
:1002B00010BC7047401C490008BF20F0010010BC72
:1002C00070472DE9FE4F804681EA0300C00F0C46BF
:1002D000009021F0004123F00045B8EB0200A94155
:1002E00005D24046214690461C460B46024623F066
:1002F0000040104347D0270DC7F30A00C3F30A514B
:100300000290401A019040286BDAC3F3130040F4C6
:10031000801B0098924620B10023D2EB030A63EBC6
:100320000B0B01985946C0F140025046FFF773FF8E
:1003300006460D4650465946019A00F08DF910EBDD
:1003400008006141002487EA115284EAE7731A43E6
:1003500040D0009A62B3019A012A4FEA075215DC95
:10036000001B61EB02014FF0004202EA0752CDE9A7
:100370000042001C41F5801132462B4600F08DF9F9
:1003800003B0BDE8F08F40462146F9E7001B61EB62
:100390000201001C41F5801300185B412018A2F5F2
:1003A000001747EB030140EAD570B6196D4111E023
:1003B0006D084FEA360645EAC0754FEA0752001B42
:1003C00061EB0201001C41F5801149084FEA300041
:1003D0000019514132462B4603B0BDE8F04F00F002
:1003E0004DB90098012240000023D0EB020263EBDC
:1003F000E073009821464FEAE074B8EB000061EB2F
:100400000401E9E783F000435BE781F0004158E72E
:100410002DE9FE4F81EA030404F0004421F000417D
:1004200000944FF0000B23F0004350EA01045ED02B
:1004300052EA03045BD0C3F30A54C1F30A552C44B7
:10044000A4F2F3340194A0FB0254C1F3130141F46C
:100450008011C3F3130343F4801301FB024400FB38
:10046000034E840A970A44EA815447EA8357A4FB5F
:10047000076802958D0A05FB07854FEA932C04FB5C
:100480000C542705029D4FEA065847EA1637B5EB8C
:1004900008056EEB070C870E920E47EA811742EAB9
:1004A0008312A7FB0201B6EB0B0164EB00042B0DDA
:1004B00043EA0C335E1844EB1C50DA465146E7FB26
:1004C0000201C5F313044FEA0B3343EA14534FEA16
:1004D0000432019C43EA0603A4F10C040294009C3C
:1004E000CDE900B400F0D9F803B0BDE8F08F0020EA
:1004F0000146F9E72DE9F04D81EA030404F0004BD1
:1005000021F0004514464FF0000A23F0004150EA64
:10051000050220D054EA01021DD0C5F30A57024655
:10052000C5F31303C1F31300C1F30A5640F4801559
:1005300043F48013A7EB0608101BD64608F2FD38DB
:1005400073EB050002D308F1010801E092185B414A
:10055000B8F1000F03DA00200146BDE8F08D00205D
:100560004FF48011064684460EE0171B73EB050717
:1005700005D3121B63EB050306434CEA010C490843
:100580004FEA300092185B4150EA0107EDD152EA80
:10059000030012D082EA040083EA0501084305D073
:1005A000101BAB4106D20122002306E000224FF0CF
:1005B000004302E06FF0010253101AEB06004CEB0F
:1005C000085110EB0A0041EB0B01BDE8F04D00F0C3
:1005D00055B8C1F30A52C1F3130140F2FF3341F49D
:1005E00080119A4202DA00200146704740F23343FC
:1005F0009A42A2F2334202DC5242FFF71BBEFFF7DF
:100600000ABE000030B5041E71F1000404DB4FF097
:100610000044404264EB0101141E73F1000405DB49
:100620001C464FF00043524263EB0403994208BF5B
:10063000904230BD064C074D06E0E06840F00103F3
:1006400094E8070098471034AC42F6D3FFF756FD04
:1006500094280008B4280008202A06DBCB17203A8B
:1006600041FA02F043EAE07306E041FA02F3D040B7
:10067000C2F12002914008431946704710B5141E7C
:1006800073F1000408DA401C41F1000192185B414B
:100690001A4301D120F0010010BD2DE9F04D924622
:1006A0009B4611B1B1FA81F202E0B0FA80F2203239
:1006B0009046FFF7B0FD04460F4640EA0A0041EAC3
:1006C0000B0153465A46084313D0114653EA010022
:1006D00019D0C8F140025046FFF7ACFD05460E4662
:1006E000504659464246FFF796FD084305D0012083
:1006F00004E020463946BDE8F08D0020054346EA77
:10070000E0762C4337430A986305E40AA0EB08001F
:100710000022FD0A44EA47540A3002D5002001466F
:10072000E9E7010510196941DDE90845001969414A
:10073000BDE8F04DA2E7FEE77047704770B504468C
:1007400000F0F2F80546601C02D0044840680444FA
:1007500000F0EAF8401BA042FAD370BD0800002068
:100760002DE9FC4FDFF894A1002301250AF1040BC9
:1007700003244FF00F0C0BF1040EB8E005FA03F65A
:10078000324071D04F68012F05D0022F03D0112FB6
:1007900001D0122F17D1D0F808905F0004FA07F8A3
:1007A00029EA08090097D1F80C8008FA07F848EA06
:1007B0000908C0F808804768B7430E79C6F30016E9
:1007C0009E403E434660C6684FEA430804FA08F775
:1007D000BE4301978F6807FA08F73743C7604E6832
:1007E000022E01D0122E13D1DE0800EB86060096F1
:1007F000366A5F07FF0E0CFA07F926EA0906D1F8F8
:10080000109009FA07F949EA0609009EC6F82090F7
:100810000768019EB7430E7906F0030606FA08F64C
:100820003E4306604E68F60060D5354E376847F0A7
:1008300001073760366823F0030706F001060096CB
:10084000304E3E44B146B6689F074FEA17780CFA1F
:1008500008F7BE432C4FB84201D1002715E02B4FBB
:10086000B84202D1012710E040E0294FB84201D13F
:1008700002270AE0274FB84201D1032705E0264F9F
:10088000B84201D1042700E0052707FA08F73743EB
:10089000C9F80870DAF800705646D1F8048097431A
:1008A0005FEAC83800D517433760DBF800605F4661
:1008B000D1F8048096435FEA883800D516433E603D
:1008C000DEF800607746D1F8048096435FEAC828D6
:1008D00000D516433E60094F0C373E68D1F80480BE
:1008E00096435FEA882800D516433E605B1C0A6881
:1008F00032FA03F67FF442AFBDE8FC8F00040140FA
:100900002038024000000140000002400004024084
:1009100000080240000C0240001002400AB1816150
:1009200070470904FBE70000014880687047000039
:1009300008000020024881684268114481607047C5
:100940000800002010B50024032000F079F80020F2
:1009500000F008F808B1012401E000F025F8204675
:1009600010BD000070B50E4E05460024706898B1A9
:100970004FF47A71B1FBF0F00A490968B1FBF0F06D
:1009800000F0AAFB40B9102D06D200222946501EC5
:1009900000F036F8356000E00124204670BD00000C
:1009A00008000020140000200D4808B5016841F03F
:1009B00000410160016801F000410091011F0A68D7
:1009C00042F001020A60096801F00101009101682A
:1009D00041F080510160006800F08050009008BD37
:1009E00024380240002809DB00F01F020121914059
:1009F0004009800000F1E020C0F8001170470000BD
:100A0000F0B40E4B1B680C46C3F30223C3F1070579
:100A1000042D00D90425191D072901D2002300E067
:100A2000DB1E012606FA05F1491E214099409E4031
:100A3000761E16403143F0BC01F03ABA0CED00E0EE
:100A4000064900F0070208684FF6FF03184040EA25
:100A50000220034A10430860704700000CED00E0DC
:100A60000000FA052DE9F0470E46050079D0DFF8C1
:100A70008481D8F8000000F00100B04214D2012EA9
:100A800005D1D8F8001041F00401C8F80010D8F8DA
:100A9000001021F001013143C8F80010D8F800001F
:100AA00000F00100B0425CD12878534C800705D596
:100AB0002068A96820F0F000084320602878C0076B
:100AC0005CD04D496868083902281AD003281BD029
:100AD000096801281BD08905002966DA216821F000
:100AE000030101432160FFF71FFF6968074641F2D8
:100AF0008830022914D0032920D0012981462AD028
:100B000038E009688903E7E709688901E4E78907AC
:100B1000E2E700BFFFF708FFC11B494501D926E006
:100B200081462068C0F381000228F3D126E000BF8F
:100B3000FFF7FAFEC11B494501D918E0814620683C
:100B4000C0F381000328F3D118E000BFFFF7ECFEEB
:100B5000C11B49450BD82068C0F381000128F5D19D
:100B60000CE022E0FFF7E0FEC11B494502D903205B
:100B7000BDE8F087206810F00C0FF3D1D8F8001012
:100B8000404601F00101B14211D9012E03D10168A3
:100B900041F004010160016821F00101314301606D
:100BA000006800F00100B04201D00120E0E72878A1
:100BB000400705D52068E96820F4E060084320601C
:100BC0002878000706D52068296920F4605040EA9B
:100BD000C100206000F038F82168084AC1F3031111
:100BE000515CC8400649086006480068BDE8F04707
:100BF000FFF7B8BE003C02400838024079280008E0
:100C00001400002008000020044805490068096815
:100C1000044AC1F30221515CC8407047140000200F
:100C20000838024089280008044805490068096816
:100C3000044AC1F3C221515CC8407047140000202F
:100C4000083802408928000870B5154D29681548F4
:100C500001F00C02042A0CD0134C082A0AD00C2AEA
:100C60000AD0281F0068C0F342314FF40040491CED
:100C7000884070BD204670BD0C4AC1F38343D35CED
:100C8000C1F381522968521CC90302D5A3FB040198
:100C900001E0A3FB00010023FFF748FA70BD00004C
:100CA000083802400024F400001BB7007028000838
:100CB0002DE9F84F04007DD0FC480168006801F080
:100CC0000C0700F480362078F94DC00741D0082F7A
:100CD00012D00C2F02D1B6F5803F0DD060680128EC
:100CE00011D008B1052818D0286820F48030286079
:100CF000286820F4802009E02868800329D56068EE
:100D00000028D8D025E0286840F48030286060684A
:100D100090B1FFF709FE80460AE0286840F4802081
:100D20002860F0E7FFF700FEA0EB080064287BD8FE
:100D300028688003F6D50CE0FFF7F6FD804605E055
:100D4000FFF7F2FDA0EB08006428F0D828688003C4
:100D5000F6D42078DFF85CB3DFF85C8380074FF0CF
:100D600001094FF0000A35D5042F0AD00C2F00D10D
:100D70003EB1E068F8B1C8F80090FFF7D5FD06462F
:100D80000BE0286880070BD5E068012812D107E046
:100D9000FFF7CAFD801B0228C9D828688007F7D54D
:100DA000DBF80010226921F4F85141EA0221CBF866
:100DB00000100FE077E1C8F800A0FFF7B5FD064688
:100DC00005E000BFFFF7B0FD801B0228AFD8286800
:100DD0008007F7D42078C00674D53FB1A069E0B38E
:100DE000C8F82090FFF7A0FD06464AE02868800575
:100DF00002D5A069002884D0206ADBF800105E4686
:100E000001F46041884210D900F01AFE0028BDD1DB
:100E10003068216A20F4604008433060217F3068E8
:100E200061F31F6030600FE096E0316821F46041AB
:100E300001433160217F306861F31F603060206AB8
:100E400000F0FEFD0028A1D1216A4FF4004009EB1B
:100E5000513188409549096800E025E0974AC1F37F
:100E60000311515CC8409649086096480068FFF736
:100E700079FD00286FD125E0FFF756FD801B022881
:100E80006AD828688005F7D5DBF80010226A21F4BB
:100E900060411143CBF80010227FDBF8001062F3B1
:100EA0001F61CBF800100DE0C8F820A0FFF73CFD53
:100EB000064604E0FFF738FD801B02284CD828685E
:100EC0008005F7D42078804E000722D57F486169DD
:100ED00081B1C0F80090FFF727FD834606E000BF10
:100EE000FFF722FDA0EB0B00022835D83068800701
:100EF000F6D50EE0C0F800A0FFF716FD834605E02A
:100F0000FFF712FDA0EB0B00022825D83068800700
:100F1000F6D4207840076DD56B484FF0000B1038A1
:100F20000068C0000BD468481038016841F0805157
:100F3000016000684FF0010B00F0805000906448A1
:100F40000168C90514D4016841F480710160FFF79C
:100F5000EBFC009008E08DE079E000BFFFF7E4FCD7
:100F60000099401A642872D859480068C005F5D520
:100F7000A06801280AD008B1052811D0306820F4F3
:100F800080703060306820F4806002E0306840F4A7
:100F900080703060A068A8B1FFF7C6FC00900DE03B
:100FA000306840F480603060F0E700BFFFF7BCFCC1
:100FB0000099411A41F2883081425AD83068800540
:100FC000F4D50EE0FFF7B0FC009007E0FFF7ACFCB3
:100FD0000099411A41F2883081424AD83068800530
:100FE000F4D4BBF1000F05D037481038016821F068
:100FF00080510160606A58B30C2F41D002285046DE
:1010000005D0C8F86000FFF78FFC044634E047467F
:10101000C8F86000FFF788FC064604E0FFF784FC90
:10102000801B022825D828688001F7D4D4E90A104B
:1010300001431E48226B036823F47D031A431143C6
:101040000160C7F86090FFF76FFC044607E010E00E
:1010500040E000BFFFF768FC001B022809D82868A1
:101060008001F7D536E000BFFFF75EFC001B0228C9
:1010700002D90320BDE8F88F28688001F4D429E064
:101080000128F7D009480068A26A00F48031914233
:1010900009D1E26A00F47011914204D1216B00F48D
:1010A0004000884216D00120E4E7000008380240E2
:1010B0000038024004380240000047427928000806
:1010C0001400002008000020343802408006474207
:1010D000007000400020CDE710B5401EB0F1807FC9
:1010E00001D3012010BD4FF0E02460610F21601793
:1010F00000F0DEFE0020A06107202061002010BD6E
:1011000070B590F83820012A26D0012480F83840A4
:10111000022280F8392003685A689D6822F0700620
:101120000A6832435A600268B2F1804F08D00B4B14
:101130009A4205D00A4B9A4202D00A4B9A4204D1F5
:10114000496825F080031943916080F839400021F7
:1011500080F83810084670BD022070BD00040040C1
:10116000000800400008014010B5040003D094F8C6
:10117000390010B107E0012010BD002084F83800CC
:10118000204600F017F8022084F83900211D20685D
:1011900000F0E4FC012084F83E0084F83A0084F872
:1011A0003B0084F83C0084F83D0084F839000020BE
:1011B00010BD000010B586B0044614216846FEF745
:1011C000EDFF16492068884226D11548016841F094
:1011D00002010160006800F0020005901048083824
:1011E000016841F0010101600068002100F0010088
:1011F0000590402000900220CDE90201019004906A
:1012000069460848FFF7ACFA002211461D20FFF797
:10121000F7FB1D20FFF7E6FB06B010BD0004004001
:10122000243802400000024070B5044690F83800AF
:10123000012817D0012584F83850022084F839009D
:101240002068826822F0770222F47F428260086878
:10125000502830D00DDC20284DD005DC98B3102864
:101260003BD148E0022070BD302844D0402834D122
:1012700039E0602828D0702806D0B0F5805F2CD0E7
:10128000B0F5005F29D10AE0CB68D1E901212068DF
:1012900000F0ABFC2068816841F0770109E0CB6881
:1012A000D1E90121206800F0A0FC2068816841F4A8
:1012B0008041816011E0CA684968206800F0A7FC9D
:1012C0005021206807E016E0CA684968206800F0ED
:1012D000DBFC6021206800F092FC84F8395000208B
:1012E00084F8380070BDCA684968206800F08FFC37
:1012F00040212068EFE7226801461046EBE7000036
:101300002DE9F041044600681349884214D1134D79
:1013100000260127297889B10021204600F02CF908
:101320002068416B69806F70016A21F00A010162D7
:101330002068016A01622E70BDE8F0812F7046625C
:101340002068016A21F00A0101622068016A41F007
:1013500002010162F0E700000004004000000020EC
:101360002DE9F041054690F838000C46012836D0AA
:10137000012085F838008AB3042A42D02868082A58
:1013800051D0D4E90023E168066A26F4805606624B
:10139000C669076A26F4407646EA03234FF6FF76CD
:1013A00006EA013123F4704319434FF4204627F431
:1013B000204306EA02321A43C16102622868C16909
:1013C00021F44061C1612868C169A26841EA022133
:1013D000C161002085F83800BDE8F08101E00220FD
:1013E000FAE7D4E90012E368286800F021FC2868D5
:1013F000816921F00C01816128688169A26811432B
:101400000FE0D4E90012E368286800F04FFC286878
:10141000816921F44061816128688169A26841EA9B
:1014200002218161D5E7D4E90027267B016A21F4F6
:1014300080710162C169036A21F00301394321F01F
:10144000F00731074FF4206647EA116123F4206367
:1014500006EA02221A43C16102622868C16921F0CA
:101460000C01C1612868C169A2681143B0E710B5D9
:10147000040003D094F8390010B107E0012010BD3A
:10148000002084F83800204600F016F8022084F886
:101490003900211D206800F061FB012084F83E0026
:1014A00084F83A0084F83B0084F83C0084F83D005E
:1014B00084F83900002010BD7047000010B50446C4
:1014C00049B104290AD008290BD094F83D0001281D
:1014D0000AD0012010BD94F83A00F8E794F83B00D8
:1014E000F5E794F83C00F2E7022041B104290DD061
:1014F000082912D084F83D000C2915D130E084F879
:101500003A002068C26842F002020CE084F83B0016
:101510002068C26842F0040205E084F83C002068BC
:10152000C26842F00802C2600122206800F050FB4D
:101530002068B0F1804F08D00C49884205D00C4992
:10154000884202D00B49884204D1816801F007012A
:10155000062903D0016841F001010160002010BD9F
:101560002068C26842F01002DDE70000000400407D
:10157000000800400008014070B5026804460D00F4
:1015800006D0042D08D0082D22D00C2D08D123E040
:10159000D06820F0020002E0D06820F00400D060A3
:1015A0000022206800F014FB2068016A41F2111249
:1015B000114203D1016821F00101016001207DB1D8
:1015C000042D10D0082D11D084F83D00002070BDEE
:1015D000D06820F00800E2E7D06820F01000DEE7D5
:1015E00084F83A00F2E784F83B00EFE784F83C0027
:1015F000ECE770B50446006801694FF00005C94387
:10160000890715D4C168C943890711D4E91E01614E
:1016100001202076206880698007204602D0FFF7ED
:101620006FFE04E000F078F8204600F076F82576AA
:1016300020680169C943490717D4C168C9434907EC
:1016400013D46FF0040101610220207620688069C4
:1016500010F4407F204602D0FFF752FE04E000F075
:101660005BF8204600F059F8257620680169C943E7
:10167000090716D4C168C943090712D46FF00801DD
:101680000161042020762068C0698007204602D0CE
:10169000FFF736FE04E000F03FF8204600F03DF88A
:1016A000257620680169C943C90617D4C168C943B2
:1016B000C90613D46FF0100101610820207620685C
:1016C000C06910F4407F204602D0FFF719FE04E005
:1016D00000F022F8204600F020F825762068016905
:1016E000C943C90708D1C168C943C90704D1891EC4
:1016F0000161204600F012F820680169C9434906DB
:1017000009D4C168C943490605D46FF0400101619D
:10171000204600F004F870BD70477047704770476E
:1017200070B5040004D094F83900002510B106E02B
:10173000012070BD84F83850204600F023F82420A2
:1017400084F839002068C16821F40051C160204646
:1017500000F0C8FA2068016921F490410161206815
:10176000416921F02A0141612068C16841F40051BA
:10177000C160E563202084F8390084F83A00002035
:1017800070BD000010B586B0044614216846FEF70F
:1017900005FD14492068884221D11348016841F4AD
:1017A00080410160006800F4804005900E48001FF1
:1017B000016841F0010101600068694600F0010024
:1017C00005904FF4C060009002200190002002902C
:1017D00003200390072004900448FEF7C1FF06B0E1
:1017E00010BD0000003801402038024000000240D7
:1017F0002DE9F843044690F839001F4616460D4679
:10180000202850D1B5B1AEB194F8380001284AD0A3
:10181000012084F838004FF00008C4F83C802120F3
:1018200084F83900FFF780F8A6848146E68484F8BE
:10183000388026E00120BDE8F883E08C401EE0847B
:10184000A0684B46B0F5805F4FF000024FF080017A
:101850002046009703D000F0D3FAE8B90DE000F07D
:10186000CFFAC8B928882168C0F308004860206909
:1018700008B16D1C05E0AD1C03E0216815F8010BF3
:101880004860E08C0028D8D14B46002240212046F9
:10189000009700F0B5FA08B10320CCE7202084F8C7
:1018A00039000020C7E70220C5E7FEE770B586B023
:1018B00014216846FEF772FC2748016841F00401D4
:1018C0000160016801F004010591016841F0200107
:1018D0000160016801F020010591016841F00101FA
:1018E0000160016801F001010591016841F0020108
:1018F00001600068194E00F002000590002280216E
:101900003046FFF70BF84FF460400325CDE90005A2
:101910000024694602941248FEF722FF49F63F1060
:10192000CDE90005694602943046FEF719FF802094
:1019300000900120CDE90104694630460394FEF78A
:101940000FFF4FF6FF70CDE9000569460294054888
:10195000FEF706FF06B070BD1C38024000000240D2
:10196000000802400004024010B58AB00024234859
:10197000049405940694079408940994009401949F
:1019800002941D49039401601F21C0E901144FF620
:10199000FF71C0E9031480214161FFF7E5FB08B145
:1019A000FEF7CBFE4FF48050049004A91348FFF7D4
:1019B0003BFC08B1FEF7C1FE1048FFF758FD08B127
:1019C000FEF7BBFE089408A90C480994FFF798FBA2
:1019D00008B1FEF7B2FE0120CDE9004002940022DA
:1019E000694606480394FFF7BBFC002801D0FEF7C8
:1019F000A4FE0AB010BD0000000400401C0000203E
:101A00000C4810B50A4901604FF4E13141600021F2
:101A100081600C22C160C0E904128161C161FFF7DD
:101A20007FFE002803D0BDE81040FEF786BE10BD43
:101A3000003801405C000020FEE77047704700005E
:101A400038B51C49002309681B4A11F0F00F23D157
:101A500018491C310C68E500184C03D5216801F4C5
:101A6000C0540EE00D6845F080550D600D6805F01E
:101A70008055009524680D6804F4C05425F0805505
:101A80000D60B4F5C05F07D1B0F5404F04D11068C8
:101A9000012340F004001060106820F0010018439A
:101AA0001060106800F00100984201D0012038BD9C
:101AB000002038BD08380240003C02400070004061
:101AC00008B54001C008009000BF0098411E009179
:101AD000FAD208BD7047FEF72DBF000000B593B0E5
:101AE00034216846FEF75AFB14210DA8FEF756FB79
:101AF0001248016821F4C05141F4006101600120E5
:101B00000090019002200990C0030A904FF44020F9
:101B10000B904FF400000C906846FFF7C9F80F20B7
:101B20000D9003200E9000200F9010901190012135
:101B30000DA8FEF797FF13B000BD00000070004035
:101B400002494FF0006008607047000008ED00E0B7
:101B50000148FFF74EBD00001C00002070B5026870
:101B60004FF08046154B164CB04203D0984201D03E
:101B7000A04205D122F070054A682A43B0420CD039
:101B800098420AD0A04208D00E4B984205D00E4B86
:101B9000984202D00D4B984203D122F44073CA6898
:101BA0001A430B6922F080021A4302608A68C262FB
:101BB000096881620121416170BD0000000400409C
:101BC0000008004000080140000C014000100140E6
:101BD00010B501F01F030121046A99408C4304628F
:101BE000016A9A401143016210BD10B5846842EA4F
:101BF000032224F47F440A432243826010BD82689A
:101C000022F070020A4342F007018160704710B56C
:101C1000036A046A24F001040462846924F0F00475
:101C200044EA021423F00A020A438461026210BDEE
:101C300070B5046A24F0010404628469056AB0F195
:101C4000804F08D00D4EB04205D00D4EB04202D0AC
:101C50000C4EB04203D124F00304144301E044F0DD
:101C600001041A0724F0F00444EA126225F00A0382
:101C700001F00A0119438261016270BD0004004055
:101C8000000800400008014010B5036A23F010036B
:101C900003628369046A23F4704343EA023224F046
:101CA000A00343EA01118261016210BD30B5046AEC
:101CB00024F0100404628469056A24F4407444EA40
:101CC000022222F470444FF6FF7202EA03322243EA
:101CD000A02425F0A00304EA0111194382610162E6
:101CE00030BD00002DE9F041044600680169E2685A
:101CF00021F44051114301612169A068E269084360
:101D00006169114322680843D16849F20C63994321
:101D10000143D16020684169A26921F440711143F7
:101D2000416136492068884202D1FEF77DFF01E01B
:101D3000FEF76AFF0246E36964203221B3F5004FE3
:101D400002EBC20303EB021362682BD09200B3FBD9
:101D5000F2F5B5FBF0F5B3FBF2F66FF018077D4333
:101D600006EB8505B3FBF2F601EB0515B5FBF0F5C7
:101D7000B6FBF0F605F0F00505EB0615B3FBF2F641
:101D8000B3FBF2F2B2FBF0F27A4306EB820201EB14
:101D90000211B1FBF0F000F00F00216828448860C8
:101DA000BDE8F0815200B3FBF2F6B6FBF0F6B3FBF0
:101DB000F2F7B3FBF2F56FF0180C06FB0CF607EB2D
:101DC000860601EBC606B5FBF0F5B6FBF0F62D0175
:101DD00006F0F80605EB4605B3FBF2F6B3FBF2F2AC
:101DE000B2FBF0F202FB0CF206EB820201EBC20145
:101DF000B1FBF0F000F00700CFE700000038014031
:101E00002DE9F041984617460E460446069D1DE012
:101E1000681C1BD02DB1FEF787FDA0EB0800A8427F
:101E200014D92068C16821F4D071C160206841696B
:101E300021F001014161202084F8390084F83A0042
:101E4000002084F838000320BDE8F0812068006895
:101E500036EA000004D00020B842D9D00020F3E7D1
:101E60000120F9E710B5084C012280212046FEF739
:101E700055FD3220FFF724FE20460022BDE8104029
:101E80008021FEF74BBD000000000240FEE700008D
:101E90000FB4054B10B503A9044A029800F0EAF804
:101EA00010BC5DF814FB0000A527000818000020F6
:101EB0000907090E002804DB00F1E02080F8001477
:101EC000704700F00F0000F1E02080F8141D70470B
:101ED00002E008C8121F08C1002AFAD170477047F3
:101EE000002001E001C1121F002AFBD17047000051
:101EF0002DE9FF5F82B00021DDE90430020DDDF83D
:101F000040B0034318D044F61050A2F2FF324243CF
:101F10001514119801281FD0A5EB0B00401C5FEA97
:101F2000000A4FF000064E4FDFF83891B046504699
:101F300015D5CAF1000413E0119801244AA3012821
:101F400001D16FEA0B010298119AC0E90031C0E992
:101F5000024206B0BDE8F09FCBF10000DFE7044687
:101F60000021404A491842EB0450CDE9001012E02C
:101F7000E00707D032463B4640464946FEF748FA5E
:101F80008046894632463B4610461946FEF740FADF
:101F900006460F466410002CEAD1DDE90401DDE9B4
:101FA0000023BAF1000F06DAFEF732FA42464B463A
:101FB000FEF72EFA05E0FEF79DFA42464B46FEF785
:101FC00099FA04460E460022284BFEF71BFB03D865
:101FD0004FF0FF30014607E00022254B20463146F6
:101FE000FEF76FF9FEF7F5FA102409E0002C0ADB82
:101FF0000A220023FEF79AF8039B30321A55641E1A
:1020000050EA0102F2D1641C039AC4F11103144492
:10201000119A012A03D0012208430DD10AE0084396
:1020200004D000204FF0110B119072E7A3EB0B05C9
:102030006D1E0DE05B4504DD4FF0000205F101056A
:1020400004E003DA4FF00002A5F10105002AECD00C
:1020500002981199C0E90231C0E9004579E7000012
:10206000000014400000F03F300000000000F0438A
:102070000000E03F2DE9FF4F95B09B46894606469C
:1020800000250FE2252877D100242746F84A0121B0
:10209000059400E0044316F8013F203B01FA03F0E9
:1020A0001042F7D130782A2811D06FF02F03307802
:1020B000A0F13002092A16D8059A44F0020402EB76
:1020C000820203EB42021044761C0590EFE759F8B8
:1020D000042B0592002A03DA504244F40054059080
:1020E00044F00204761C30782E2816D116F8010F21
:1020F00044F004042A280DD06FF02F023078A0F1AC
:102100003003092B09D807EB870302EB4303C718F9
:10211000761CF3E759F8047B761C30786C280FD0D6
:1021200006DC4C2817D068280DD06A2814D104E0AA
:10213000742810D07A280FD10DE044F400140AE07E
:1021400044F4801401E044F440147278824202D1D5
:1021500004F58014761C761C307866280BD013DCCE
:10216000582877D009DC002875D04528F6D04628B5
:10217000F4D047281AD19DE118E0632835D06428AF
:1021800079D0652812D195E1702873D008DC6728D2
:10219000F1D069286FD06E280DD06F2806D1B5E038
:1021A00073282CD0752875D0782874D05A46179982
:1021B00090476D1C75E1C4F30250022809D0032832
:1021C0000DD0D9F8001004280DD00D6009F10409D4
:1021D00067E1D9F80010EA17C1E90052F6E7D9F82B
:1021E00000100D80F2E70D70F0E719F8041B8DF870
:1021F000001000208DF80100EA46012003E059F8A4
:1022000004AB4FF0FF3061074FF0000102D40DE046
:1022100008F101018846B9420FDA8045F8DB1AF867
:1022200008100029F4D108E008F101018846814234
:10223000FADB1AF808100029F6D105985B46A0EBE6
:10224000080721463846179A00F094FA284400EB14
:10225000080507E04DE029E10DE01AF8010B5A46A8
:1022600017999047B8F10108F7D25B4621463846E6
:10227000179A13E142E00A220092C4F302524FF08F
:10228000000A022A08D059F804CB032A4FEAEC715D
:102290000AD00DE029E02AE009F1070121F0070248
:1022A000F2E802C1914609E00FFA8CFC4FEAEC71AA
:1022B000042A03D14FFA8CFC4FEAEC71002907DAAB
:1022C0000A460021DCF1000C61EB02012D2202E044
:1022D000220504D52B228DF80420012203E0E20719
:1022E00001D02022F7E7904659E00A2102E01022AF
:1022F0000DE010214FF0000A00910BE010224FF08A
:10230000000A44F004040827009203E008224FF07A
:10231000000A0092C4F30252022A05D059F804CBF5
:102320000021032A08D009E009F1070121F0070282
:10233000F2E802C1914605E01FFA8CFC042A01D1A3
:102340000CF0FF0C4FF00008220728D5702806D0AB
:10235000009B83F0100353EA0A0305D00EE04022ED
:102360008DF80420012208E05CEA010206D0302248
:102370008DF804208DF8050002229046009B83F022
:10238000080353EA0A030AD15CEA010201D1620799
:1023900005D530228DF804204FF001087F1E582803
:1023A00004D034A003900EA802900DE036A0F9E707
:1023B00053466046009AFDF7B9FE84460398825C56
:1023C0000298401E029002705CEA0100F0D102986F
:1023D00006A9081A00F1200A600702D524F4803407
:1023E00000E00127574502DDA7EB0A0000E00020CE
:1023F00000EB0A01009005984144401A0590E00363
:1024000006D45B462146179A059800F0B3F90544B7
:10241000002706E001A85A46C05D179990476D1C39
:102420007F1C4745F6DBE0030CD55B462146179A37
:10243000059800F09FF9054404E030205A461799AA
:1024400090476D1C0099481E00900029F5DC08E0BB
:10245000029802995A460078491C029117999047B0
:102460006D1CBAF10001AAF1010AF1DC65E100007E
:10247000092801003031323334353637383961625A
:10248000636465660000000030313233343536371E
:1024900038394142434445460000000000F058F9F5
:1024A0000544761C307800287FF4ECAD19B028463E
:1024B000BDE8F08F620700D4062709F1070222F079
:1024C000070CFCE80223E14603F000485FEA080C31
:1024D00002D00FF2702C0DE05FEA045C02D50FF21F
:1024E000682C07E05FEAC47C02D00FF2602C01E0A8
:1024F000AFF2700C4FF0FF3823F00043CDF850C01E
:1025000065280CD006DC452809D046281DD0472870
:102510003DD13DE0662818D067287ED138E0002103
:10252000112F01DB112000E0781CCDE9000106A984
:102530000EA8FFF7DDFCDDE90F010E9A03910021E3
:10254000009207F1010A04914DE04FF0004000971E
:10255000CDE9011006A90EA8FFF7CAFCDDE90F02BC
:1025600003920E9B11990022DDF80CA000930492B7
:1025700011B9791C00EB010AB7EB0A0004D4C0F1D1
:10258000FF3007F1010A0490AAEB0700019044E034
:10259000012F00DA01270021112F01DD112000E0B9
:1025A0003846CDE9000106A90EA8FFF7A1FCDDE938
:1025B0000F010E9A0391002104910092BA4621075F
:1025C0000CD40399514500DA8A46BAF1010F05DDB2
:1025D000009AAAF10101515C302908D0B84202DA10
:1025E00010F1040F06DA0121CDE9011015E0AAF17E
:1025F0000101E9E7002805DC049901440491AAEBF4
:10260000000102E0411C514500DD8A460499401A50
:10261000401C01904FF000400290200704D4019824
:10262000504501DBCDF8048000208DF84F00029862
:102630000DF14F07B0F1004F25D02B200E900298DE
:102640004FF0020800280CDA404202902D200E9034
:1026500007E00A210298FDF7C8FD3031029007F823
:10266000011DB8F10001A8F10108F2DC0298002870
:10267000EFD1791E0E980870307800F0200040F0FD
:10268000450007F8020D12A8C01B00F107081498B6
:10269000007800B1012000EB0A01019801EBE07124
:1026A00005984144401A401E0590E00306D45B465D
:1026B0002146179A059800F05DF8054414980078B3
:1026C00018B15A46179990476D1CE00324D55B4614
:1026D0002146179A059800F04DF805441CE004982F
:1026E000002807DBDDE90301884203DD0098405C38
:1026F000179901E0179930205A469047049805F140
:102700000105401C04900198401E019004D12E2028
:102710005A46179990476D1CBAF10001AAF1010AB7
:10272000DDDC05E017F8010B5A46179990476D1C40
:10273000B8F10001A8F10108F4DC5B462146179AC4
:102740000598ABE62D0000002B00000020000000E3
:102750002DE9F041044600251E461746880404D49E
:1027600005E039462020B0476D1C641EF9D5284687
:10277000BDE8F0812DE9F041044600251E46904653
:10278000C80301D5302700E02027880404D505E0E0
:1027900041463846B0476D1C641EF9D52846BDE851
:1027A000F081000013B54FF47A73012269460248A4
:1027B000FFF71EF800981CBD5C000020FEF7C2F871
:1027C000FFF78CF9FFF772F8FFF71AF9FFF7CCF86B
:1027D0001D4D1E4E1E4C30780128FCD11D4848F27C
:1027E000D041008848431C4990FBF1F0FDF7E1FC23
:1027F0001A491B4A01442860914206D8FDF7E2FCC1
:1028000002460B4617A0FFF743FB2068016A41F21E
:102810001112114203D1016821F0010101604FF44E
:10282000FA70FDF78BFF21680020486221680A6872
:1028300042F001020A603070FFF714FB00210448E7
:10284000FEF73CFEC7E70000040000200100002066
:102850001C0000200200002080841E00000034BE06
:102860000000E30155533A252E3266636D0D0A00D0
:10287000030406080C1018203000000000000000BF
:10288000000102030406070809000000000102031A
:1028900004000000B4280008000000201C00000014
:1028A000D01E0008D02800081C000020840400006E
:1028B000E01E000800010000000000001000000001
:1028C000010000000000000068FF1F000000000081
:04000005080000F5FA
:00000001FF
