:020000040800F2
:1000000098040020090100086F1100089F100008E3
:100010006D11000815020008DD1400080000000042
:10002000000000000000000000000000F5110008C2
:10003000170200080000000071110008F711000805
:100040002301000823010008230100082301000800
:1000500023010008230100082301000823010008F0
:1000600023010008230100082301000823010008E0
:1000700023010008230100082301000823010008D0
:1000800023010008230100082301000823010008C0
:1000900023010008230100082301000823010008B0
:1000A00000000000230100082301000823010008CC
:1000B0007112000823010008230100082301000831
:1000C0002301000823010008230100082301000880
:1000D0002301000823010008230100082301000870
:1000E0002301000823010008230100082301000860
:1000F00023010008DFF80CD000F07AF80048004730
:100100006915000898040020064880470648004703
:10011000FEE7FEE7FEE7FEE7FEE7FEE7FEE7FEE7B7
:10012000FEE7FEE761120008F50000082DE9F05F28
:100130000546002092469B46884606468146402456
:100140001BE0284641464746224600F041F8534608
:100150005A46C01A914110D311461846224600F063
:1001600028F82D1A67EB01084F462246012000218E
:1001700000F01FF817EB00094E41201EA4F1010406
:10018000DFDC484631462A464346BDE8F09FD2B2FE
:1001900001E000F8012B491EFBD270470022F6E770
:1001A00010B513460A4604461946FFF7F0FF2046ED
:1001B00010BD202A04DB203A00FA02F1002070472B
:1001C0009140C2F1200320FA03F319439040704795
:1001D000202A04DB203A21FA02F00021704721FA9C
:1001E00002F3D040C2F12002914008431946704703
:1001F000064C074D06E0E06840F0010394E8070074
:1002000098471034AC42F6D3FFF778FFD4150008B6
:10021000F4150008FEE77047704700002DE9FC4F19
:10022000DFF894A1002301250AF1040B03244FF009
:100230000F0C0BF1040EB8E005FA03F6324071D052
:100240004F68012F05D0022F03D0112F01D0122F9C
:1002500017D1D0F808905F0004FA07F829EA0809D6
:100260000097D1F80C8008FA07F848EA0908C0F8A6
:1002700008804768B7430E79C6F300169E403E4398
:100280004660C6684FEA430804FA08F7BE43019780
:100290008F6807FA08F73743C7604E68022E01D00F
:1002A000122E13D1DE0800EB86060096366A5F0731
:1002B000FF0E0CFA07F926EA0906D1F8109009FAA0
:1002C00007F949EA0609009EC6F820900768019ED2
:1002D000B7430E7906F0030606FA08F63E430660B9
:1002E0004E68F60060D5354E376847F00107376035
:1002F000366823F0030706F001060096304E3E44B0
:10030000B146B6689F074FEA17780CFA08F7BE4364
:100310002C4FB84201D1002715E02B4FB84202D133
:10032000012710E040E0294FB84201D102270AE03E
:10033000274FB84201D1032705E0264FB84201D12B
:10034000042700E0052707FA08F73743C9F80870C3
:10035000DAF800705646D1F8048097435FEAC8384F
:1003600000D517433760DBF800605F46D1F80480A2
:1003700096435FEA883800D516433E60DEF8006099
:100380007746D1F8048096435FEAC82800D5164323
:100390003E60094F0C373E68D1F8048096435FEA0F
:1003A000882800D516433E605B1C0A6832FA03F6C3
:1003B0007FF442AFBDE8FC8F0004014020380240CA
:1003C000000001400000024000040240000802401A
:1003D000000C024000100240014880687047000095
:1003E000040000200248816842681144816070471F
:1003F0000400002010B50024032000F079F800204C
:1004000000F008F808B1012401E000F025F82046CA
:1004100010BD000070B50E4E05460024706898B1FE
:100420004FF47A71B1FBF0F00A490968B1FBF0F0C2
:1004300000F0AAFB40B9102D06D200222946501E1A
:1004400000F036F8356000E00124204670BD000061
:1004500004000020100000200D4808B5016841F09C
:1004600000410160016801F000410091011F0A682C
:1004700042F001020A60096801F00101009101687F
:1004800041F080510160006800F08050009008BD8C
:1004900024380240002809DB00F01F0201219140AE
:1004A0004009800000F1E020C0F800117047000012
:1004B000F0B40E4B1B680C46C3F30223C3F10705CF
:1004C000042D00D90425191D072901D2002300E0BD
:1004D000DB1E012606FA05F1491E214099409E4087
:1004E000761E16403143F0BC01F002B80CED00E07E
:1004F000064900F0070208684FF6FF03184040EA7B
:100500000220034A10430860704700000CED00E031
:100510000000FA052DE9F0470E46050079D0DFF816
:100520008481D8F8000000F00100B04214D2012EFE
:1005300005D1D8F8001041F00401C8F80010D8F82F
:10054000001021F001013143C8F80010D8F8000074
:1005500000F00100B0425CD12878534C800705D5EB
:100560002068A96820F0F000084320602878C007C0
:100570005CD04D496868083902281AD003281BD07E
:10058000096801281BD08905002966DA216821F055
:10059000030101432160FFF71FFF6968074641F22D
:1005A0008830022914D0032920D0012981462AD07D
:1005B00038E009688903E7E709688901E4E7890702
:1005C000E2E700BFFFF708FFC11B494501D926E05C
:1005D00081462068C0F381000228F3D126E000BFE5
:1005E000FFF7FAFEC11B494501D918E08146206892
:1005F000C0F381000328F3D118E000BFFFF7ECFE41
:10060000C11B49450BD82068C0F381000128F5D1F2
:100610000CE022E0FFF7E0FEC11B494502D90320B0
:10062000BDE8F087206810F00C0FF3D1D8F8001067
:10063000404601F00101B14211D9012E03D10168F8
:1006400041F004010160016821F0010131430160C2
:10065000006800F00100B04201D00120E0E72878F6
:10066000400705D52068E96820F4E0600843206071
:100670002878000706D52068296920F4605040EAF0
:10068000C100206000F038F82168084AC1F3031166
:10069000515CC8400649086006480068BDE8F0475C
:1006A000FFF7B8BE003C024008380240B915000808
:1006B0001000002004000020044805490068096873
:1006C000044AC1F30221515CC84070471000002069
:1006D00008380240C915000804480549006809683F
:1006E000044AC1F3C221515CC84070471000002089
:1006F00008380240C915000870B5154D296815481D
:1007000001F00C02042A0CD0134C082A0AD00C2A3F
:100710000AD0281F0068C0F342314FF40040491C42
:10072000884070BD204670BD0C4AC1F38343D35C42
:10073000C1F381522968521CC90302D5A3FB0401ED
:1007400001E0A3FB00010023FFF7F0FC70BD0000F7
:10075000083802400024F400001BB700B015000860
:100760002DE9F84F04007DD0FC480168006801F0D5
:100770000C0700F480362078F94DC00741D0082FCF
:1007800012D00C2F02D1B6F5803F0DD06068012841
:1007900011D008B1052818D0286820F480302860CE
:1007A000286820F4802009E02868800329D5606843
:1007B0000028D8D025E0286840F4803028606068A0
:1007C00090B1FFF709FE80460AE0286840F48020D7
:1007D0002860F0E7FFF700FEA0EB080064287BD854
:1007E00028688003F6D50CE0FFF7F6FD804605E0AB
:1007F000FFF7F2FDA0EB08006428F0D8286880031A
:10080000F6D42078DFF85CB3DFF85C8380074FF024
:1008100001094FF0000A35D5042F0AD00C2F00D162
:100820003EB1E068F8B1C8F80090FFF7D5FD064684
:100830000BE0286880070BD5E068012812D107E09B
:10084000FFF7CAFD801B0228C9D828688007F7D5A2
:10085000DBF80010226921F4F85141EA0221CBF8BB
:1008600000100FE077E1C8F800A0FFF7B5FD0646DD
:1008700005E000BFFFF7B0FD801B0228AFD8286855
:100880008007F7D42078C00674D53FB1A069E0B3E3
:10089000C8F82090FFF7A0FD06464AE028688005CA
:1008A00002D5A069002884D0206ADBF800105E46DB
:1008B00001F46041884210D900F05CFC0028BDD1F1
:1008C0003068216A20F4604008433060217F30683E
:1008D00061F31F6030600FE096E0316821F4604101
:1008E00001433160217F306861F31F603060206A0E
:1008F00000F040FC0028A1D1216A4FF4004009EB30
:10090000513188409549096800E025E0974AC1F3D4
:100910000311515CC8409649086096480068FFF78B
:1009200079FD00286FD125E0FFF756FD801B0228D6
:100930006AD828688005F7D5DBF80010226A21F410
:1009400060411143CBF80010227FDBF8001062F306
:100950001F61CBF800100DE0C8F820A0FFF73CFDA8
:10096000064604E0FFF738FD801B02284CD82868B3
:100970008005F7D42078804E000722D57F48616932
:1009800081B1C0F80090FFF727FD834606E000BF65
:10099000FFF722FDA0EB0B00022835D83068800756
:1009A000F6D50EE0C0F800A0FFF716FD834605E07F
:1009B000FFF712FDA0EB0B00022825D83068800756
:1009C000F6D4207840076DD56B484FF0000B1038F7
:1009D0000068C0000BD468481038016841F08051AD
:1009E000016000684FF0010B00F0805000906448F7
:1009F0000168C90514D4016841F480710160FFF7F2
:100A0000EBFC009008E08DE079E000BFFFF7E4FC2C
:100A10000099401A642872D859480068C005F5D575
:100A2000A06801280AD008B1052811D0306820F448
:100A300080703060306820F4806002E0306840F4FC
:100A400080703060A068A8B1FFF7C6FC00900DE090
:100A5000306840F480603060F0E700BFFFF7BCFC16
:100A60000099411A41F2883081425AD83068800595
:100A7000F4D50EE0FFF7B0FC009007E0FFF7ACFC08
:100A80000099411A41F2883081424AD83068800585
:100A9000F4D4BBF1000F05D037481038016821F0BD
:100AA00080510160606A58B30C2F41D00228504633
:100AB00005D0C8F86000FFF78FFC044634E04746D5
:100AC000C8F86000FFF788FC064604E0FFF784FCE6
:100AD000801B022825D828688001F7D4D4E90A10A1
:100AE00001431E48226B036823F47D031A4311431C
:100AF0000160C7F86090FFF76FFC044607E010E064
:100B000040E000BFFFF768FC001B022809D82868F6
:100B10008001F7D536E000BFFFF75EFC001B02281E
:100B200002D90320BDE8F88F28688001F4D429E0B9
:100B30000128F7D009480068A26A00F48031914288
:100B400009D1E26A00F47011914204D1216B00F4E2
:100B50004000884216D00120E4E700000838024037
:100B6000003802400438024000004742B91500082E
:100B70001000002004000020343802408006474264
:100B8000007000400020CDE710B5401EB0F1807F1E
:100B900001D3012010BD4FF0E02460610F216017E8
:100BA00000F0A6FC0020A06107202061002010BDFD
:100BB00070B590F83820012A26D0012480F83840FA
:100BC000022280F8392003685A689D6822F0700676
:100BD0000A6832435A600268B2F1804F08D00B4B6A
:100BE0009A4205D00A4B9A4202D00A4B9A4204D14B
:100BF000496825F080031943916080F8394000214D
:100C000080F83810084670BD022070BD0004004016
:100C1000000800400008014010B5040003D094F81B
:100C2000390010B107E0012010BD002084F8380021
:100C3000204600F017F8022084F83900211D2068B2
:100C400000F01CFB012084F83E0084F83A0084F890
:100C50003B0084F83C0084F83D0084F83900002013
:100C600010BD000008B50068B0F1804F12D10A48ED
:100C7000016841F0010101600068002200F00100FC
:100C8000009011461C20FFF713FCBDE808401C2013
:100C9000FFF700BC08BD00002438024090F839106E
:100CA000012901D001207047022180F83910016824
:100CB000CA6842F00102CA600068B0F1804F08D0F3
:100CC0000949884205D00949884202D0084988422A
:100CD00004D1816801F00701062903D0016841F0C1
:100CE000010101600020704700040040000800403E
:100CF0000008014070B5044690F83800012817D06C
:100D0000012584F83850022084F839002068826870
:100D100022F0770222F47F4282600868502830D0A7
:100D20000DDC20284DD005DC98B310283BD148E0DD
:100D3000022070BD302844D0402834D139E06028EA
:100D400028D0702806D0B0F5805F2CD0B0F5005FB9
:100D500029D10AE0CB68D1E90121206800F0C8FA66
:100D60002068816841F0770109E0CB68D1E9012171
:100D7000206800F0BDFA2068816841F480418160FC
:100D800011E0CA684968206800F0C4FA5021206860
:100D900007E016E0CA684968206800F0CCFA6021D4
:100DA000206800F0AFFA84F83950002084F8380049
:100DB00070BDCA684968206800F0ACFA402120681C
:100DC000EFE7226801461046EBE7704770B504462E
:100DD000006801694FF00005C943890715D4C1684F
:100DE000C943890711D4E91E0161012020762068DA
:100DF00080698007204602D0FFF7E7FF04E000F09B
:100E000078F8204600F076F8257620680169C94315
:100E1000490717D4C168C943490713D46FF00401C7
:100E20000161022020762068806910F4407F20460E
:100E300002D0FFF7CAFF04E000F05BF8204600F0A4
:100E400059F8257620680169C943090716D4C16895
:100E5000C943090712D46FF008010161042020760C
:100E60002068C0698007204602D0FFF7AEFF04E08B
:100E700000F03FF8204600F03DF825762068016933
:100E8000C943C90617D4C168C943C90613D46FF052
:100E900010010161082020762068C06910F4407FAD
:100EA000204602D0FFF791FF04E000F022F8204630
:100EB00000F020F8257620680169C943C90708D1E8
:100EC000C168C943C90704D1891E0161204600F0E9
:100ED00013F820680169C943490609D4C168C943A8
:100EE000490605D46FF040010161204600F012F878
:100EF00070BD704770470000054841780A2904D347
:100F000000214170012101707047491C41707047F8
:100F100000000020704770B5040004D094F8390038
:100F2000002510B106E0012070BD84F8385020463D
:100F300000F022F8242084F839002068C16821F4E8
:100F40000051C160204600F009FA2068016921F4CF
:100F5000904101612068416921F02A0141612068C6
:100F6000C16841F40051C160E563202084F8390074
:100F700084F83A00002070BD10B586B004461421F4
:100F80006846FFF70BF914492068884221D11348BD
:100F9000016841F480410160006800F480400590E0
:100FA0000E48001F016841F00101016000686946B8
:100FB00000F0010005904FF4C06000900220019005
:100FC0000020029003200390072004900448FFF7BC
:100FD00025F906B010BD000000380140203802405D
:100FE000000002402DE9F843044690F839001F46FE
:100FF00016460D46202850D1B5B1AEB194F8380050
:1010000001284AD0012084F838004FF00008C4F8C5
:101010003C80212084F83900FFF7DEF9A684814660
:10102000E68484F8388026E00120BDE8F883E08C6F
:10103000401EE084A0684B46B0F5805F4FF0000290
:101040004FF080012046009703D000F015FAE8B970
:101050000DE000F011FAC8B928882168C0F3080033
:101060004860206908B16D1C05E0AD1C03E02168F3
:1010700015F8010B4860E08C0028D8D14B460022BF
:1010800040212046009700F0F7F908B10320CCE793
:10109000202084F839000020C7E70220C5E7FEE7DA
:1010A000094808B5016841F020010160016801F0BC
:1010B00020010091016841F001010160006800F029
:1010C0000100009008BD00001C38024010B586B039
:1010D00000241748009401940294039404944FF060
:1010E0008041059401601F21C0E9011444F620618C
:1010F000C0E9031480214161FFF78EFD08B1FFF7BD
:101100008BF84FF48050009069460948FFF7F2FDD4
:1011100008B1FFF781F8049404A905480594FFF786
:1011200047FD002801D0FFF777F806B010BD00009A
:10113000180000200C4810B50A4901604FF4E13155
:101140004160002181600C22C160C0E9041281610C
:10115000C161FFF7E0FE002803D0BDE81040FFF7B3
:101160005BB810BD0038014058000020FEE7704712
:101170007047000038B51C49002309681B4A11F06C
:10118000F00F23D118491C310C68E500184C03D529
:10119000216801F4C0540EE00D6845F080550D60E3
:1011A0000D6805F08055009524680D6804F4C0545E
:1011B00025F080550D60B4F5C05F07D1B0F5404F04
:1011C00004D11068012340F004001060106820F082
:1011D000010018431060106800F00100984201D02F
:1011E000012038BD002038BD08380240003C0240D4
:1011F000007000407047FFF7F5B8000000B593B0ED
:1012000034216846FEF7CAFF14210DA8FEF7C6FF79
:101210001248016821F4C05141F4006101600120CD
:101220000090019002200990C0030A904FF44020E2
:101230000B904FF400000C906846FFF791FA0F20D6
:101240000D9003200E9000200F901090119001211E
:101250000DA8FFF75FF913B000BD0000007000405B
:1012600002494FF0006008607047000008ED00E0A0
:101270000148FFF7ABBD00001800002070B5026800
:101280004FF08046154B164CB04203D0984201D027
:10129000A04205D122F070054A682A43B0420CD022
:1012A00098420AD0A04208D00E4B984205D00E4B6F
:1012B000984202D00D4B984203D122F44073CA6881
:1012C0001A430B6922F080021A4302608A68C262E4
:1012D000096881620121416170BD00000004004085
:1012E0000008004000080140000C014000100140CF
:1012F00010B5846842EA032224F47F440A4322435F
:10130000826010BD826822F070020A4342F0070139
:101310008160704710B5036A046A24F00104046216
:10132000846924F0F00444EA021423F00A020A4318
:101330008461026210BD10B5036A23F010030362DA
:101340008369046A23F4704343EA023224F0A00361
:1013500043EA01118261016210BD00002DE9F041F4
:10136000044600680169E26821F4405111430161BB
:101370002169A068E2690843616911432268084352
:10138000D16849F20C6399430143D16020684169F7
:10139000A26921F4407111434161364920688842B5
:1013A00002D1FFF799F901E0FFF786F90246E369F8
:1013B00064203221B3F5004F02EBC20303EB0213AA
:1013C00062682BD09200B3FBF2F5B5FBF0F5B3FBEE
:1013D000F2F66FF018077D4306EB8505B3FBF2F6D6
:1013E00001EB0515B5FBF0F5B6FBF0F605F0F005E1
:1013F00005EB0615B3FBF2F6B3FBF2F2B2FBF0F22B
:101400007A4306EB820201EB0211B1FBF0F000F02F
:101410000F00216828448860BDE8F0815200B3FBCA
:10142000F2F6B6FBF0F6B3FBF2F7B3FBF2F56FF0B2
:10143000180C06FB0CF607EB860601EBC606B5FB9F
:10144000F0F5B6FBF0F62D0106F0F80605EB4605C3
:10145000B3FBF2F6B3FBF2F2B2FBF0F202FB0CF2DA
:1014600006EB820201EBC201B1FBF0F000F00700D5
:10147000CFE70000003801402DE9F04198461746BB
:101480000E460446069D1DE0681C1BD02DB1FEF7DC
:10149000A3FFA0EB0800A84214D92068C16821F47A
:1014A000D071C1602068416921F0010141612020B3
:1014B00084F8390084F83A00002084F838000320CA
:1014C000BDE8F0812068006836EA000004D0002002
:1014D000B842D9D00020F3E70120F9E7FEE7000089
:1014E000014A024900F023B85115000814000020F9
:1014F0000907090E002804DB00F1E02080F8001441
:10150000704700F00F0000F1E02080F8141D7047D4
:1015100002E008C8121F08C1002AFAD170477047BC
:10152000002001E001C1121F002AFBD170472DE904
:10153000F04116460F460446002503E03946B04701
:10154000641C6D1C20780028F8D12846BDE8F08185
:1015500013B54FF47A73012269460248FFF742FD42
:1015600000981CBD58000020FEF744FFFFF746FE20
:10157000FFF796FDFFF7AAFDFFF7DCFD0648FFF732
:101580008DFB064C002520780028FCD004A0FFF736
:10159000A7FF2570F7E700001800002000000020DA
:1015A00048656C6C6F20576F726C642100000000FE
:1015B000030406080C101820300000000000000092
:1015C00000010203040607080900000000010203ED
:1015D00004000000F41500080000002018000000BE
:1015E000101500080C1600081800002080040000E8
:1015F000201500080000000010000000010000009D
:0C1600000000000068FF1F000000000058
:04000005080000F5FA
:00000001FF
