:020000040800F2
:10000000A8040020090100085F1A00082719000849
:100010005D1A0008E9070008191E0008000000002A
:10002000000000000000000000000000E51A0008C9
:10003000EB07000800000000611A0008E71A00083A
:100040002301000823010008230100082301000800
:1000500023010008230100082301000823010008F0
:1000600023010008230100082301000823010008E0
:1000700023010008230100082301000823010008D0
:1000800023010008230100082301000823010008C0
:1000900023010008230100082301000823010008B0
:1000A00000000000230100082301000823010008CC
:1000B0002301000823010008230100082301000890
:1000C0002301000823010008230100082301000880
:1000D000230100080D1E0008230100082301000869
:1000E0002301000823010008230100082301000860
:1000F00023010008DFF80CD000F018FB004800478F
:1001000049270008A8040020064880470648004701
:10011000FEE7FEE7FEE7FEE7FEE7FEE7FEE7FEE7B7
:10012000FEE7FEE7551B0008F50000082DE9F05F2B
:100130000546002092469B46884606468146402456
:100140001BE0284641464746224600F004F9534644
:100150005A46C01A914110D311461846224600F063
:10016000EBF82D1A67EB01084F46224601200021CB
:1001700000F0E2F817EB00094E41201EA4F1010443
:10018000DFDC484631462A464346BDE8F09FD2B2FE
:1001900001E000F8012B491EFBD270470022F6E770
:1001A00010B513460A4604461946FFF7F0FF2046ED
:1001B00010BD420005D0C0F3C7525242914201DC4B
:1001C0000020704700EBC15070472DE9FE4F81EAD7
:1001D000030404F0004421F0004100944FF0000BB0
:1001E00023F0004350EA01045ED052EA03045BD0DE
:1001F000C3F30A54C1F30A552C44A4F2F334019416
:10020000A0FB0254C1F3130141F48011C3F31303A3
:1002100043F4801301FB024400FB034E840A970A57
:1002200044EA815447EA8357A4FB076802958D0A84
:1002300005FB07854FEA932C04FB0C542705029D10
:100240004FEA065847EA1637B5EB08056EEB070C80
:10025000870E920E47EA811742EA8312A7FB02013A
:10026000B6EB0B0164EB00042B0D43EA0C335E1874
:1002700044EB1C50DA465146E7FB0201C5F3130478
:100280004FEA0B3343EA14534FEA0432019C43EA2A
:100290000603A4F10C040294009CCDE900B400F024
:1002A000B0F803B0BDE8F08F00200146F9E770B563
:1002B00021F0004303430CD0C1F30A550024D5EBD1
:1002C000040564EB0403D617AD1AB34102DB00202A
:1002D000014670BD201841EB025170BD96230022EB
:1002E000114600F051B800F0004230F000400AD052
:1002F000C10D01F56071C0F3160042EA0151C20858
:1003000040071143704700200146704730B50B4647
:10031000014600202022012409E021FA02F59D4235
:1003200005D303FA02F5491B04FA02F52844151E09
:10033000A2F10102F1DC30BD202A04DB203A00FAF0
:1003400002F1002070479140C2F1200320FA03F32C
:10035000194390407047202A04DB203A21FA02F02A
:100360000021704721FA02F3D040C2F120029140EF
:100370000843194670470029A8BF7047401C490030
:1003800008BF20F00100704710B4B0FA80FC00FAFA
:100390000CF050EA010404BF10BC704749B1CCF125
:1003A000200421FA04F411FA0CF118BF01212143B1
:1003B0000843A3EB0C01CB1D4FEA00614FEA10206C
:1003C00042BF002010BC704700EBC350104400290E
:1003D000A4BF10BC7047401C490008BF20F00100BA
:1003E00010BC704710B5141E73F1000408DA401CED
:1003F00041F1000192185B411A4301D120F0010044
:1004000010BD2DE9F04D92469B4611B1B1FA81F233
:1004100002E0B0FA80F220329046FFF78DFF0446EA
:100420000F4640EA0A0041EA0B0153465A46084388
:1004300013D0114653EA010019D0C8F140025046CA
:10044000FFF789FF05460E46504659464246FFF7DC
:1004500073FF084305D0012004E020463946BDE87B
:10046000F08D0020054346EAE0762C4337430A9896
:100470006305E40AA0EB08000022FD0A44EA4754A1
:100480000A3002D500200146E9E70105101969414B
:10049000DDE9084500196941BDE8F04DA2E72DE905
:1004A000FE4F804681EA0300C00F0C46009021F009
:1004B000004123F00045B8EB0200A94105D24046B7
:1004C000214690461C460B46024623F0004010434E
:1004D00047D0270DC7F30A00C3F30A510290401A10
:1004E000019040286BDAC3F3130040F4801B00989E
:1004F000924620B10023D2EB030A63EB0B0B019869
:100500005946C0F140025046FFF716FF06460D4619
:1005100050465946019A00F01BF910EB0800614162
:10052000002487EA115284EAE7731A4340D0009A04
:1005300062B3019A012A4FEA075215DC001B61EBF6
:1005400002014FF0004202EA0752CDE90042001CCE
:1005500041F5801132462B46FFF753FF03B0BDE84B
:10056000F08F40462146F9E7001B61EB0201001CB9
:1005700041F5801300185B412018A2F5001747EBE6
:10058000030140EAD570B6196D4111E06D084FEADC
:10059000360645EAC0754FEA0752001B61EB0201BF
:1005A000001C41F5801149084FEA30000019514103
:1005B00032462B4603B0BDE8F04FFFF713BF00985B
:1005C000012240000023D0EB020263EBE0730098AD
:1005D00021464FEAE074B8EB000061EB0401E9E763
:1005E00083F000435BE781F0004158E72DE9F04DCF
:1005F00081EA030404F0004B21F0004514464FF05B
:10060000000A23F0004150EA050220D054EA01021A
:100610001DD0C5F30A570246C5F31303C1F31300F7
:10062000C1F30A5640F4801543F48013A7EB060883
:10063000101BD64608F2FD3873EB050002D308F113
:10064000010801E092185B41B8F1000F03DA0020C5
:100650000146BDE8F08D00204FF480110646844627
:100660000EE0171B73EB050705D3121B63EB0503A5
:1006700006434CEA010C49084FEA300092185B41EE
:1006800050EA0107EDD152EA030012D082EA0400D9
:1006900083EA0501084305D0101BAB4106D20122B5
:1006A000002306E000224FF0004302E06FF0010259
:1006B00053101AEB06004CEB085110EB0A0041EB0B
:1006C0000B01BDE8F04DFFF78DBEC1F30A52C1F337
:1006D000130140F2FF3341F480119A4202DA002004
:1006E0000146704740F233439A42A2F2334202DCA1
:1006F0005242FFF730BEFFF71FBE000030B5041EA8
:1007000071F1000404DB4FF00044404264EB01014E
:10071000141E73F1000405DB1C464FF000435242E7
:1007200063EB0403994208BF904230BD064C074D6D
:1007300006E0E06840F0010394E8070098471034B1
:10074000AC42F6D3FFF7DAFCE827000808280008D7
:10075000202A06DBCB17203A41FA02F043EAE07385
:1007600006E041FA02F3D040C2F120029140084372
:1007700019467047F8B500260446009600680168DF
:10078000C94349062AD5816841F0010181601448B6
:1007900014490068B0FBF1F000EB400000E0401E9F
:1007A00000900028FBD100F073FB054611E000BF6C
:1007B00000F06EFB401B02280BD9E06C40F01000EB
:1007C000E064206D40F00100206584F8486001205D
:1007D000F8BD20680068C0434006E9D40020F8BD99
:1007E0000C00002040420F00FEE7704770470000F9
:1007F000F8B50024009490F848202546012A12D02C
:10080000012280F848204A681F23072A0DD2066873
:10081000376C521E02EB820293409F430B68934059
:100820001F43376435E00220F8BD0D2A0BD207685C
:10083000FE6BD21F02EB820293409E430B689340F3
:100840001E43FE6325E0132A0BD20668B76B0D3AF0
:1008500002EB820293409F430B6893401F43B763B0
:1008600017E00668192A0AD2776B133A02EB820264
:1008700093409F430B6893401F43776309E0376BB6
:10088000193A02EB820293409F430B6893401F4347
:1008900037630A6807230A2A0AD20668776902EBD7
:1008A000420293409F438B6893401F4377611CE053
:1008B000142A0BD207683E690A3A02EB42029340BF
:1008C0009E438B6893401E433E610EE01A2A0BD86C
:1008D0000768FE68143A02EB420293409E438B681D
:1008E00093401E43FE6000E000BF0A68102A01D05A
:1008F000112A17D10D4A13681B0213D4136843F44D
:1009000000031360096810290CD10949094A0968D4
:10091000B1FBF2F101EB8101490000E0491E0091B9
:100920000029FBD180F848502046F8BD042701403B
:100930000C00002040420F000068806D70470000EE
:10094000F8B504004FF0000503D0E06C002610B1AC
:1009500010E00120F8BD26655C4884F84860016815
:1009600041F001010160006800F0010000902046A4
:1009700000F0B6F8E06CC0067AD4E06C20F4885041
:1009800040F00200E06452480168626821F440319E
:10099000114301606169E0684FF40073084394F803
:1009A0003C2093FAA3F3B3FA83F3216A9A401143EC
:1009B0000843022194F8242091FAA1F1B1FA81F1BF
:1009C00002FA01F10843616B102902D0A36B1943AD
:1009D0000843236819684FF48077C943490629D52D
:1009E000A169D4F81CC00843A168D4F810E041EA1A
:1009F0000C01BE450CD0BEF1010F09D04FF0000C28
:100A000041EA0C0194F82CC0BCF1010F02D00AE0BD
:100A1000BC46F5E76AB3E26C42F02002E264226D64
:100A200042F0010222655A68DFF8A8C002EA0C020F
:100A30000A435A6021688A68274B1A4002438A6039
:100A40002169B94224D0012922D021680A6B22F001
:100A5000F8720A6321688968204A1140814227D1CF
:100A60002665E06C20F0020040F00100E0642AE01E
:100A700028E0FFE74FF4604C226B9CFAACFCBCFA18
:100A80008CFC521E02FA0CF20A4342F40061CAE7DF
:100A900021680A6B4FF0F87722F0F873A26A97FA90
:100AA000A7F7B7FA87F7521EBA4013430B63D1E793
:100AB000E06C20F0020040F01000E064206D40F097
:100AC0000100206501252846F8BD000020380240BD
:100AD00004270140FF16FCFC8DF1FFC0FEFF80BF24
:100AE00010B586B0044614216846FFF757FB12493B
:100AF000206888421DD11148016841F400710160ED
:100B0000006800F4007005900C48001F016841F077
:100B1000020101600068694600F0020005904FF490
:100B2000004000900320019000200290044800F053
:100B3000D1F806B010BD000000240140203802406A
:100B4000000402402DE9F041044600680D4681682A
:100B50004FF0000749050BD58068C00508D5E06C4B
:100B600040F02000E06484F848700120BDE8F08186
:100B700000F08EF906460FE0681C0DD025B100F09C
:100B800087F9801BA84207D9E06C40F00400E064BC
:100B900084F848700320E9E7206800688007EBD5F7
:100BA000A06918B921686FF012000860E06C40F489
:100BB0000070E0642068816811F0405F14D194F8FF
:100BC000241089B9016B11F0F87F02D080684005CC
:100BD0000AD4E06C20F48070E064E06CC00403D4BC
:100BE000E06C40F00100E0640020BFE710B504466F
:100BF00090F84800012822D0012084F848002046BF
:100C0000FFF7B8FD00281BD1E16C40F2016291436F
:100C100041F48071E16421684A68520505D5E26CAF
:100C200022F4005242F48052E264E26CD3044FF0AA
:100C3000000206D5236D23F00603236502E002209F
:100C400010BD226584F848206FF022020A602168F6
:100C50008A6812F0405FF3D18A6842F080428A606D
:100C600010BD10B590F821100024022903D00421F2
:100C7000816301241AE001680A6822F00E020A600A
:100C800001680A6822F001020A6090F84010C36B04
:100C900001F01C02012101FA02F25A6080F82110D1
:100CA000002180F82010416B01B18847204610BD1B
:100CB00070B5044600F0ECF80546601C02D004480C
:100CC0004068044400F0E4F8401BA042FAD370BD31
:100CD000000000202DE9FC4FDFF894A1002301253E
:100CE0000AF1040B03244FF00F0C0BF1040EB8E0D3
:100CF00005FA03F6324071D04F68012F05D0022F5C
:100D000003D0112F01D0122F17D1D0F808905F0017
:100D100004FA07F829EA08090097D1F80C8008FAC4
:100D200007F848EA0908C0F808804768B7430E7911
:100D3000C6F300169E403E434660C6684FEA43082D
:100D400004FA08F7BE4301978F6807FA08F737439C
:100D5000C7604E68022E01D0122E13D1DE0800EBC0
:100D600086060096366A5F07FF0E0CFA07F926EA38
:100D70000906D1F8109009FA07F949EA0609009E18
:100D8000C6F820900768019EB7430E7906F0030667
:100D900006FA08F63E4306604E68F60060D5354E0A
:100DA000376847F001073760366823F0030706F01D
:100DB00001060096304E3E44B146B6689F074FEAA2
:100DC00017780CFA08F7BE432C4FB84201D1002720
:100DD00015E02B4FB84202D1012710E040E0294F27
:100DE000B84201D102270AE0274FB84201D10327B8
:100DF00005E0264FB84201D1042700E0052707FA95
:100E000008F73743C9F80870DAF800705646D1F889
:100E1000048097435FEAC83800D517433760DBF892
:100E200000605F46D1F8048096435FEA883800D5B9
:100E300016433E60DEF800607746D1F804809643A2
:100E40005FEAC82800D516433E60094F0C373E685C
:100E5000D1F8048096435FEA882800D516433E60A7
:100E60005B1C0A6832FA03F67FF442AFBDE8FC8FE0
:100E70000004014020380240000001400000024010
:100E80000004024000080240000C02400010024032
:100E90000148806870470000000000200248816817
:100EA00042681144816070470000002010B50024A2
:100EB000032000F07DF8002000F008F808B10124BC
:100EC00001E000F025F8204610BD000070B50E4E80
:100ED00005460024706898B14FF47A71B1FBF0F0C8
:100EE0000A490968B1FBF0F000F0AEFB40B9102DE3
:100EF00006D200222946501E00F03AF8356000E084
:100F00000124204670BD0000000000200C000020DD
:100F10000F4882B0016841F000410160016801F0B2
:100F200000410091011F0A6842F001020A6009684D
:100F300001F001010091016841F0805101600068F9
:100F400000F080500090052002B000F031B80000A1
:100F500024380240002809DB00F01F0201219140E3
:100F60004009800000F1E020C0F800117047000047
:100F7000F0B40E4B1B680C46C3F30223C3F1070504
:100F8000042D00D90425191D072901D2002300E0F2
:100F9000DB1E012606FA05F1491E214099409E40BC
:100FA000761E16403143F0BC00F048BF0CED00E067
:100FB000064900F0070208684FF6FF03184040EAB0
:100FC0000220034A10430860704700000CED00E067
:100FD0000000FA052DE9F0470E46050079D0DFF84C
:100FE0008481D8F8000000F00100B04214D2012E34
:100FF00005D1D8F8001041F00401C8F80010D8F865
:10100000001021F001013143C8F80010D8F80000A9
:1010100000F00100B0425CD12878534C800705D520
:101020002068A96820F0F000084320602878C007F5
:101030005CD04D496868083902281AD003281BD0B3
:10104000096801281BD08905002966DA216821F08A
:10105000030101432160FFF71BFF6968074641F266
:101060008830022914D0032920D0012981462AD0B2
:1010700038E009688903E7E709688901E4E7890737
:10108000E2E700BFFFF704FFC11B494501D926E095
:1010900081462068C0F381000228F3D126E000BF1A
:1010A000FFF7F6FEC11B494501D918E081462068CB
:1010B000C0F381000328F3D118E000BFFFF7E8FE7A
:1010C000C11B49450BD82068C0F381000128F5D128
:1010D0000CE022E0FFF7DCFEC11B494502D90320EA
:1010E000BDE8F087206810F00C0FF3D1D8F800109D
:1010F000404601F00101B14211D9012E03D101682E
:1011000041F004010160016821F0010131430160F7
:10111000006800F00100B04201D00120E0E728782B
:10112000400705D52068E96820F4E06008432060A6
:101130002878000706D52068296920F4605040EA25
:10114000C100206000F038F82168084AC1F303119B
:10115000515CC8400649086006480068BDE8F04791
:10116000FFF7B4BE003C024008380240CD2700081B
:101170000C000020000000200448054900680968B0
:10118000044AC1F30221515CC84070470C000020A2
:1011900008380240DD27000804480549006809684E
:1011A000044AC1F3C221515CC84070470C000020C2
:1011B00008380240DD27000870B5154D296815482C
:1011C00001F00C02042A0CD0134C082A0AD00C2A75
:1011D0000AD0281F0068C0F342314FF40040491C78
:1011E000884070BD204670BD0C4AC1F38343D35C78
:1011F000C1F381522968521CC90302D5A3FB040123
:1012000001E0A3FB00010023FEF790FF70BD00008A
:10121000083802400024F400001BB700C42700086F
:101220002DE9F84F04007DD0FC480168006801F00A
:101230000C0700F480362078F94DC00741D0082F04
:1012400012D00C2F02D1B6F5803F0DD06068012876
:1012500011D008B1052818D0286820F48030286003
:10126000286820F4802009E02868800329D5606878
:101270000028D8D025E0286840F4803028606068D5
:1012800090B1FFF705FE80460AE0286840F4802010
:101290002860F0E7FFF7FCFDA0EB080064287BD88E
:1012A00028688003F6D50CE0FFF7F2FD804605E0E4
:1012B000FFF7EEFDA0EB08006428F0D82868800353
:1012C000F6D42078DFF85CB3DFF85C8380074FF05A
:1012D00001094FF0000A35D5042F0AD00C2F00D198
:1012E0003EB1E068F8B1C8F80090FFF7D1FD0646BE
:1012F0000BE0286880070BD5E068012812D107E0D1
:10130000FFF7C6FD801B0228C9D828688007F7D5DB
:10131000DBF80010226921F4F85141EA0221CBF8F0
:1013200000100FE077E1C8F800A0FFF7B1FD064616
:1013300005E000BFFFF7ACFD801B0228AFD828688E
:101340008007F7D42078C00674D53FB1A069E0B318
:10135000C8F82090FFF79CFD06464AE02868800503
:1013600002D5A069002884D0206ADBF800105E4610
:1013700001F46041884210D900F074FB0028BDD10F
:101380003068216A20F4604008433060217F306873
:1013900061F31F6030600FE096E0316821F4604136
:1013A00001433160217F306861F31F603060206A43
:1013B00000F058FB0028A1D1216A4FF4004009EB4E
:1013C000513188409549096800E025E0974AC1F30A
:1013D0000311515CC8409649086096480068FFF7C1
:1013E00075FD00286FD125E0FFF752FD801B022814
:1013F0006AD828688005F7D5DBF80010226A21F446
:1014000060411143CBF80010227FDBF8001062F33B
:101410001F61CBF800100DE0C8F820A0FFF738FDE1
:10142000064604E0FFF734FD801B02284CD82868EC
:101430008005F7D42078804E000722D57F48616967
:1014400081B1C0F80090FFF723FD834606E000BF9E
:10145000FFF71EFDA0EB0B00022835D8306880078F
:10146000F6D50EE0C0F800A0FFF712FD834605E0B8
:10147000FFF70EFDA0EB0B00022825D8306880078F
:10148000F6D4207840076DD56B484FF0000B10382C
:101490000068C0000BD468481038016841F08051E2
:1014A000016000684FF0010B00F08050009064482C
:1014B0000168C90514D4016841F480710160FFF727
:1014C000E7FC009008E08DE079E000BFFFF7E0FC6A
:1014D0000099401A642872D859480068C005F5D5AB
:1014E000A06801280AD008B1052811D0306820F47E
:1014F00080703060306820F4806002E0306840F432
:1015000080703060A068A8B1FFF7C2FC00900DE0C9
:10151000306840F480603060F0E700BFFFF7B8FC4F
:101520000099411A41F2883081425AD830688005CA
:10153000F4D50EE0FFF7ACFC009007E0FFF7A8FC45
:101540000099411A41F2883081424AD830688005BA
:10155000F4D4BBF1000F05D037481038016821F0F2
:1015600080510160606A58B30C2F41D00228504668
:1015700005D0C8F86000FFF78BFC044634E047460E
:10158000C8F86000FFF784FC064604E0FFF780FC23
:10159000801B022825D828688001F7D4D4E90A10D6
:1015A00001431E48226B036823F47D031A43114351
:1015B0000160C7F86090FFF76BFC044607E010E09D
:1015C00040E000BFFFF764FC001B022809D8286830
:1015D0008001F7D536E000BFFFF75AFC001B022858
:1015E00002D90320BDE8F88F28688001F4D429E0EF
:1015F0000128F7D009480068A26A00F480319142BE
:1016000009D1E26A00F47011914204D1216B00F417
:101610004000884216D00120E4E70000083802406C
:10162000003802400438024000004742CD2700083D
:101630000C000020000000203438024080064742A1
:10164000007000400020CDE710B5401EB0F1807F53
:1016500001D3012010BD4FF0E02460610F2160171D
:1016600000F0ECFB0020A06107202061002010BDED
:101670007047000070B5026804461068D16853696D
:1016800010F00F0F52D003F0010501F490762E43B5
:101690005FD0C20705D0CA0503D5E26B42F0010254
:1016A000E263420705D5DA0703D0E26B42F002029B
:1016B000E263820705D5DA0703D0E26B42F0040249
:1016C000E263020707D501F020022A4303D0E26B50
:1016D00042F00802E263E26B002A33D0800604D5B0
:1016E000880602D5204600F053FA20684069E16B75
:1016F000C0F38010090700D428B3204600F03AFA5E
:101700002068416949061AD5416921F040014161CB
:10171000606BA0B11B494163606BFFF7A2FA002820
:1017200010D0606B416BBDE870400847830610D550
:101730008B060ED52046BDE8704000F029BA204641
:10174000FFF796FF70BD2046FFF792FF0020E06391
:1017500070BD030606D50B0604D52046BDE87040D3
:1017600000F0F0BA4006F3D54806F1D5D16820461E
:1017700021F04001D160202184F8391000F0D2F826
:1017800070BD0000651B000870B5040004D094F81B
:101790003900002510B106E0012070BD84F83850F2
:1017A000204600F023F8242084F839002068C1681E
:1017B00021F40051C160204600F036FA206801692A
:1017C00021F4904101612068416921F02A014161C1
:1017D0002068C16841F40051C160E563202084F8AD
:1017E000390084F83A00002070BD000010B586B0C2
:1017F000044614216846FEF7D1FC18492068884247
:1018000029D11748016841F480410160006800F463
:10181000804005901248001F016841F001010160FD
:101820000068694600F0010005904FF4C060009028
:1018300002200190002002900320039007200490D2
:101840000848FFF747FA012200212520FFF790FB07
:101850002520FFF77FFB06B010BD000000380140D7
:10186000203802400000024070472DE9F84304464A
:1018700090F839001F4616460D46202850D1B5B1C4
:10188000AEB194F8380001284AD0012084F838001D
:101890004FF00008C4F83C80212084F83900FFF79D
:1018A000F7FAA6848146E68484F8388026E0012091
:1018B000BDE8F883E08C401EE084A0684B46B0F59C
:1018C000805F4FF000024FF080012046009703D068
:1018D00000F069FAE8B90DE000F065FAC8B92888A7
:1018E0002168C0F308004860206908B16D1C05E05C
:1018F000AD1C03E0216815F8010B4860E08C00285E
:10190000D8D14B46002240212046009700F04BFAE8
:1019100008B10320CCE7202084F839000020C7E775
:101920000220C5E77047FEE73EB500241648009444
:10193000019414490294C0E900148460C4600461F5
:1019400044618461C461046280F824400125856299
:1019500080F82C401021C0E90D1480F83C40FEF7BF
:10196000EFFF08B1FEF742FF1520CDE900056946FB
:1019700002940548FEF73CFF002801D0FEF736FF31
:101980003EBD0000002401401400002030B587B0A7
:1019900014216846FEF702FC1E48016841F004016C
:1019A0000160016801F004010591016841F0200126
:1019B0000160016801F020010591016841F0010119
:1019C0000160016801F001010591016841F0020127
:1019D00001600068032400F0020005904FF46040AD
:1019E00000258DE8310069460B48FFF773F949F689
:1019F000FF108DE8310069460848FFF76BF947F69C
:101A0000FF708DE8310069460548FFF763F907B0BC
:101A100030BD00001C3802400008024000000240B7
:101A2000000402400C4810B50A4901604FF4E1314E
:101A30004160002181600C22C160C0E90412816113
:101A4000C161FFF7A1FE002803D0BDE81040FEF7FA
:101A5000CDBE10BD0038014068000020FEE7704791
:101A60007047000038B51C49002309681B4A11F073
:101A7000F00F23D118491C310C68E500184C03D530
:101A8000216801F4C0540EE00D6845F080550D60EA
:101A90000D6805F08055009524680D6804F4C05465
:101AA00025F080550D60B4F5C05F07D1B0F5404F0B
:101AB00004D11068012340F004001060106820F089
:101AC000010018431060106800F00100984201D036
:101AD000012038BD002038BD08380240003C0240DB
:101AE000007000407047FFF7D9B9000010B592B000
:101AF00034216846FEF752FB14210DA8FEF74EFB79
:101B00001348016821F4C05141F4006101600120D3
:101B10000324CDE900400390102004900220099096
:101B2000C0030A90A0040B904FF400000C9068468C
:101B3000FFF776FB0F20CDE90D0400200F901090E9
:101B4000119001210DA8FFF745FA12B010BD000059
:101B50000070004002494FF00060086070470000CC
:101B600008ED00E010B5406A0021C185C184FFF78F
:101B70007FFD10BD0168CA6822F49072CA600168D6
:101B80004A6922F001024A61202180F83A10704728
:101B900010B590F83A10222901D0022010BD8168BA
:101BA000B1F5805F11D00169002901681FD0496833
:101BB00001F07F03816A4A1C82620B70C18D491E4D
:101BC0000904090CC18518D02BE00269816A002A3A
:101BD0000268526805D0D2B20A80816A491C8162CB
:101BE000ECE7C2F308020A80816A891CF7E74A68B9
:101BF000816A4B1C83620A70E0E70168CA6822F0C0
:101C00002002CA600168CA6822F48072CA60016852
:101C10004A6922F001024A61202180F83A10FFF758
:101C200023FE002010BD00002DE9F04104460068AD
:101C30000169E26821F44051114301612169A06802
:101C4000E26908436169114322680843D16849F297
:101C50000C6399430143D16020684169A26921F472
:101C600040711143416136492068884202D1FFF733
:101C700093FA01E0FFF780FA0246E369642032211B
:101C8000B3F5004F02EBC20303EB021362682BD0E3
:101C90009200B3FBF2F5B5FBF0F5B3FBF2F66FF093
:101CA00018077D4306EB8505B3FBF2F601EB05153E
:101CB000B5FBF0F5B6FBF0F605F0F00505EB061503
:101CC000B3FBF2F6B3FBF2F2B2FBF0F27A4306EBAF
:101CD000820201EB0211B1FBF0F000F00F0021686D
:101CE00028448860BDE8F0815200B3FBF2F6B6FBF1
:101CF000F0F6B3FBF2F7B3FBF2F56FF0180C06FB4E
:101D00000CF607EB860601EBC606B5FBF0F5B6FB55
:101D1000F0F62D0106F0F80605EB4605B3FBF2F6EA
:101D2000B3FBF2F2B2FBF0F202FB0CF206EB820222
:101D300001EBC201B1FBF0F000F00700CFE70000BB
:101D40000038014090F83910212901D00220704755
:101D50008168B1F5805F016A0BD04A1C026202689B
:101D600009785160C18C491E0904090CC1840ED048
:101D700017E009880268C1F3080151600169002970
:101D8000016A02D0491C0162ECE7891CFBE701688B
:101D9000CA6822F08002CA600068C16841F0400150
:101DA000C160002070472DE9F041984617460E4665
:101DB0000446069D1DE0681C1BD02DB1FFF768F896
:101DC000A0EB0800A84214D92068C16821F4D071A2
:101DD000C1602068416921F001014161202084F83F
:101DE000390084F83A00002084F838000320BDE868
:101DF000F0812068006836EA000004D00020B84274
:101E0000D9D00020F3E70120F9E700000148FFF7EF
:101E100031BC000068000020FEE700000FB4054B55
:101E200010B503A9044A029800F0EAF810BC5DF866
:101E300014FB000031270008100000200907090EDC
:101E4000002804DB00F1E02080F80014704700F067
:101E50000F0000F1E02080F8141D704702E008C870
:101E6000121F08C1002AFAD170477047002001E014
:101E700001C1121F002AFBD1704700002DE9FF5F4E
:101E800082B00021DDE90430020DDDF840B00343EB
:101E900018D044F61050A2F2FF32424315141198A4
:101EA00001281FD0A5EB0B00401C5FEA000A4FF091
:101EB00000064E4FDFF83891B046504615D5CAF1AE
:101EC000000413E0119801244AA3012801D16FEA0C
:101ED0000B010298119AC0E90031C0E9024206B034
:101EE000BDE8F09FCBF10000DFE704460021404A47
:101EF000491842EB0450CDE9001012E0E00707D08A
:101F000032463B4640464946FEF75FF980468946E1
:101F100032463B4610461946FEF757F906460F462D
:101F20006410002CEAD1DDE90401DDE90023BAF1F7
:101F3000000F06DAFEF749F942464B46FEF745F92F
:101F400005E0FEF753FB42464B46FEF74FFB0446C7
:101F50000E460022284BFEF7D1FB03D84FF0FF308E
:101F6000014607E00022254B20463146FEF797FA4E
:101F7000FEF7ABFB102409E0002C0ADB0A22002349
:101F8000FEF7D4F8039B30321A55641E50EA010262
:101F9000F2D1641C039AC4F111031444119A012A6A
:101FA00003D0012208430DD10AE0084304D00020E9
:101FB0004FF0110B119072E7A3EB0B056D1E0DE0B6
:101FC0005B4504DD4FF0000205F1010504E003DA92
:101FD0004FF00002A5F10105002AECD002981199FA
:101FE000C0E90231C0E9004579E700000000144073
:101FF0000000F03F300000000000F0430000E03F30
:102000002DE9FF4F95B09B468946064600250FE215
:10201000252877D100242746F84A0121059400E0BD
:10202000044316F8013F203B01FA03F01042F7D1B8
:1020300030782A2811D06FF02F033078A0F13002C9
:10204000092A16D8059A44F0020402EB820203EB37
:1020500042021044761C0590EFE759F8042B0592D4
:10206000002A03DA504244F40054059044F002047C
:10207000761C30782E2816D116F8010F44F004048F
:102080002A280DD06FF02F023078A0F13003092BF1
:1020900009D807EB870302EB4303C718761CF3E765
:1020A00059F8047B761C30786C280FD006DC4C285D
:1020B00017D068280DD06A2814D104E0742810D0F5
:1020C0007A280FD10DE044F400140AE044F480149F
:1020D00001E044F440147278824202D104F5801485
:1020E000761C761C307866280BD013DC582877D005
:1020F00009DC002875D04528F6D04628F4D04728BA
:102100001AD19DE118E0632835D0642879D065287C
:1021100012D195E1702873D008DC6728F1D06928C6
:102120006FD06E280DD06F2806D1B5E073282CD063
:10213000752875D0782874D05A46179990476D1C29
:1021400075E1C4F30250022809D003280DD0D9F854
:10215000001004280DD00D6009F1040967E1D9F8D9
:102160000010EA17C1E90052F6E7D9F800100D8017
:10217000F2E70D70F0E719F8041B8DF8001000204D
:102180008DF80100EA46012003E059F804AB4FF056
:10219000FF3061074FF0000102D40DE008F10101AA
:1021A0008846B9420FDA8045F8DB1AF80810002992
:1021B000F4D108E008F1010188468142FADB1AF8FF
:1021C00008100029F6D105985B46A0EB08072146C8
:1021D0003846179A00F094FA284400EB080507E007
:1021E0004DE029E10DE01AF8010B5A461799904786
:1021F000B8F10108F7D25B4621463846179A13E139
:1022000042E00A220092C4F302524FF0000A022A6E
:1022100008D059F804CB032A4FEAEC710AD00DE03C
:1022200029E02AE009F1070121F00702F2E802C1E2
:10223000914609E00FFA8CFC4FEAEC71042A03D1B5
:102240004FFA8CFC4FEAEC71002907DA0A460021AC
:10225000DCF1000C61EB02012D2202E0220504D525
:102260002B228DF80420012203E0E20701D0202276
:10227000F7E7904659E00A2102E010220DE0102114
:102280004FF0000A00910BE010224FF0000A44F0DA
:1022900004040827009203E008224FF0000A00928D
:1022A000C4F30252022A05D059F804CB0021032AB4
:1022B00008D009E009F1070121F00702F2E802C1A4
:1022C000914605E01FFA8CFC042A01D10CF0FF0CAA
:1022D0004FF00008220728D5702806D0009B83F015
:1022E000100353EA0A0305D00EE040228DF80420C3
:1022F000012208E05CEA010206D030228DF80420B9
:102300008DF8050002229046009B83F0080353EAF3
:102310000A030AD15CEA010201D1620705D5302225
:102320008DF804204FF001087F1E582804D034A0F7
:1023300003900EA802900DE036A0F9E753466046E0
:10234000009AFDF7F3FE84460398825C0298401ED3
:10235000029002705CEA0100F0D1029806A9081A06
:1023600000F1200A600702D524F4803400E0012740
:10237000574502DDA7EB0A0000E0002000EB0A0150
:10238000009005984144401A0590E00306D45B464E
:102390002146179A059800F0B3F90544002706E096
:1023A00001A85A46C05D179990476D1C7F1C474590
:1023B000F6DBE0030CD55B462146179A059800F042
:1023C0009FF9054404E030205A46179990476D1C48
:1023D0000099481E00900029F5DC08E00298029957
:1023E0005A460078491C0291179990476D1CBAF122
:1023F0000001AAF1010AF1DC65E1000009280100F1
:10240000303132333435363738396162636465666A
:10241000000000003031323334353637383941422C
:10242000434445460000000000F058F90544761C7E
:10243000307800287FF4ECAD19B02846BDE8F08F65
:10244000620700D4062709F1070222F0070CFCE816
:102450000223E14603F000485FEA080C02D00FF2C5
:10246000702C0DE05FEA045C02D50FF2682C07E0E7
:102470005FEAC47C02D00FF2602C01E0AFF2700C76
:102480004FF0FF3823F00043CDF850C065280CD042
:1024900006DC452809D046281DD047283DD13DE01F
:1024A000662818D067287ED138E00021112F01DB83
:1024B000112000E0781CCDE9000106A90EA8FFF765
:1024C000DDFCDDE90F010E9A03910021009207F176
:1024D000010A04914DE04FF000400097CDE9011052
:1024E00006A90EA8FFF7CAFCDDE90F0203920E9BB6
:1024F00011990022DDF80CA00093049211B9791C07
:1025000000EB010AB7EB0A0004D4C0F1FF3007F179
:10251000010A0490AAEB0700019044E0012F00DAC1
:1025200001270021112F01DD112000E03846CDE9FF
:10253000000106A90EA8FFF7A1FCDDE90F010E9A24
:102540000391002104910092BA4621070CD403990B
:10255000514500DA8A46BAF1010F05DD009AAAF169
:102560000101515C302908D0B84202DA10F1040FA1
:1025700006DA0121CDE9011015E0AAF10101E9E730
:10258000002805DC049901440491AAEB000102E053
:10259000411C514500DD8A460499401A401C0190B7
:1025A0004FF000400290200704D40198504501DB11
:1025B000CDF8048000208DF84F0002980DF14F07F0
:1025C000B0F1004F25D02B200E9002984FF002085A
:1025D00000280CDA404202902D200E9007E00A21DC
:1025E0000298FDF793FE3031029007F8011DB8F113
:1025F0000001A8F10108F2DC02980028EFD1791E51
:102600000E980870307800F0200040F0450007F880
:10261000020D12A8C01B00F107081498007800B141
:10262000012000EB0A01019801EBE071059841449B
:10263000401A401E0590E00306D45B462146179AD7
:10264000059800F05DF805441498007818B15A46D2
:10265000179990476D1CE00324D55B462146179AD5
:10266000059800F04DF805441CE00498002807DBAD
:10267000DDE90301884203DD0098405C179901E021
:10268000179930205A469047049805F10105401CDF
:1026900004900198401E019004D12E205A461799AB
:1026A00090476D1CBAF10001AAF1010ADDDC05E0DA
:1026B00017F8010B5A46179990476D1CB8F10001A5
:1026C000A8F10108F4DC5B462146179A0598ABE6B1
:1026D0002D0000002B000000200000002DE9F0413B
:1026E000044600251E461746880404D405E03946F2
:1026F0002020B0476D1C641EF9D52846BDE8F08146
:102700002DE9F041044600251E469046C80301D538
:10271000302700E02027880404D505E041463846EC
:10272000B0476D1C641EF9D52846BDE8F081000055
:1027300013B54FF47A73012269460248FFF795F802
:1027400000981CBD68000020FEF7B0FBFFF7CEF933
:10275000FFF71CF9FFF7E8F8FFF764F9134E6FF085
:102760000B044FF066354FF4FA771148FEF73EFA46
:1027700032210F48FEF7E6F90D48FEF7DDF8FDF7C8
:10278000ADFD2146FDF715FDFDF7ADFD2A463346AB
:10279000FDF71BFD0122FDF78AFD02460B4605A051
:1027A000FFF73CFB3846FEF783FADEE766660A4031
:1027B0001400002042415456616C203D20252E34E7
:1027C00066560A00030406080C10182030000000AA
:1027D00000000000000102030406070809000000D1
:1027E0000001020304000000082800080000002087
:1027F000140000005C1E00081C28000814000020C3
:10280000940400006C1E000810000000010000008D
:0C2810000000000068FF1F000000000036
:04000005080000F5FA
:00000001FF
