:020000040800F2
:10000000B004002009010008831D0008171900082A
:10001000811D0008BF080008D12000080000000072
:10002000000000000000000000000000D51E0008D5
:10003000F108000800000000851D0008D71E000818
:100040002301000823010008230100082301000800
:1000500023010008230100082301000823010008F0
:1000600023010008230100082301000823010008E0
:1000700023010008230100082301000823010008D0
:1000800023010008230100082301000823010008C0
:1000900023010008230100082301000823010008B0
:1000A00000000000230100082301000823010008CC
:1000B0002301000823010008230100082301000890
:1000C0002301000823010008230100082301000880
:1000D0002301000823010008230100082301000870
:1000E0002301000823010008230100082301000860
:1000F00023010008DFF80CD000F060FB0048004747
:10010000012A0008B004002006488047064800473E
:10011000FEE7FEE7FEE7FEE7FEE7FEE7FEE7FEE7B7
:10012000FEE7FEE7411F0008F50000082DE9F05F3B
:100130000546002092469B46884606468146402456
:100140001BE0284641464746224600F037F9534611
:100150005A46C01A914110D311461846224600F063
:100160001EF92D1A67EB01084F4622460120002197
:1001700000F015F917EB00094E41201EA4F101040F
:10018000DFDC484631462A464346BDE8F09FD2B2FE
:1001900001E000F8012B491EFBD270470022F6E770
:1001A00010B513460A4604461946FFF7F0FF2046ED
:1001B00010BDF0B480EA0102D40F4200B2EB410F4F
:1001C00002D20246084611464A0042D0C30DDDB2B3
:1001D000C1F3C752AD1A202D35DAC1F3160141F42F
:1001E000000204B15242C5F1200602FA06F12A418A
:1001F0001044B3EBD05F23D0C4B1012DA0EBC350AA
:1002000009DCF0BC4FF0004202EAC352DBB200F559
:10021000000000F0ECB8400000F1807000EBC3502B
:10022000A0F1807040EAD170490009E0490841EA34
:10023000C071A0EBC35000F50000400800EBC350B4
:10024000F0BC00F0CBB86142012202EB4101001B7F
:10025000F6E7F0BC704781F00041AAE780F000406B
:10026000A7E780EA010210B502F00043400022D067
:100270004A001FD0010E01EB1261C0F35600C2F319
:10028000560240F4000042F40002A0FB02200004E9
:100290007F39140400D0401C50EA124001D44000C1
:1002A000491EC2B20C0604EBD010401C4008802A44
:1002B00002D003E0002010BD20F00100002900DA88
:1002C0000020184310BD30B480EA010202F000455E
:1002D00030F0004221F0004013D090B1C30DD40D96
:1002E000C2F31601C0F31600E41A41F4000140F411
:1002F00000027D34914201D3641C00E04900002CCF
:1003000002DA30BC002070474FF400000023914215
:1003100001D3891A034340084FEA4101F7D151B193
:10032000914202D14FF0004105E002D24FF00101AD
:1003300001E06FF0010103EBC450284430BC00F031
:100340004DB896230022114600F051B800F000424B
:1003500030F000400AD0C10D01F56071C0F3160005
:1003600042EA0151C208400711437047002001468C
:10037000704730B50B46014600202022012409E0D9
:1003800021FA02F59D4205D303FA02F5491B04FA4E
:1003900002F52844151EA2F10102F1DC30BD202A2D
:1003A00004DB203A00FA02F1002070479140C2F1CC
:1003B000200320FA03F3194390407047202A04DBFE
:1003C000203A21FA02F00021704721FA02F3D040CE
:1003D000C2F1200291400843194670470029A8BF86
:1003E0007047401C490008BF20F00100704710B45E
:1003F000B0FA80FC00FA0CF050EA010404BF10BC13
:10040000704749B1CCF1200421FA04F411FA0CF13F
:1004100018BF012121430843A3EB0C01CB1D4FEA78
:1004200000614FEA102042BF002010BC704700EB73
:10043000C35010440029A4BF10BC7047401C4900A1
:1004400008BF20F0010010BC70472DE9FE4F804628
:1004500081EA0300C00F0C46009021F0004123F018
:100460000045B8EB0200A94105D24046214690461E
:100470001C460B46024623F00040104347D0270D90
:10048000C7F30A00C3F30A510290401A01904028B2
:100490006BDAC3F3130040F4801B0098924620B13E
:1004A0000023D2EB030A63EB0B0B01985946C0F112
:1004B00040025046FFF773FF06460D465046594628
:1004C000019A00F08DF910EB08006141002487EAE1
:1004D000115284EAE7731A4340D0009A62B3019A3A
:1004E000012A4FEA075215DC001B61EB02014FF0B5
:1004F000004202EA0752CDE90042001C41F580119A
:1005000032462B4600F08DF903B0BDE8F08F40462F
:100510002146F9E7001B61EB0201001C41F5801345
:1005200000185B412018A2F5001747EB030140EAD1
:10053000D570B6196D4111E06D084FEA360645EAEF
:10054000C0754FEA0752001B61EB0201001C41F528
:10055000801149084FEA30000019514132462B46BC
:1005600003B0BDE8F04F00F04DB900980122400003
:100570000023D0EB020263EBE073009821464FEAC0
:10058000E074B8EB000061EB0401E9E783F000439D
:100590005BE781F0004158E72DE9FE4F81EA030453
:1005A00004F0004421F0004100944FF0000B23F0D0
:1005B000004350EA01045ED052EA03045BD0C3F367
:1005C0000A54C1F30A552C44A4F2F3340194A0FB5D
:1005D0000254C1F3130141F48011C3F3130343F434
:1005E000801301FB024400FB034E840A970A44EA8D
:1005F000815447EA8357A4FB076802958D0A05FBDF
:1006000007854FEA932C04FB0C542705029D4FEA03
:10061000065847EA1637B5EB08056EEB070C870E50
:10062000920E47EA811742EA8312A7FB0201B6EB5A
:100630000B0164EB00042B0D43EA0C335E1844EB12
:100640001C50DA465146E7FB0201C5F313044FEA9A
:100650000B3343EA14534FEA0432019C43EA060386
:10066000A4F10C040294009CCDE900B400F0D9F888
:1006700003B0BDE8F08F00200146F9E72DE9F04D09
:1006800081EA030404F0004B21F0004514464FF0CA
:10069000000A23F0004150EA050220D054EA01028A
:1006A0001DD0C5F30A570246C5F31303C1F3130067
:1006B000C1F30A5640F4801543F48013A7EB0608F3
:1006C000101BD64608F2FD3873EB050002D308F183
:1006D000010801E092185B41B8F1000F03DA002035
:1006E0000146BDE8F08D00204FF480110646844697
:1006F0000EE0171B73EB050705D3121B63EB050315
:1007000006434CEA010C49084FEA300092185B415D
:1007100050EA0107EDD152EA030012D082EA040048
:1007200083EA0501084305D0101BAB4106D2012224
:10073000002306E000224FF0004302E06FF00102C8
:1007400053101AEB06004CEB085110EB0A0041EB7A
:100750000B01BDE8F04D00F055B8C1F30A52C1F3EA
:10076000130140F2FF3341F480119A4202DA002073
:100770000146704740F233439A42A2F2334202DC10
:100780005242FFF71BBEFFF70ABE000030B5041E41
:1007900071F1000404DB4FF00044404264EB0101BE
:1007A000141E73F1000405DB1C464FF00043524257
:1007B00063EB0403994208BF904230BD064C074DDD
:1007C00006E0E06840F0010394E807009847103421
:1007D000AC42F6D3FFF792FCDC2A0008FC2A0008A2
:1007E000202A06DBCB17203A41FA02F043EAE073F5
:1007F00006E041FA02F3D040C2F1200291400843E2
:100800001946704710B5141E73F1000408DA401C35
:1008100041F1000192185B411A4301D120F001001F
:1008200010BD2DE9F04D92469B4611B1B1FA81F20F
:1008300002E0B0FA80F220329046FFF7B0FD0446A5
:100840000F4640EA0A0041EA0B0153465A46084364
:1008500013D0114653EA010019D0C8F140025046A6
:10086000FFF7ACFD05460E46504659464246FFF797
:1008700096FD084305D0012004E020463946BDE836
:10088000F08D0020054346EAE0762C4337430A9872
:100890006305E40AA0EB08000022FD0A44EA47547D
:1008A0000A3002D500200146E9E701051019694127
:1008B000DDE9084500196941BDE8F04DA2E7FEE712
:1008C00030B50346002208463124995C4840002197
:1008D000050602D584EA400000E04000491CC9B288
:1008E000C0B20829F4D3521CD2B2022AEDD330BDD3
:1008F0007047704770B5044600F0ECF80546601C80
:1009000002D004484068044400F0E4F8401BA042D0
:10091000FAD370BD080000202DE9FC4FDFF894A148
:10092000002301250AF1040B03244FF00F0C0BF1F7
:10093000040EB8E005FA03F6324071D04F68012F7B
:1009400005D0022F03D0112F01D0122F17D1D0F8CC
:1009500008905F0004FA07F829EA08090097D1F81F
:100960000C8008FA07F848EA0908C0F808804768C8
:10097000B7430E79C6F300169E403E434660C668F4
:100980004FEA430804FA08F7BE4301978F6807FA55
:1009900008F73743C7604E68022E01D0122E13D1DC
:1009A000DE0800EB86060096366A5F07FF0E0CFA3B
:1009B00007F926EA0906D1F8109009FA07F949EA79
:1009C0000609009EC6F820900768019EB7430E797D
:1009D00006F0030606FA08F63E4306604E68F60087
:1009E00060D5354E376847F001073760366823F029
:1009F000030706F001060096304E3E44B146B66845
:100A00009F074FEA17780CFA08F7BE432C4FB842FD
:100A100001D1002715E02B4FB84202D1012710E089
:100A200040E0294FB84201D102270AE0274FB842DF
:100A300001D1032705E0264FB84201D1042700E089
:100A4000052707FA08F73743C9F80870DAF8007085
:100A50005646D1F8048097435FEAC83800D517435B
:100A60003760DBF800605F46D1F8048096435FEAA8
:100A7000883800D516433E60DEF800607746D1F82E
:100A8000048096435FEAC82800D516433E60094FAC
:100A90000C373E68D1F8048096435FEA882800D579
:100AA00016433E605B1C0A6832FA03F67FF442AFDD
:100AB000BDE8FC8F000401402038024000000140E6
:100AC000000002400004024000080240000C024006
:100AD00000100240014880687047000008000020B4
:100AE00070B5040025D094F83D00002520B984F8A5
:100AF0003C50204600F03EFA242084F83D00206857
:100B0000016821F0010101602068016841F40041A1
:100B100001602068016821F40041016000F0BAFB27
:100B20004D4A6168914201D84C4900E04C498842E5
:100B300001D2012070BD4B492368B0FBF1F15E6822
:100B400026F03F060E435E606368934206D94FF479
:100B5000967359434FF47A73B1FBF3F12368491C40
:100B60001E6A26F03F06314319626168914210D82F
:100B70004900401EB0FBF1F2521CC2F30B02042AE2
:100B800001D2042022E0B0FBF1F0401CC0F30B00C6
:100B90001CE0A268F2B301EBC10303EB0116431E94
:100BA000B3FBF6F35B1C43F480431B0549D092B3BF
:100BB00001EBC10202EB0111401EB0FBF1F0401C41
:100BC000C0F30B0040F4804040F400402168CA6943
:100BD0004CF6FF739A431043C861D4E907100143F0
:100BE0002068026822F0C00211430160D4E90301C9
:100BF00001432068826848F2FF339A4311438160C1
:100C0000D4E9050108432168CA6822F0FF021043B5
:100C1000C86001E00EE016E02068016841F00101C3
:100C200001602564202084F83D00256384F83E504F
:100C3000002070BD01EB4106431EB3FBF6F35B1CC5
:100C4000B3E70120C2E701EB4101401EB0FBF1F028
:100C5000401CC0F30B00B7E7A086010080841E0093
:100C600000093D0040420F002DE9F84F1F46904615
:100C70008A460446DDF82890FFF72CFF054694F8D5
:100C80003D00202875D1192301226C49204600958A
:100C900000F044FF0028F5D194F83C00012868D00A
:100CA000012084F83C0020680168C90703D101686D
:100CB00041F0010101602068016821F400610160D8
:100CC000222084F83D00102084F83E00002626648F
:100CD000C4F824806785608D20855948E0622B46E2
:100CE0004A465146204600F02FFE002878D1208D3C
:100CF000544F68B1012814D002282068016816D02A
:100D000041F480610160206841698069009087E05A
:100D10002068416981690091016841F400710160B6
:100D20007EE02068016821F480610160F0E721F431
:100D3000806101602068016841F40061E2E70328F6
:100D400048D801280AD0022814D04B460022394640
:100D50002046009500F0E2FED8BB27E02A4649462F
:100D6000204600F05AFFA0BB20680069616A087045
:100D70004DE061E04B46002239462046009500F0E8
:100D8000CDFE30BB2068016841F40071016020682D
:100D90000069616A0870606A401C6062218D491EAA
:100DA0002185618D491E618521682EE020680168DA
:100DB00021F48061016020680069616A0870606ADE
:100DC000401C6062208D401E2085608D401E608525
:100DD000D0E705E02A464946204600F01EFF10B144
:100DE0000120BDE8F88F20680069616A0870606AB8
:100DF000401C6062218D491E2185618D491E6185DF
:100E000021684A69D24352070AD409690170606AAD
:100E1000401C6062208D401E2085608D401E6085D4
:100E2000208D00288BD1202084F83D0084F83E607E
:100E300084F83C600020D4E70220D2E702001000D2
:100E40000000FFFF040001002DE9F84F1F46904607
:100E50008A460446DDF82890FFF73CFE054694F8E4
:100E60003D0020287FD119230122404920460095CA
:100E700000F054FE002876D194F83C00012872D08E
:100E8000012084F83C0020680168C90703D101688B
:100E900041F0010101602068016821F400610160F6
:100EA000212084F83D00102084F83E0000262664AE
:100EB000C4F824806785608D20852D48E0622B462C
:100EC0004A465146204600F0B5FD90B92068416978
:100ED0008069009036E02A464946204600F0D0FE60
:100EE00050B1206C042804D12068016841F40071DD
:100EF00001600120BDE8F88F606A21680078086110
:100F0000606A401C6062618D491E6185218D491EA9
:100F100089B2218522685369DB435B070BD451B149
:100F200000781061606A401C6062608D401E6085C0
:100F3000208D401E20852A464946204600F0C8FDE7
:100F40000028CED1208D0028C5D154F83D0B016872
:100F500041F400710160202004F81E09E6776677ED
:100F60000020C7E7FFE70220C4E7000002001000EE
:100F70000000FFFF10B586B0044614216846FFF755
:100F80000DF913492068884220D11248016841F0C8
:100F9000020101600068694600F002000590C0206F
:100FA0000090122001900120029003200390042061
:100FB00004900948FFF7B0FC06480830016841F486
:100FC00000110160006800F40010059006B010BD2B
:100FD000005400401C38024000040240024881686E
:100FE00042681144816070470800002010B5002459
:100FF000032000F06BF8002000F008F808B101248D
:1010000001E000F025F8204610BD000070B50E4E3E
:1010100005460024706898B14FF47A71B1FBF0F086
:101020000A490968B1FBF0F000F09CFB40B9102DB3
:1010300006D200222946501E00F028F8356000E054
:101040000124204670BD000008000020140000208C
:101050000D4808B5016841F000410160016801F0E8
:1010600000410091011F0A6842F001020A6009680C
:1010700001F001010091016841F0805101600068B8
:1010800000F08050009008BD24380240F0B40E4BB0
:101090001B680C46C3F30223C3F10705042D00D9D6
:1010A0000425191D072901D2002300E0DB1E0126BB
:1010B00006FA05F1491E214099409E40761E1640D1
:1010C0003143F0BC01F016B80CED00E0064900F029
:1010D000070208684FF6FF03184040EA0220034A5F
:1010E00010430860704700000CED00E00000FA05B6
:1010F0002DE9F0470E46050079D0DFF88481D8F855
:10110000000000F00100B04214D2012E05D1D8F841
:10111000001041F00401C8F80010D8F8001021F0C8
:1011200001013143C8F80010D8F8000000F00100B8
:10113000B0425CD12878534C800705D52068A96857
:1011400020F0F000084320602878C0075CD04D49AB
:101150006868083902281AD003281BD009680128BA
:101160001BD08905002966DA216821F003010143BB
:101170002160FFF7AFFC6968074641F28830022919
:1011800014D0032920D0012981462AD038E00968EB
:101190008903E7E709688901E4E78907E2E700BF17
:1011A000FFF798FCC11B494501D926E0814620681C
:1011B000C0F381000228F3D126E000BFFFF78AFCCC
:1011C000C11B494501D918E081462068C0F3810060
:1011D0000328F3D118E000BFFFF77CFCC11B494591
:1011E0000BD82068C0F381000128F5D10CE022E083
:1011F000FFF770FCC11B494502D90320BDE8F08709
:10120000206810F00C0FF3D1D8F80010404601F020
:101210000101B14211D9012E03D1016841F004014D
:101220000160016821F0010131430160006800F0B4
:101230000100B04201D00120E0E72878400705D541
:101240002068E96820F4E0600843206028780007FF
:1012500006D52068296920F4605040EAC10020606A
:1012600000F038F82168084AC1F30311515CC84006
:101270000649086006480068BDE8F047FFF7C6BEAB
:10128000003C024008380240C12A00081400002037
:10129000080000200448054900680968044AC1F3B1
:1012A0000221515CC84070471400002008380240F9
:1012B000D12A00080448054900680968044AC1F3B6
:1012C000C221515CC8407047140000200838024019
:1012D000D12A000870B5154D2968154801F00C0297
:1012E000042A0CD0134C082A0AD00C2A0AD0281F32
:1012F0000068C0F342314FF40040491C884070BD83
:10130000204670BD0C4AC1F38343D35CC1F38152C4
:101310002968521CC90302D5A3FB040101E0A3FB09
:1013200000010023FEF702FF70BD000008380240F4
:101330000024F400001BB700B82A00082DE9F84F7C
:1013400004007DD0FC480168006801F00C0700F43F
:1013500080362078F94DC00741D0082F12D00C2FCD
:1013600002D1B6F5803F0DD06068012811D008B1D8
:10137000052818D0286820F480302860286820F4D8
:10138000802009E02868800329D560680028D8D02B
:1013900025E0286840F480302860606890B1FFF74D
:1013A00099FB80460AE0286840F480202860F0E736
:1013B000FFF790FBA0EB080064287BD82868800327
:1013C000F6D50CE0FFF786FB804605E0FFF782FBD1
:1013D000A0EB08006428F0D828688003F6D42078B1
:1013E000DFF85CB3DFF85C8380074FF001094FF052
:1013F000000A35D5042F0AD00C2F00D13EB1E06889
:10140000F8B1C8F80090FFF765FB06460BE02868C6
:1014100080070BD5E068012812D107E0FFF75AFBDF
:10142000801B0228C9D828688007F7D5DBF8001090
:10143000226921F4F85141EA0221CBF800100FE0B3
:1014400077E1C8F800A0FFF745FB064605E000BFBE
:10145000FFF740FB801B0228AFD828688007F7D42D
:101460002078C00674D53FB1A069E0B3C8F82090D9
:10147000FFF730FB06464AE02868800502D5A069E0
:10148000002884D0206ADBF800105E4601F4604139
:10149000884210D900F078FC0028BDD13068216A5C
:1014A00020F4604008433060217F306861F31F60A2
:1014B00030600FE096E0316821F460410143316013
:1014C000217F306861F31F603060206A00F05CFCAF
:1014D0000028A1D1216A4FF4004009EB5131884026
:1014E0009549096800E025E0974AC1F30311515C72
:1014F000C8409649086096480068FFF787FD0028B5
:101500006FD125E0FFF7E6FA801B02286AD8286829
:101510008005F7D5DBF80010226A21F46041114301
:10152000CBF80010227FDBF8001062F31F61CBF8CC
:1015300000100DE0C8F820A0FFF7CCFA064604E042
:10154000FFF7C8FA801B02284CD828688005F7D41A
:101550002078804E000722D57F48616981B1C0F8AC
:101560000090FFF7B7FA834606E000BFFFF7B2FA34
:10157000A0EB0B00022835D830688007F6D50EE0C6
:10158000C0F800A0FFF7A6FA834605E0FFF7A2FA2D
:10159000A0EB0B00022825D830688007F6D420780D
:1015A00040076DD56B484FF0000B10380068C00045
:1015B0000BD468481038016841F080510160006820
:1015C0004FF0010B00F08050009064480168C9059D
:1015D00014D4016841F480710160FFF77BFA009038
:1015E00008E08DE079E000BFFFF774FA0099401A37
:1015F000642872D859480068C005F5D5A06801284C
:101600000AD008B1052811D0306820F4807030600D
:10161000306820F4806002E0306840F48070306010
:10162000A068A8B1FFF756FA00900DE0306840F4CA
:1016300080603060F0E700BFFFF74CFA0099411A74
:1016400041F2883081425AD830688005F4D50EE0E6
:10165000FFF740FA009007E0FFF73CFA0099411AC3
:1016600041F2883081424AD830688005F4D4BBF119
:10167000000F05D037481038016821F08051016013
:10168000606A58B30C2F41D00228504605D0C8F8E4
:101690006000FFF71FFA044634E04746C8F86000D0
:1016A000FFF718FA064604E0FFF714FA801B022839
:1016B00025D828688001F7D4D4E90A1001431E48D0
:1016C000226B036823F47D031A4311430160C7F8BA
:1016D0006090FFF7FFF9044607E010E040E000BF2C
:1016E000FFF7F8F9001B022809D828688001F7D510
:1016F00036E000BFFFF7EEF9001B022802D90320F5
:10170000BDE8F88F28688001F4D429E00128F7D0DB
:1017100009480068A26A00F48031914209D1E26A66
:1017200000F47011914204D1216B00F44000884212
:1017300016D00120E4E700000838024000380240DB
:101740000438024000004742C12A0008140000206B
:1017500008000020343802408006474200700040F4
:101760000020CDE710B5401EB0F1807F01D30120ED
:1017700010BD4FF0E02460610F21601700F0BAFC4B
:101780000020A06107202061002010BD70B504007A
:1017900004D094F83900002510B106E0012070BD96
:1017A00084F83850204600F023F8242084F83900CB
:1017B0002068C16821F40051C160204600F0C8FBD8
:1017C0002068016921F4904101612068416921F09C
:1017D0002A0141612068C16841F40051C160E5639C
:1017E000202084F8390084F83A00002070BD000001
:1017F00010B586B0044614216846FEF7CFFC1449A4
:101800002068884221D11348016841F48041016079
:10181000006800F4804005900E48001F016841F008
:10182000010101600068694600F0010005904FF475
:10183000C0600090022001900020029003200390DD
:10184000072004900448FFF767F806B010BD0000B9
:101850000038014020380240000002402DE9F843E2
:10186000044690F839001F4616460D46202850D1F0
:10187000B5B1AEB194F8380001284AD0012084F8FF
:1018800038004FF00008C4F83C80212084F839006B
:10189000FFF720F9A6848146E68484F8388026E0A4
:1018A0000120BDE8F883E08C401EE084A0684B4630
:1018B000B0F5805F4FF000024FF0800120460097A6
:1018C00003D000F0D3FBE8B90DE000F0CFFBC8B9BE
:1018D00028882168C0F308004860206908B16D1CA1
:1018E00005E0AD1C03E0216815F8010B4860E08CB1
:1018F0000028D8D14B46002240212046009700F016
:10190000B5FB08B10320CCE7202084F83900002083
:10191000C7E70220C5E7FEE701684A69D2435205DE
:101920000FD46FF480624A61002140F8301F2022FA
:1019300042738173026942F0040202610173012063
:1019400070470020704700002DE9F84F0446C06A38
:101950001E4693460D4621680A6842F480620A607A
:10196000082807D0012805D010F5803F02D0206B51
:10197000112804D12068016841F4807101604FF0A2
:1019800001195B46002249462046009600F0C6F841
:101990004FF4007840B120680068C00501D5C4F854
:1019A00040800320BDE8F88F2069DFF884A0B0F5FF
:1019B000804F0FD00620216800EAD51747F0F000CD
:1019C000086133465A460AF10601204600F0DAF86B
:1019D00058BB03E0E8B240F001001CE02168E8B227
:1019E000086133465A465146204600F0CBF8E0B92C
:1019F0002068416981690091016841F4807101604A
:101A00005B46002249462046009600F087F80028F1
:101A1000C1D147F0F1002168086133465A4651466A
:101A2000204600F0AFF80028BCD00120BAE7000043
:101A300002000100F8B50446C06A1E460D4617466E
:101A4000082807D0012805D010F5803F02D0206B70
:101A5000122804D12068016841F4807101601346A6
:101A600000224FF001112046009600F057F840B1D7
:101A700020680068C00502D54FF400702064032080
:101A8000F8BD2069B0F5804F0ED00620216800EA2D
:101A9000D51040F0F000086133463A460B49204625
:101AA00000F070F878B902E005F0FE0000E0E8B25E
:101AB00021680861054933463A46891F204600F0EF
:101AC00061F80028DCD00120F8BD0000080001000A
:101AD00070B516460D4604460DE02046FFF71CFF84
:101AE00008B1012070BD681C05D0FEF7F3FF801B14
:101AF000A84207D835B120684069C0434007ECD4FC
:101B0000002070BD002044F8300F20216173A073C5
:101B1000216941F0200121612073E2E72DE9F047BE
:101B20001E4690460D460446C1F30747DDF8209057
:101B300008E0701C06D0FEF7CDFFA0EB0900B04214
:101B40000FD876B12068012F18D0806925EA0000EF
:101B50000004000C14D000214145EAD00020BDE86B
:101B6000F087002044F8300F20216173A0732169B1
:101B700041F02001216120730120F0E74069E5E791
:101B80000121E9E72DE9F0479A4691460E460446C1
:101B900000254FF02008C1F3074725E02068406981
:101BA000C043400514D42068016841F4007101600D
:101BB00021686FF480604861256384F83D8084F873
:101BC0003E50206C40F00400206484F83C501FE03C
:101BD000B9F1FF3F08D0FEF77DFFA0EB0A014945B0
:101BE0000CD8B9F1000F09D02068012F13D08069FB
:101BF00026EA00000004000C0BD0CFE744F8305F69
:101C000084F80D80A573206940F0200020612573C1
:101C10000120BDE8F0874069EAE72DE9F0410025A1
:101C200090460E460446202717E04069C043C00690
:101C30000CD454F8301B6FF01000486144F8105970
:101C40006777A577206A2062257717E0FEF742FFC5
:101C5000A0EB0800B04208D83EB120684169C943F2
:101C60004906E2D40020BDE8F08144F8305F677394
:101C7000A573206940F02000206125730120F2E760
:101C800070B516460D4604460DE02046FFF744FEAB
:101C900008B1012070BD681C05D0FEF71BFF801B3A
:101CA000A84207D835B120684069C0430006ECD48B
:101CB000002070BD002044F8300F20216173A07314
:101CC000216941F0200121612073E2E70D4808B548
:101CD000016841F020010160016801F020010091DC
:101CE000016841F001010160016801F0010100910A
:101CF000016841F002010160006800F002000090FC
:101D000008BD00001C3802400D4810B50B490160A9
:101D10000C49416000214FF480428160C0E9031208
:101D200041618161C1610162FEF7DAFE002803D0E2
:101D3000BDE81040FEF7DDBD10BD000000540040BE
:101D40001C000020A08601000C4810B50A49016063
:101D50004FF4E1314160002181600C22C160C0E993
:101D600004128161C161FFF711FD002803D0BDE8B5
:101D70001040FEF7BEBD10BD0038014070000020CD
:101D8000FEE770477047000038B51C49002309681A
:101D90001B4A11F0F00F23D118491C310C68E500E3
:101DA000184C03D5216801F4C0540EE00D6845F0CD
:101DB00080550D600D6805F08055009524680D680C
:101DC00004F4C05425F080550D60B4F5C05F07D110
:101DD000B0F5404F04D11068012340F004001060BA
:101DE000106820F0010018431060106800F0010036
:101DF000984201D0012038BD002038BD083802408B
:101E0000003C0240007000402DE9F0410E461546AE
:101E10000446FF21FEF754FDA178884206D1FF2138
:101E2000E01CFEF74DFD6179884202D00120BDE83B
:101E3000F081208840BAFEF784FA0C4F3946FEF74D
:101E400042FA0B49FEF70DFA0A49FEF7B2F9306083
:101E5000B4F8030040BAFEF774FA3946FEF733FAD5
:101E60000549FEF7FEF928600020E0E700FF7F4704
:101E700000002F43000034C20000C8421CB5010A14
:101E80008DF804108DF805004FF6FF7000900223C6
:101E900001AA88210148FEF7D7FF1CBD1C000020C5
:101EA00038B5054642F60640FFF7E8FF0446322003
:101EB000FEF720FD0CB1204638BD4FF6FF700090B4
:101EC00006232A4689210248FEF7CEFE38BD0000CF
:101ED0001C0000207047FFF781B8000000B593B0E8
:101EE00034216846FEF75AF914210DA8FEF756F979
:101EF0001248016821F4C05141F4006101600120E1
:101F00000090019002200990C0030A904FF44020F5
:101F10000B904FF400000C906846FFF70FFA0F206B
:101F20000D9003200E9000200F9010901190012131
:101F30000DA8FFF7DDF813B000BD000000700040F1
:101F400002494FF0006008607047000008ED00E0B3
:101F50002DE9F041044600680169E26821F440512E
:101F6000114301612169A068E26908436169114375
:101F700022680843D16849F20C6399430143D16058
:101F800020684169A26921F44071114341613649D9
:101F90002068884202D1FFF78DF901E0FFF77AF956
:101FA0000246E36964203221B3F5004F02EBC2031D
:101FB00003EB021362682BD09200B3FBF2F5B5FB82
:101FC000F0F5B3FBF2F66FF018077D4306EB8505DD
:101FD000B3FBF2F601EB0515B5FBF0F5B6FBF0F639
:101FE00005F0F00505EB0615B3FBF2F6B3FBF2F2D4
:101FF000B2FBF0F27A4306EB820201EB0211B1FB75
:10200000F0F000F00F00216828448860BDE8F081FE
:102010005200B3FBF2F6B6FBF0F6B3FBF2F7B3FBFC
:10202000F2F56FF0180C06FB0CF607EB860601EBD9
:10203000C606B5FBF0F5B6FBF0F62D0106F0F80686
:1020400005EB4605B3FBF2F6B3FBF2F2B2FBF0F29E
:1020500002FB0CF206EB820201EBC201B1FBF0F0D5
:1020600000F00700CFE70000003801402DE9F04103
:10207000984617460E460446069D1DE0681C1BD078
:102080002DB1FEF727FDA0EB0800A84214D9206867
:10209000C16821F4D071C1602068416921F001015B
:1020A0004161202084F8390084F83A00002084F847
:1020B00038000320BDE8F0812068006836EA00009F
:1020C00004D00020B842D9D00020F3E70120F9E77E
:1020D000FEE700000FB4054B10B503A9044A0298AF
:1020E00000F0EAF810BC5DF814FB0000E9290008D4
:1020F000180000200907090E002804DB00F1E02089
:1021000080F80014704700F00F0000F1E02080F824
:10211000141D704702E008C8121F08C1002AFAD136
:1021200070477047002001E001C1121F002AFBD157
:10213000704700002DE9FF5F82B00021DDE9043027
:10214000020DDDF840B0034318D044F61050A2F25F
:10215000FF3242431514119801281FD0A5EB0B0044
:10216000401C5FEA000A4FF000064E4FDFF838913E
:10217000B046504615D5CAF1000413E01198012469
:102180004AA3012801D16FEA0B010298119AC0E914
:102190000031C0E9024206B0BDE8F09FCBF100007B
:1021A000DFE704460021404A491842EB0450CDE9DC
:1021B000001012E0E00707D032463B464046494651
:1021C000FEF7EAF98046894632463B4610461946F4
:1021D000FEF7E2F906460F466410002CEAD1DDE96D
:1021E0000401DDE90023BAF1000F06DAFEF7D4F9A5
:1021F00042464B46FEF7D0F905E0FEF73FFA42466D
:102200004B46FEF73BFA04460E460022284BFEF7EB
:10221000BDFA03D84FF0FF30014607E00022254BFE
:1022200020463146FEF711F9FEF797FA102409E02F
:10223000002C0ADB0A220023FDF778FF039B3032D3
:102240001A55641E50EA0102F2D1641C039AC4F1CB
:1022500011031444119A012A03D0012208430DD11D
:102260000AE0084304D000204FF0110B119072E7F0
:10227000A3EB0B056D1E0DE05B4504DD4FF0000286
:1022800005F1010504E003DA4FF00002A5F10105B4
:10229000002AECD002981199C0E90231C0E900454A
:1022A00079E70000000014400000F03F300000001B
:1022B0000000F0430000E03F2DE9FF4F95B09B4642
:1022C0008946064600250FE2252877D100242746B7
:1022D000F84A0121059400E0044316F8013F203B31
:1022E00001FA03F01042F7D130782A2811D06FF0AC
:1022F0002F033078A0F13002092A16D8059A44F04D
:10230000020402EB820203EB42021044761C0590A9
:10231000EFE759F8042B0592002A03DA504244F4FF
:102320000054059044F00204761C30782E2816D113
:1023300016F8010F44F004042A280DD06FF02F0284
:102340003078A0F13003092B09D807EB870302EBA3
:102350004303C718761CF3E759F8047B761C3078E2
:102360006C280FD006DC4C2817D068280DD06A28BE
:1023700014D104E0742810D07A280FD10DE044F471
:1023800000140AE044F4801401E044F4401472782C
:10239000824202D104F58014761C761C30786628BF
:1023A0000BD013DC582877D009DC002875D04528DD
:1023B000F6D04628F4D047281AD19DE118E06328CA
:1023C00035D0642879D0652812D195E1702873D072
:1023D00008DC6728F1D069286FD06E280DD06F28EF
:1023E00006D1B5E073282CD0752875D0782874D024
:1023F0005A46179990476D1C75E1C4F302500228A4
:1024000009D003280DD0D9F8001004280DD00D6094
:1024100009F1040967E1D9F80010EA17C1E900528F
:10242000F6E7D9F800100D80F2E70D70F0E719F823
:10243000041B8DF8001000208DF80100EA460120F1
:1024400003E059F804AB4FF0FF3061074FF0000193
:1024500002D40DE008F101018846B9420FDA804547
:10246000F8DB1AF808100029F4D108E008F101019E
:1024700088468142FADB1AF808100029F6D105983F
:102480005B46A0EB080721463846179A00F094FAFD
:10249000284400EB080507E04DE029E10DE01AF8BB
:1024A000010B5A4617999047B8F10108F7D25B46DD
:1024B00021463846179A13E142E00A220092C4F3FB
:1024C00002524FF0000A022A08D059F804CB032A1E
:1024D0004FEAEC710AD00DE029E02AE009F107018A
:1024E00021F00702F2E802C1914609E00FFA8CFCE4
:1024F0004FEAEC71042A03D14FFA8CFC4FEAEC71DD
:10250000002907DA0A460021DCF1000C61EB020128
:102510002D2202E0220504D52B228DF80420012271
:1025200003E0E20701D02022F7E7904659E00A21B4
:1025300002E010220DE010214FF0000A00910BE0A4
:1025400010224FF0000A44F004040827009203E030
:1025500008224FF0000A0092C4F30252022A05D06A
:1025600059F804CB0021032A08D009E009F107013A
:1025700021F00702F2E802C1914605E01FFA8CFC47
:10258000042A01D10CF0FF0C4FF00008220728D5D7
:10259000702806D0009B83F0100353EA0A0305D08D
:1025A0000EE040228DF80420012208E05CEA0102DE
:1025B00006D030228DF804208DF8050002229046C6
:1025C000009B83F0080353EA0A030AD15CEA010284
:1025D00001D1620705D530228DF804204FF00108A3
:1025E0007F1E582804D034A003900EA802900DE05E
:1025F00036A0F9E753466046009AFDF797FD8446FA
:102600000398825C0298401E029002705CEA01000E
:10261000F0D1029806A9081A00F1200A600702D535
:1026200024F4803400E00127574502DDA7EB0A00BF
:1026300000E0002000EB0A01009005984144401A98
:102640000590E00306D45B462146179A059800F0F2
:10265000B3F90544002706E001A85A46C05D179962
:1026600090476D1C7F1C4745F6DBE0030CD55B46AD
:102670002146179A059800F09FF9054404E03020A0
:102680005A46179990476D1C0099481E00900029E2
:10269000F5DC08E0029802995A460078491C02913C
:1026A000179990476D1CBAF10001AAF1010AF1DCFB
:1026B00065E1000009280100303132333435363706
:1026C000383961626364656600000000303132337E
:1026D000343536373839414243444546000000001E
:1026E00000F058F90544761C307800287FF4ECADF2
:1026F00019B02846BDE8F08F620700D4062709F11B
:10270000070222F0070CFCE80223E14603F0004830
:102710005FEA080C02D00FF2702C0DE05FEA045C57
:1027200002D50FF2682C07E05FEAC47C02D00FF2FA
:10273000602C01E0AFF2700C4FF0FF3823F0004343
:10274000CDF850C065280CD006DC452809D04628B5
:102750001DD047283DD13DE0662818D067287ED19E
:1027600038E00021112F01DB112000E0781CCDE9B9
:10277000000106A90EA8FFF7DDFCDDE90F010E9AA6
:1027800003910021009207F1010A04914DE04FF0FE
:1027900000400097CDE9011006A90EA8FFF7CAFC7A
:1027A000DDE90F0203920E9B11990022DDF80CA0C7
:1027B0000093049211B9791C00EB010AB7EB0A00EF
:1027C00004D4C0F1FF3007F1010A0490AAEB07001E
:1027D000019044E0012F00DA01270021112F01DDD3
:1027E000112000E03846CDE9000106A90EA8FFF748
:1027F000A1FCDDE90F010E9A0391002104910092E2
:10280000BA4621070CD40399514500DA8A46BAF139
:10281000010F05DD009AAAF10101515C302908D0B1
:10282000B84202DA10F1040F06DA0121CDE90110F5
:1028300015E0AAF10101E9E7002805DC049901444B
:102840000491AAEB000102E0411C514500DD8A46DB
:102850000499401A401C01904FF00040029020075C
:1028600004D40198504501DBCDF8048000208DF898
:102870004F0002980DF14F07B0F1004F25D02B20EB
:102880000E9002984FF0020800280CDA40420290A5
:102890002D200E9007E00A210298FDF76AFD3031E5
:1028A000029007F8011DB8F10001A8F10108F2DC5F
:1028B00002980028EFD1791E0E980870307800F049
:1028C000200040F0450007F8020D12A8C01B00F1DF
:1028D00007081498007800B1012000EB0A01019864
:1028E00001EBE07105984144401A401E0590E00359
:1028F00006D45B462146179A059800F05DF805441A
:102900001498007818B15A46179990476D1CE00347
:1029100024D55B462146179A059800F04DF80544EA
:102920001CE00498002807DBDDE90301884203DD91
:102930000098405C179901E0179930205A4690475B
:10294000049805F10105401C04900198401E019077
:1029500004D12E205A46179990476D1CBAF10001F8
:10296000AAF1010ADDDC05E017F8010B5A461799B8
:1029700090476D1CB8F10001A8F10108F4DC5B463A
:102980002146179A0598ABE62D0000002B000000A9
:10299000200000002DE9F041044600251E461746A0
:1029A000880404D405E039462020B0476D1C641E1D
:1029B000F9D52846BDE8F0812DE9F041044600250F
:1029C0001E469046C80301D5302700E02027880422
:1029D00004D505E041463846B0476D1C641EF9D564
:1029E0002846BDE8F081000013B54FF6FF730122C1
:1029F00069460248FEF732FF00981CBD70000020B7
:102A00001FB5002402940394FEF7F0FA17480460FF
:102A10008480FFF763FAFFF759F9FFF775F9FFF7BD
:102A200093F94FF47A751148FFF73AFA08B110A0FC
:102A300006E003AA02A90D48FFF7E6F918B112A0B3
:102A4000FFF748FBEFE70398FDF780FC04460E46CE
:102A50000298FDF77BFCCDE9004602460B460DA02F
:102A6000FFF738FB2846FDF745FFDCE700000020B4
:102A700053485433305F56616C4765742045727219
:102A80006F720D0A00000000435243204572726FBE
:102A9000720D0A0054656D70657261747572653AE5
:102AA000252E3266432C48756D69646974793A2520
:102AB0002E326625250D0A00030406080C10182086
:102AC00030000000000000000001020304060708B7
:102AD000090000000001020304000000FC2A0008B5
:102AE000000000201C00000014210008182B000822
:102AF0001C000020940400002421000800000000B5
:102B000000000000100000000100000000000000B4
:082B100068FF1F000000000037
:04000005080000F5FA
:00000001FF
