:020000040800F2
:100000005004002009010008AB140008C1130008C7
:10001000A9140008B90600085F17000800000000D6
:100020000000000000000000000000003115000882
:10003000BB06000800000000AD14000833150008DE
:100040002301000823010008230100082301000800
:1000500023010008230100082301000823010008F0
:1000600023010008230100082301000823010008E0
:1000700023010008230100082301000823010008D0
:1000800023010008230100082301000823010008C0
:1000900023010008230100082301000823010008B0
:1000A00000000000230100082301000823010008CC
:1000B0002301000823010008230100082301000890
:1000C0002301000823010008230100082301000880
:1000D0002301000823010008230100082301000870
:1000E0002301000823010008230100082301000860
:1000F00023010008DFF80CD000F0CCFA00480047DC
:10010000A117000850040020064880470648004711
:10011000FEE7FEE7FEE7FEE7FEE7FEE7FEE7FEE7B7
:10012000FEE7FEE79D150008F50000082DE9F05FE9
:100130000546002092469B46884606468146402456
:100140001BE0284641464746224600F024FA534623
:100150005A46C01A914110D311461846224600F063
:100160000BFA2D1A67EB01084F46224601200021A9
:1001700000F002FA17EB00094E41201EA4F1010421
:10018000DFDC484631462A464346BDE8F09FD2B2FE
:1001900001E000F8012B491EFBD270470022F6E770
:1001A00010B513460A4604461946FFF7F0FF2046ED
:1001B00010BD2DE9FE4F804681EA0300C00F0C46BA
:1001C000009021F0004123F00045B8EB0200A94166
:1001D00005D24046214690461C460B46024623F077
:1001E0000040104347D0270DC7F30A00C3F30A515C
:1001F0000290401A019040286BDAC3F3130040F4D8
:10020000801B0098924620B10023D2EB030A63EBD7
:100210000B0B01985946C0F14002504600F0ACF972
:1002200006460D4650465946019A00F0C4F910EBB7
:1002300008006141002487EA115284EAE7731A43F7
:1002400040D0009A62B3019A012A4FEA075215DCA6
:10025000001B61EB02014FF0004202EA0752CDE9B8
:100260000042001C41F5801132462B4600F0C4F9D3
:1002700003B0BDE8F08F40462146F9E7001B61EB73
:100280000201001C41F5801300185B412018A2F503
:10029000001747EB030140EAD570B6196D4111E034
:1002A0006D084FEA360645EAC0754FEA0752001B53
:1002B00061EB0201001C41F5801149084FEA300052
:1002C0000019514132462B4603B0BDE8F04F00F013
:1002D00084B90098012240000023D0EB020263EBB6
:1002E000E073009821464FEAE074B8EB000061EB40
:1002F0000401E9E783F000435BE781F0004158E740
:100300002DE9FE4F81EA030404F0004421F000418E
:1003100000944FF0000B23F0004350EA01045ED03C
:1003200052EA03045BD0C3F30A54C1F30A552C44C8
:10033000A4F2F3340194A0FB0254C1F3130141F47D
:100340008011C3F3130343F4801301FB024400FB49
:10035000034E840A970A44EA815447EA8357A4FB70
:10036000076802958D0A05FB07854FEA932C04FB6D
:100370000C542705029D4FEA065847EA1637B5EB9D
:1003800008056EEB070C870E920E47EA811742EACA
:100390008312A7FB0201B6EB0B0164EB00042B0DEB
:1003A00043EA0C335E1844EB1C50DA465146E7FB37
:1003B0000201C5F313044FEA0B3343EA14534FEA27
:1003C0000432019C43EA0603A4F10C040294009C4D
:1003D000CDE900B400F010F903B0BDE8F08F0020C3
:1003E0000146F9E72DE9F04D81EA030404F0004BE2
:1003F00021F0004514464FF0000A23F0004150EA76
:10040000050220D054EA01021DD0C5F30A57024666
:10041000C5F31303C1F31300C1F30A5640F480156A
:1004200043F48013A7EB0608101BD64608F2FD38EC
:1004300073EB050002D308F1010801E092185B415B
:10044000B8F1000F03DA00200146BDE8F08D00206E
:100450004FF48011064684460EE0171B73EB050728
:1004600005D3121B63EB050306434CEA010C490854
:100470004FEA300092185B4150EA0107EDD152EA91
:10048000030012D082EA040083EA0501084305D084
:10049000101BAB4106D20122002306E000224FF0E0
:1004A000004302E06FF0010253101AEB06004CEB20
:1004B000085110EB0A0041EB0B01BDE8F04D00F0D4
:1004C0008CB80EB5C10F80EAE0700844CA0700215D
:1004D00040F233438DE80E000A460B4600F08CF8DC
:1004E00003B000BDC1F30A5210B5C1F3130140F2CD
:1004F000FF3341F480119A4201DA002010BD40F22E
:1005000033439A42A2F2334203DC524200F043F8F2
:1005100010BD904010BD000030B5041E71F1000404
:1005200004DB4FF00044404264EB0101141E73F100
:10053000000405DB1C464FF00043524263EB04030A
:100540008B4208BF824230BD30B5041E71F10004F9
:1005500004DB4FF00044404264EB0101141E73F1D0
:10056000000405DB1C464FF00043524263EB0403DA
:10057000994208BF904230BD202A04DB203A00FA9D
:1005800002F1002070479140C2F1200320FA03F3EA
:10059000194390407047202A04DB203A21FA02F0E8
:1005A0000021704721FA02F3D040C2F120029140AD
:1005B000084319467047202A06DBCB17203A41FA38
:1005C00002F043EAE07306E041FA02F3D040C2F1E0
:1005D0002002914008431946704710B5141E73F16C
:1005E000000408DA401C41F1000192185B411A43F3
:1005F00001D120F0010010BD2DE9F04D92469B463F
:1006000011B1B1FA81F202E0B0FA80F220329046E4
:10061000FFF7B2FF04460F4640EA0A0041EA0B0129
:1006200053465A46084313D0114653EA010019D0E5
:10063000C8F140025046FFF7AEFF05460E46504651
:1006400059464246FFF798FF084305D0012004E0D1
:1006500020463946BDE8F08D0020054346EAE076A5
:100660002C4337430A986305E40AA0EB08000022F4
:10067000FD0A44EA47540A3002D500200146E9E762
:10068000010510196941DDE9084500196941BDE816
:10069000F04DA2E7064C074D06E0E06840F001038C
:1006A00094E8070098471034AC42F6D3FFF726FDD4
:1006B000CC1B0008EC1B0008FEE7704770470000E9
:1006C00070B5044600F0ECF80546601C02D0044802
:1006D0004068044400F0E4F8401BA042FAD370BD27
:1006E000000000202DE9FC4FDFF894A10023012534
:1006F0000AF1040B03244FF00F0C0BF1040EB8E0C9
:1007000005FA03F6324071D04F68012F05D0022F51
:1007100003D0112F01D0122F17D1D0F808905F000D
:1007200004FA07F829EA08090097D1F80C8008FABA
:1007300007F848EA0908C0F808804768B7430E7907
:10074000C6F300169E403E434660C6684FEA430823
:1007500004FA08F7BE4301978F6807FA08F7374392
:10076000C7604E68022E01D0122E13D1DE0800EBB6
:1007700086060096366A5F07FF0E0CFA07F926EA2E
:100780000906D1F8109009FA07F949EA0609009E0E
:10079000C6F820900768019EB7430E7906F003065D
:1007A00006FA08F63E4306604E68F60060D5354E00
:1007B000376847F001073760366823F0030706F013
:1007C00001060096304E3E44B146B6689F074FEA98
:1007D00017780CFA08F7BE432C4FB84201D1002716
:1007E00015E02B4FB84202D1012710E040E0294F1D
:1007F000B84201D102270AE0274FB84201D10327AE
:1008000005E0264FB84201D1042700E0052707FA8A
:1008100008F73743C9F80870DAF800705646D1F87F
:10082000048097435FEAC83800D517433760DBF888
:1008300000605F46D1F8048096435FEA883800D5AF
:1008400016433E60DEF800607746D1F80480964398
:100850005FEAC82800D516433E60094F0C373E6852
:10086000D1F8048096435FEA882800D516433E609D
:100870005B1C0A6832FA03F67FF442AFBDE8FC8FD6
:100880000004014020380240000001400000024006
:100890000004024000080240000C02400010024028
:1008A000014880687047000000000020024881680D
:1008B00042681144816070470000002010B5002498
:1008C000032000F06BF8002000F008F808B10124C4
:1008D00001E000F025F8204610BD000070B50E4E76
:1008E00005460024706898B14FF47A71B1FBF0F0BE
:1008F0000A490968B1FBF0F000F07CFB40B9102D0B
:1009000006D200222946501E00F028F8356000E08B
:100910000124204670BD0000000000200C000020D3
:100920000D4808B5016841F000410160016801F01F
:1009300000410091011F0A6842F001020A60096843
:1009400001F001010091016841F0805101600068EF
:1009500000F08050009008BD24380240F0B40E4BE7
:100960001B680C46C3F30223C3F10705042D00D90D
:100970000425191D072901D2002300E0DB1E0126F2
:1009800006FA05F1491E214099409E40761E164008
:100990003143F0BC00F0E4BE0CED00E0064900F08D
:1009A000070208684FF6FF03184040EA0220034A96
:1009B00010430860704700000CED00E00000FA05ED
:1009C0002DE9F0470E46050079D0DFF88481D8F88C
:1009D000000000F00100B04214D2012E05D1D8F879
:1009E000001041F00401C8F80010D8F8001021F000
:1009F00001013143C8F80010D8F8000000F00100F0
:100A0000B0425CD12878534C800705D52068A9688E
:100A100020F0F000084320602878C0075CD04D49E2
:100A20006868083902281AD003281BD009680128F1
:100A30001BD08905002966DA216821F003010143F2
:100A40002160FFF72DFF6968074641F288300229CF
:100A500014D0032920D0012981462AD038E0096822
:100A60008903E7E709688901E4E78907E2E700BF4E
:100A7000FFF716FFC11B494501D926E081462068D2
:100A8000C0F381000228F3D126E000BFFFF708FF82
:100A9000C11B494501D918E081462068C0F3810097
:100AA0000328F3D118E000BFFFF7FAFEC11B494548
:100AB0000BD82068C0F381000128F5D10CE022E0BA
:100AC000FFF7EEFEC11B494502D90320BDE8F087C0
:100AD000206810F00C0FF3D1D8F80010404601F058
:100AE0000101B14211D9012E03D1016841F0040185
:100AF0000160016821F0010131430160006800F0EC
:100B00000100B04201D00120E0E72878400705D578
:100B10002068E96820F4E060084320602878000736
:100B200006D52068296920F4605040EAC1002060A1
:100B300000F018F82168084AC1F30311515CC8405D
:100B40000649086006480068BDE8F047FFF7C6BEE2
:100B5000003C024008380240B91B00080C0000208D
:100B60000000002070B5154D2968154801F00C02F1
:100B7000042A0CD0134C082A0AD00C2A0AD0281FA9
:100B80000068C0F342314FF40040491C884070BDFA
:100B9000204670BD0C4AC1F38343D35CC1F381523C
:100BA0002968521CC90302D5A3FB040101E0A3FB81
:100BB00000010023FFF7BAFA70BD000008380240B8
:100BC0000024F400001BB700B01B00082DE9F84F0B
:100BD00004007DD0FC480168006801F00C0700F4B7
:100BE00080362078F94DC00741D0082F12D00C2F45
:100BF00002D1B6F5803F0DD06068012811D008B150
:100C0000052818D0286820F480302860286820F44F
:100C1000802009E02868800329D560680028D8D0A2
:100C200025E0286840F480302860606890B1FFF7C4
:100C300037FE80460AE0286840F480202860F0E70C
:100C4000FFF72EFEA0EB080064287BD828688003FD
:100C5000F6D50CE0FFF724FE804605E0FFF720FE06
:100C6000A0EB08006428F0D828688003F6D4207828
:100C7000DFF85CB3DFF85C8380074FF001094FF0C9
:100C8000000A35D5042F0AD00C2F00D13EB1E06800
:100C9000F8B1C8F80090FFF703FE06460BE028689D
:100CA00080070BD5E068012812D107E0FFF7F8FDB7
:100CB000801B0228C9D828688007F7D5DBF8001008
:100CC000226921F4F85141EA0221CBF800100FE02B
:100CD00077E1C8F800A0FFF7E3FD064605E000BF96
:100CE000FFF7DEFD801B0228AFD828688007F7D405
:100CF0002078C00674D53FB1A069E0B3C8F8209051
:100D0000FFF7CEFD06464AE02868800502D5A069B7
:100D1000002884D0206ADBF800105E4601F46041B0
:100D2000884210D900F0C4FB0028BDD13068216A88
:100D300020F4604008433060217F306861F31F6019
:100D400030600FE096E0316821F46041014331608A
:100D5000217F306861F31F603060206A00F0A8FBDB
:100D60000028A1D1216A4FF4004009EB513188409D
:100D70009549096800E025E0974AC1F30311515CE9
:100D8000C8409649086096480068FFF7A7FD00280C
:100D90006FD125E0FFF784FD801B02286AD8286800
:100DA0008005F7D5DBF80010226A21F46041114379
:100DB000CBF80010227FDBF8001062F31F61CBF844
:100DC00000100DE0C8F820A0FFF76AFD064604E019
:100DD000FFF766FD801B02284CD828688005F7D4F1
:100DE0002078804E000722D57F48616981B1C0F824
:100DF0000090FFF755FD834606E000BFFFF750FD6A
:100E0000A0EB0B00022835D830688007F6D50EE03D
:100E1000C0F800A0FFF744FD834605E0FFF740FD62
:100E2000A0EB0B00022825D830688007F6D4207884
:100E300040076DD56B484FF0000B10380068C000BC
:100E40000BD468481038016841F080510160006897
:100E50004FF0010B00F08050009064480168C90514
:100E600014D4016841F480710160FFF719FD00900E
:100E700008E08DE079E000BFFFF712FD0099401A0D
:100E8000642872D859480068C005F5D5A0680128C3
:100E90000AD008B1052811D0306820F48070306085
:100EA000306820F4806002E0306840F48070306088
:100EB000A068A8B1FFF7F4FC00900DE0306840F4A2
:100EC00080603060F0E700BFFFF7EAFC0099411A4C
:100ED00041F2883081425AD830688005F4D50EE05E
:100EE000FFF7DEFC009007E0FFF7DAFC0099411AFB
:100EF00041F2883081424AD830688005F4D4BBF191
:100F0000000F05D037481038016821F0805101608A
:100F1000606A58B30C2F41D00228504605D0C8F85B
:100F20006000FFF7BDFC044634E04746C8F86000A7
:100F3000FFF7B6FC064604E0FFF7B2FC801B022870
:100F400025D828688001F7D4D4E90A1001431E4847
:100F5000226B036823F47D031A4311430160C7F831
:100F60006090FFF79DFC044607E010E040E000BF02
:100F7000FFF796FC001B022809D828688001F7D5E6
:100F800036E000BFFFF78CFC001B022802D90320CB
:100F9000BDE8F88F28688001F4D429E00128F7D053
:100FA00009480068A26A00F48031914209D1E26ADE
:100FB00000F47011914204D1216B00F4400088428A
:100FC00016D00120E4E70000083802400038024053
:100FD0000438024000004742B91B00080C00002002
:100FE0000000002034380240800647420070004074
:100FF0000020CDE710B5401EB0F1807F01D3012065
:1010000010BD4FF0E02460610F21601700F0A8FBD5
:101010000020A06107202061002010BD70B590F86D
:101020003820012A26D0012480F83840022280F896
:10103000392003685A689D6822F070060A683243B6
:101040005A600268B2F1804F08D00B4B9A4205D02B
:101050000A4B9A4202D00A4B9A4204D1496825F0C1
:1010600080031943916080F83940002180F83810DE
:10107000084670BD022070BD00040040000800401A
:101080000008014010B5040003D094F8390010B1F5
:1010900007E0012010BD002084F83800204600F051
:1010A00017F8022084F83900211D206800F07EFA2C
:1010B000012084F83E0084F83A0084F83B0084F86C
:1010C0003C0084F83D0084F83900002010BD000089
:1010D00008B50068B0F1804F08D10548016841F0BB
:1010E00001010160006800F00100009008BD0000EF
:1010F0002438024070B5044690F83800012817D013
:10110000012584F83850022084F83900206882686C
:1011100022F0770222F47F4282600868502830D0A3
:101120000DDC20284DD005DC98B310283BD148E0D9
:10113000022070BD302844D0402834D139E06028E6
:1011400028D0702806D0B0F5805F2CD0B0F5005FB5
:1011500029D10AE0CB68D1E90121206800F06DFABD
:101160002068816841F0770109E0CB68D1E901216D
:10117000206800F062FA2068816841F48041816053
:1011800011E0CA684968206800F0C6FA502120685A
:1011900007E016E0CA684968206800F0CEFA6021CE
:1011A000206800F054FA84F83950002084F83800A0
:1011B00070BDCA684968206800F0AEFA4021206816
:1011C000EFE7226801461046EBE7000010B586B055
:1011D000044614216846FEF7E1FF2068B0F1804F15
:1011E00015D10C48016841F00101016000686946B1
:1011F00000F00100059007200090022001900020DF
:1012000002900390012004900348FFF76BFA06B0A8
:1012100010BD00001C3802400000024070B50446BA
:1012200090F838000D4601280AD0012084F83800D3
:1012300042B1042A18D0082A2AD00C2A4DD139E00C
:10124000022070BD206800F00AFA2068816941F030
:10125000080181612068816921F0040181612068B1
:101260008169EA68114311E0206800F00EFA2068F5
:10127000816941F4006181612068816921F48061A4
:10128000816120688169EA6841EA0221816124E084
:10129000206800F012FA2068C16941F00801C161BC
:1012A0002068C16921F00401C1612068C169EA6850
:1012B000114311E0206800F017FA2068C16941F479
:1012C0000061C1612068C16921F48061C161206849
:1012D000C169EA6841EA0221C161002084F838004E
:1012E00070BD10B5040003D094F8390010B107E0C8
:1012F000012010BD002084F83800204600F016F8C8
:10130000022084F83900211D206800F04FF90120E7
:1013100084F83E0084F83A0084F83B0084F83C00EE
:1013200084F83D0084F83900002010BD70470000AB
:1013300010B50446022249B104290ED0082913D061
:1013400094F83D00012816D0012010BD94F83A0011
:101350000128F9D184F83A200FE094F83B000128E5
:10136000F2D184F83B2008E094F83C000128EBD14E
:1013700084F83C2001E084F83D200122206800F040
:101380004FF92068B0F1804F08D00A49884205D053
:101390000949884202D00949884204D1816801F094
:1013A0000701062903D0016841F001010160002016
:1013B00010BD00000004004000080040000801408B
:1013C000FEE70000094808B5016841F0200101600E
:1013D000016801F020010091016841F00101016004
:1013E000006800F00100009008BD00001C380240B9
:1013F00010B58AB000242B480494059406940794F1
:10140000089409940094019402944FF0804103944D
:1014100001601F21C0E9011440F2CF71C0E903143B
:101420004461FFF72FFE08B1FFF748F94FF48050F1
:10143000049004A91B48FFF75DFE08B1FFF73EF9D1
:101440001848FFF74EFF08B1FFF738F9089408A9CC
:1014500014480994FFF7E2FD08B1FFF72FF9602067
:10146000CDE900040294002269460E480394FFF778
:10147000D5FE08B1FFF722F9042269460948FFF7B3
:10148000CDFE08B1FFF71AF9082269460548FFF7B3
:10149000C5FE08B1FFF712F90248FFF797FE0AB040
:1014A00010BD000010000020FEE7704770470000EC
:1014B00038B51C49002309681B4A11F0F00F23D1ED
:1014C00018491C310C68E500184C03D5216801F45B
:1014D000C0540EE00D6845F080550D600D6805F0B4
:1014E0008055009524680D6804F4C05425F080559B
:1014F0000D60B4F5C05F07D1B0F5404F04D110685E
:10150000012340F004001060106820F0010018432F
:101510001060106800F00100984201D0012038BD31
:10152000002038BD08380240003C024000700040F6
:101530007047FFF7BBB9000000B593B0342168468F
:10154000FEF72CFE14210DA8FEF728FE12480168B4
:1015500021F4C05141F4006101600120009001902C
:1015600002200990C0030A904FF440200B904FF4E2
:1015700000000C906846FFF729FB0F200D90032018
:101580000E9000200F901090119001210DA8FFF7F0
:1015900017FA13B000BD00000070004002494FF080
:1015A000006008607047000008ED00E070B5026858
:1015B0004FF08046154B164CB04203D0984201D0F4
:1015C000A04205D122F070054A682A43B0420CD0EF
:1015D00098420AD0A04208D00E4B984205D00E4B3C
:1015E000984202D00D4B984203D122F44073CA684E
:1015F0001A430B6922F080021A4302608A68C262B1
:10160000096881620121416170BD00000004004051
:101610000008004000080140000C0140001001409B
:1016200010B501F01F030121046A99408C43046244
:10163000016A9A401143016210BD10B5846842EA04
:10164000032224F47F440A432243826010BD82684F
:1016500022F070020A4342F007018160704730B502
:10166000026A22F001020262036A4468826922F07F
:1016700073050A682A4323F002058B6844602B43F4
:10168000826149684163036230BD30B5026A22F06D
:1016900010020262046A426883690D6823F4E6431B
:1016A00043EA05238D6824F0200444EA05144260CF
:1016B000836149688163046230BD30B5026A22F4F7
:1016C00080720262046A4368C26924F4007422F0E2
:1016D00073050A682A438D68436044EA0524C261A1
:1016E0004968C163046230BD30B5026A22F4805299
:1016F0000262046A4268C3690D6823F4E64343EA60
:1017000005238D6824F4005444EA05344260C36123
:1017100049680164046230BD10B5036A046A24F0AC
:1017200001040462846924F0F00444EA021423F002
:101730000A020A438461026210BD10B5036A23F0F5
:10174000100303628369046A23F4704343EA02329C
:1017500024F0A00343EA01118261016210BDFEE79B
:101760000907090E002804DB00F1E02080F80014CE
:10177000704700F00F0000F1E02080F8141D704762
:1017800002E008C8121F08C1002AFAD1704770474A
:10179000002001E001C1121F002AFBD170470000A8
:1017A0008AB001200290F8A0D0E90010CDE9031022
:1017B000F7A0D0E90010CDE90510F7A1D1E90001AB
:1017C000CDE90701FFF77AF8FFF7B6FEFFF7FAFD5C
:1017D000FFF70EFE0021F248FFF7AAFD0421F048B2
:1017E000FFF7A6FD0821EE48FFF7A2FD9DF80C10BB
:1017F0004FF0FF08B1FBF8F06FF0180148434FF0CD
:10180000640909EB8000FEF75CFEDFF898B304463C
:101810000D4600225B46FEF773FD0022E24BFEF709
:10182000E1FDFEF75FFEDFF878A3DAF80010486309
:101830009DF81410B1FBF8F06FF01801484309EB64
:101840008000FEF73EFE06460F4600225B46FEF78E
:1018500057FD0022D44BFEF7C5FDFEF743FEDAF834
:10186000001088639DF81C10B1FBF8F06FF01801B0
:10187000484309EB8000FEF724FE8046894600229B
:101880005B46FEF73DFD0022C74BFEF7ABFDFEF7C2
:1018900029FEDAF80010C863029903A8405CFF2112
:1018A000B0FBF1F06FF018014843642101EB8000B8
:1018B000FEF707FE82468B4622462B46FEF71AFDB0
:1018C0000022BA4BFEF78EFDCDE9000146E0DDE9CE
:1018D000000100221346FEF737FE06D252465B4651
:1018E00020462946FEF730FE3FD3DDE90001002205
:1018F0001346FEF711FE06D252465B4620462946A5
:10190000FEF70AFE31D3DDE9002320462946FEF723
:1019100050FC04460D460022A34BFEF715FE02D2F2
:101920000024A14D08E00022134620462946FEF778
:10193000F3FD01D20024254600229A4B2046294679
:10194000FEF7DEFC0022984BFEF74CFDFEF7CAFDC9
:101950009349096848636420FEF7B2FE52465B462D
:1019600020462946FEF7D8FDB1D100228D4B2046F6
:101970002946FEF7C5FC00228B4BFEF733FDFEF730
:10198000B1FD874909684863029805A9095CFF20F1
:10199000B1FBF0F06FF018014843642101EB8000C7
:1019A000FEF78FFD82468B4632463B46FEF7A2FC91
:1019B00000227E4BFEF716FDCDE9000146E0DDE991
:1019C000000100221346FEF7BFFD06D252465B46D9
:1019D00030463946FEF7B8FD3FD3DDE9000100226D
:1019E0001346FEF799FD06D252465B46304639460D
:1019F000FEF792FD31D3DDE9002330463946FEF78C
:101A0000D8FB06460F460022674BFEF79DFD02D22B
:101A10000026654F08E00022134630463946FEF79F
:101A20007BFD01D20026374600225E4B3046394608
:101A3000FEF766FC00225C4BFEF7D4FCFEF752FD7D
:101A40005749096888636420FEF73AFE52465B46B0
:101A500030463946FEF760FDB1D10022514B304689
:101A60003946FEF74DFC00224F4BFEF7BBFCFEF75C
:101A700039FD4B4909688863029807A9095CFF2072
:101A8000B1FBF0F16FF018004143642000EB8100DE
:101A9000FEF717FD82468B4642464B46FEF72AFC70
:101AA0000022424BFEF79EFCCDE9000148E0DDE953
:101AB000000100221346FEF747FD06D252465B4660
:101AC00040464946FEF740FD41D3DDE900010022D2
:101AD0001346FEF721FD06D252465B464046494674
:101AE000FEF71AFD33D3DDE9002340464946FEF7F1
:101AF00060FB8046894600222B4BFEF725FD02D273
:101B00000021294808E00022134640464946FEF7D6
:101B100003FD03D200210846884681460022214B5E
:101B200040464946FEF7ECFB00221F4BFEF75AFCED
:101B3000FEF7D8FC1A490968C8636420FEF7C0FDA7
:101B400052465B4640464946FEF7E6FCAFD10022CE
:101B5000144B40464946FEF7D3FB0022124BFEF7DA
:101B600041FCFEF7BFFC0E490968C8634FF47A7068
:101B7000FEF7A6FD0298062802D2401CC0B200E083
:101B80000020029088E60000FFFFFF000000FF0039
:101B9000007DFFFFFF00000000000000FFFFFF00CE
:101BA00010000020003C9F400000594000002E40E3
:101BB000030406080C10182030000000000000008C
:101BC000000102030406070809000000EC1B0008DE
:101BD000000000201000000080170008FC1B000817
:101BE00010000020400400009017000810000000C2
:0C1BF000010000000000000068FF1F0062
:04000005080000F5FA
:00000001FF
