:020000040800F2
:1000000058040020090100081712000843110008D5
:100010001512000815020008111600080000000063
:100020000000000000000000000000009D12000819
:100030001702000800000000191200089F120008B3
:100040002301000823010008230100082301000800
:1000500023010008230100082301000823010008F0
:1000600023010008230100082301000823010008E0
:1000700023010008230100082301000823010008D0
:1000800023010008230100082301000823010008C0
:1000900023010008230100082301000823010008B0
:1000A00000000000230100082301000823010008CC
:1000B0002301000823010008230100082301000890
:1000C0002301000823010008230100082301000880
:1000D0002301000805160008230100082301000879
:1000E0002301000823010008230100082301000860
:1000F00023010008DFF80CD000F07AF80048004730
:100100009D1600085804002006488047064800470E
:10011000FEE7FEE7FEE7FEE7FEE7FEE7FEE7FEE7B7
:10012000FEE7FEE74D130008F50000082DE9F05F3B
:100130000546002092469B46884606468146402456
:100140001BE0284641464746224600F041F8534608
:100150005A46C01A914110D311461846224600F063
:1001600028F82D1A67EB01084F462246012000218E
:1001700000F01FF817EB00094E41201EA4F1010406
:10018000DFDC484631462A464346BDE8F09FD2B2FE
:1001900001E000F8012B491EFBD270470022F6E770
:1001A00010B513460A4604461946FFF7F0FF2046ED
:1001B00010BD202A04DB203A00FA02F1002070472B
:1001C0009140C2F1200320FA03F319439040704795
:1001D000202A04DB203A21FA02F00021704721FA9C
:1001E00002F3D040C2F12002914008431946704703
:1001F000064C074D06E0E06840F0010394E8070074
:1002000098471034AC42F6D3FFF778FF98170008F0
:10021000B8170008FEE77047704700001E4808B591
:10022000016841F001010160016801F001010091E4
:10023000016841F002010160016801F002010091D2
:10024000016841F004010160016801F004010091BE
:10025000016841F0200101600168104A01F02001AD
:1002600000914FF0FF3111600D4A11600D4A11608D
:100270000D4A1160016821F001010160016821F05F
:1002800002010160016821F004010160016821F0B0
:100290002001016008BD00001C380240000002403F
:1002A00000040240000802400014024010B590F81B
:1002B00021100024022903D00421816301241AE0C3
:1002C00001680A6822F00E020A6001680A6822F0DA
:1002D00001020A6090F84010C36B01F01C0201217A
:1002E00001FA02F25A6080F82110002180F82010F3
:1002F000416B01B18847204610BD000070B504462F
:1003000000F08AF90546601C02D0044840680444A5
:1003100000F082F9401BA042FAD370BD000000201B
:100320002DE9F84F00230126DFF814C10F2780E0E4
:1003300006FA03F414EA01027AD023F003056544B7
:10034000AA46D5F808909D074FEA157E07FA0EF5E4
:1003500005EA090B00953B4DA84202D14FF0000879
:1003600019E0394DA84202D14FF0010813E0374D92
:10037000A84202D14FF002080DE0354DA84202D14B
:100380004FF0030807E0334DA84202D14FF00408B4
:1003900001E04FF0050808FA0EF8D84524D1DFF83F
:1003A000B880D8F8009029EA0209C8F8009008F14E
:1003B0000408D8F8009029EA0209C8F8009008F16A
:1003C0000408D8F8009029EA0209C8F8009008F15A
:1003D0000408D8F800509543C8F80050009ADAF89D
:1003E00008509543CAF80850D0F800804FEA4309F6
:1003F000032202FA09F228EA0208C0F80080DD08A8
:1004000000EB8505AA46D5F820804FEA43794FEAEC
:10041000D96907FA09F528EA0508CAF82080C568ED
:100420009543C5604568A5434560846894438460EE
:100430005B1C31FA03F27FF47BAFBDE8F88F00005C
:100440000000014000000240000402400008024099
:10045000000C024000100240000401402DE9FC4F56
:10046000DFF894A1002301250AF1040B03244FF0C7
:100470000F0C0BF1040EB8E005FA03F6324071D010
:100480004F68012F05D0022F03D0112F01D0122F5A
:1004900017D1D0F808905F0004FA07F829EA080994
:1004A0000097D1F80C8008FA07F848EA0908C0F864
:1004B00008804768B7430E79C6F300169E403E4356
:1004C0004660C6684FEA430804FA08F7BE4301973E
:1004D0008F6807FA08F73743C7604E68022E01D0CD
:1004E000122E13D1DE0800EB86060096366A5F07EF
:1004F000FF0E0CFA07F926EA0906D1F8109009FA5E
:1005000007F949EA0609009EC6F820900768019E8F
:10051000B7430E7906F0030606FA08F63E43066076
:100520004E68F60060D5354E376847F001073760F2
:10053000366823F0030706F001060096304E3E446D
:10054000B146B6689F074FEA17780CFA08F7BE4322
:100550002C4FB84201D1002715E02B4FB84202D1F1
:10056000012710E040E0294FB84201D102270AE0FC
:10057000274FB84201D1032705E0264FB84201D1E9
:10058000042700E0052707FA08F73743C9F8087081
:10059000DAF800705646D1F8048097435FEAC8380D
:1005A00000D517433760DBF800605F46D1F8048060
:1005B00096435FEA883800D516433E60DEF8006057
:1005C0007746D1F8048096435FEAC82800D51643E1
:1005D0003E60094F0C373E68D1F8048096435FEACD
:1005E000882800D516433E605B1C0A6832FA03F681
:1005F0007FF442AFBDE8FC8F000401402038024088
:1006000000000140000002400004024000080240D7
:10061000000C024000100240014880687047000052
:1006200000000020024881684268114481607047E0
:100630000000002010B50024032000F08DF80020F9
:1006400000F008F808B1012401E000F025F8204688
:1006500010BD000070B50E4E05460024706898B1BC
:100660004FF47A71B1FBF0F00A490968B1FBF0F080
:1006700000F0DCFB40B9102D06D200222946501EA6
:1006800000F04AF8356000E00124204670BD00000B
:10069000000000200C0000200F4882B0016841F0EB
:1006A00000410160016801F000410091011F0A68EA
:1006B00042F001020A60096801F00101009101683D
:1006C00041F080510160006800F0805000900520EA
:1006D00002B000F041B800002438024000280DDBD1
:1006E00000F01F02012191404009800000F1E0204C
:1006F000C0F88011BFF34F8FBFF36F8F7047002892
:1007000009DB00F01F02012191404009800000F147
:10071000E020C0F800117047F0B40E4B1B680C4687
:10072000C3F30223C3F10705042D00D90425191DC5
:10073000072901D2002300E0DB1E012606FA05F19D
:10074000491E214099409E40761E16403143F0BC20
:1007500000F068BF0CED00E0064900F007020868F1
:100760004FF6FF03184040EA0220034A1043086096
:10077000704700000CED00E00000FA0590FAA0F0D0
:10078000044AB0FA80F002EB80000121C0F880102A
:100790007047000000000E420548016841F0020168
:1007A00001600448016841F00401016030BF7047F6
:1007B0000070004010ED00E02DE9F0470E46050006
:1007C00079D0DFF88481D8F8000000F00100B04251
:1007D00014D2012E05D1D8F8001041F00401C8F858
:1007E0000010D8F8001021F001013143C8F80010C2
:1007F000D8F8000000F00100B0425CD12878534CDA
:10080000800705D52068A96820F0F0000843206023
:100810002878C0075CD04D496868083902281AD08A
:1008200003281BD0096801281BD08905002966DA36
:10083000216821F0030101432160FFF7EDFE6968A3
:10084000074641F28830022914D0032920D001291B
:1008500081462AD038E009688903E7E709688901F9
:10086000E4E78907E2E700BFFFF7D6FEC11B494571
:1008700001D926E081462068C0F381000228F3D127
:1008800026E000BFFFF7C8FEC11B494501D918E0AB
:1008900081462068C0F381000328F3D118E000BF2F
:1008A000FFF7BAFEC11B49450BD82068C0F3810091
:1008B0000128F5D10CE022E0FFF7AEFEC11B49454F
:1008C00002D90320BDE8F087206810F00C0FF3D1A7
:1008D000D8F80010404601F00101B14211D9012EB3
:1008E00003D1016841F004010160016821F00101B8
:1008F00031430160006800F00100B04201D00120E6
:10090000E0E72878400705D52068E96820F4E06032
:10091000084320602878000706D52068296920F45C
:10092000605040EAC100206000F038F82168084AB1
:10093000C1F30311515CC8400649086006480068CD
:10094000BDE8F047FFF786BE003C02400838024091
:100950007D1700080C000020000000200448054915
:1009600000680968044AC1F30221515CC84070471D
:100970000C000020083802408D1700080448054983
:1009800000680968044AC1F3C221515CC84070473D
:100990000C000020083802408D17000870B5154D76
:1009A0002968154801F00C02042A0CD0134C082ABF
:1009B0000AD00C2A0AD0281F0068C0F342314FF435
:1009C0000040491C884070BD204670BD0C4AC1F3F0
:1009D0008343D35CC1F381522968521CC90302D5F9
:1009E000A3FB040101E0A3FB00010023FFF79EFB32
:1009F00070BD0000083802400024F400001BB7005E
:100A0000741700082DE9F84F04007DD0FC480168F8
:100A1000006801F00C0700F480362078F94DC0071B
:100A200041D0082F12D00C2F02D1B6F5803F0DD047
:100A30006068012811D008B1052818D0286820F472
:100A400080302860286820F4802009E0286880032E
:100A500029D560680028D8D025E0286840F4803087
:100A60002860606890B1FFF7D7FD80460AE02868EB
:100A700040F480202860F0E7FFF7CEFDA0EB0800EF
:100A800064287BD828688003F6D50CE0FFF7C4FD06
:100A9000804605E0FFF7C0FDA0EB08006428F0D811
:100AA00028688003F6D42078DFF85CB3DFF85C8335
:100AB00080074FF001094FF0000A35D5042F0AD006
:100AC0000C2F00D13EB1E068F8B1C8F80090FFF7F4
:100AD000A3FD06460BE0286880070BD5E0680128D7
:100AE00012D107E0FFF798FD801B0228C9D82868BB
:100AF0008007F7D5DBF80010226921F4F85141EAAC
:100B00000221CBF800100FE077E1C8F800A0FFF752
:100B100083FD064605E000BFFFF77EFD801B02282F
:100B2000AFD828688007F7D42078C00674D53FB1C5
:100B3000A069E0B3C8F82090FFF76EFD06464AE0D2
:100B40002868800502D5A069002884D0206ADBF8D7
:100B500000105E4601F46041884210D900F05EFB4F
:100B60000028BDD13068216A20F46040084330601D
:100B7000217F306861F31F6030600FE096E03168DC
:100B800021F4604101433160217F306861F31F60CF
:100B90003060206A00F042FB0028A1D1216A4FF4A6
:100BA000004009EB513188409549096800E025E093
:100BB000974AC1F30311515CC840964908609648B2
:100BC0000068FFF747FD00286FD125E0FFF724FDFF
:100BD000801B02286AD828688005F7D5DBF800104A
:100BE000226A21F460411143CBF80010227FDBF828
:100BF000001062F31F61CBF800100DE0C8F820A0D0
:100C0000FFF70AFD064604E0FFF706FD801B0228F9
:100C10004CD828688005F7D42078804E000722D56C
:100C20007F48616981B1C0F80090FFF7F5FC834609
:100C300006E000BFFFF7F0FCA0EB0B00022835D860
:100C400030688007F6D50EE0C0F800A0FFF7E4FC9E
:100C5000834605E0FFF7E0FCA0EB0B00022825D857
:100C600030688007F6D4207840076DD56B484FF088
:100C7000000B10380068C0000BD4684810380168B9
:100C800041F08051016000684FF0010B00F080508E
:100C9000009064480168C90514D4016841F480716A
:100CA0000160FFF7B9FC009008E08DE079E000BF3B
:100CB000FFF7B2FC0099401A642872D859480068BE
:100CC000C005F5D5A06801280AD008B1052811D0C3
:100CD000306820F480703060306820F4806002E07A
:100CE000306840F480703060A068A8B1FFF794FCD1
:100CF00000900DE0306840F480603060F0E700BFA5
:100D0000FFF78AFC0099411A41F2883081425AD893
:100D100030688005F4D50EE0FFF77EFC009007E018
:100D2000FFF77AFC0099411A41F2883081424AD893
:100D300030688005F4D4BBF1000F05D03748103877
:100D4000016821F080510160606A58B30C2F41D0D6
:100D50000228504605D0C8F86000FFF75DFC044645
:100D600034E04746C8F86000FFF756FC064604E04A
:100D7000FFF752FC801B022825D828688001F7D491
:100D8000D4E90A1001431E48226B036823F47D0353
:100D90001A4311430160C7F86090FFF73DFC044619
:100DA00007E010E040E000BFFFF736FC001B022820
:100DB00009D828688001F7D536E000BFFFF72CFC82
:100DC000001B022802D90320BDE8F88F28688001A3
:100DD000F4D429E00128F7D009480068A26A00F499
:100DE0008031914209D1E26A00F47011914204D13C
:100DF000216B00F44000884216D00120E4E7000097
:100E000008380240003802400438024000004742DF
:100E10007D1700080C00002000000020343802403C
:100E200080064742007000400020CDE710B5401E0C
:100E3000B0F1807F01D3012010BD4FF0E02460614C
:100E40000F21601700F0EEFB0020A0610720206159
:100E5000002010BD7047000070B50268044610689D
:100E6000D168536910F00F0F52D003F0010501F45F
:100E700090762E435FD0C20705D0CA0503D5E26B3A
:100E800042F00102E263420705D5DA0703D0E26BC4
:100E900042F00202E263820705D5DA0703D0E26B73
:100EA00042F00402E263020707D501F020022A4360
:100EB00003D0E26B42F00802E263E26B002A33D017
:100EC000800604D5880602D5204600F05DFA206829
:100ED0004069E16BC0F38010090700D428B32046B5
:100EE00000F044FA2068416949061AD5416921F0A9
:100EF00040014161606BA0B11B494163606BFFF72A
:100F0000D5F9002810D0606B416BBDE870400847F0
:100F1000830610D58B060ED52046BDE8704000F044
:100F200033BA2046FFF796FF70BD2046FFF792FFC9
:100F30000020E06370BD030606D50B0604D52046ED
:100F4000BDE8704000F0FABA4006F3D54806F1D586
:100F5000D168204621F04001D160202184F8391069
:100F600000F0EEF870BD00005D13000870B50400DD
:100F700004D094F83900002510B106E0012070BDBE
:100F800084F83850204600F03FF8242084F83900D7
:100F90002068C16821F40051C160204600F040FA89
:100FA0002068016921F4904101612068416921F0C4
:100FB0002A0141612068C16841F40051C160E563C4
:100FC000202084F8390084F83A00002070BD000029
:100FD00010B50068094988420ED10948016821F41A
:100FE000804101604FF4C0610648FFF799F9BDE800
:100FF00010402520FFF772BB10BD000000380140F3
:10100000203802400000024010B586B0044614218A
:101010006846FFF7C3F818492068884229D1174865
:10102000016841F480410160006800F4804005904F
:101030001248001F016841F0010101600068694623
:1010400000F0010005904FF4C06000900220019074
:101050000020029003200390072004900848FFF727
:10106000FDF9002211462520FFF756FB2520FFF74A
:1010700046FB06B010BD0000003801402038024099
:101080000000024070472DE9F843044690F839000B
:101090001F4616460D46202850D1B5B1AEB194F882
:1010A000380001284AD0012084F838004FF00008A9
:1010B000C4F83C80212084F83900FFF7ADFAA684FB
:1010C0008146E68484F8388026E00120BDE8F88374
:1010D000E08C401EE084A0684B46B0F5805F4FF086
:1010E00000024FF080012046009703D000F057FA2D
:1010F000E8B90DE000F053FAC8B928882168C0F3B8
:1011000008004860206908B16D1C05E0AD1C03E0D3
:10111000216815F8010B4860E08C0028D8D14B46B7
:10112000002240212046009700F039FA08B1032040
:10113000CCE7202084F839000020C7E70220C5E76B
:101140007047FEE730B587B014216846FFF726F8F0
:101150001E48016841F004010160016801F00401CA
:101160000591016841F020010160016801F0200152
:101170000591016841F001010160016801F0010180
:101180000591016841F0020101600068032400F04C
:10119000020005904FF4404000258DE8310069467B
:1011A0000B48FFF75BF949F6FF108DE831006946FF
:1011B0000848FFF753F94FF6FF708DE83100694694
:1011C0000548FFF74BF907B030BD00001C3802405E
:1011D0000008024000000240000402400C4810B524
:1011E0000A4901604FF4E1314160002181600C2225
:1011F000C160C0E904128161C161FFF7B7FE002838
:1012000003D0BDE81040FFF707B810BD003801401B
:1012100014000020FEE770477047000038B51C49F5
:10122000002309681B4A11F0F00F23D118491C3123
:101230000C68E500184C03D5216801F4C0540EE099
:101240000D6845F080550D600D6805F080550095DE
:1012500024680D6804F4C05425F080550D60B4F581
:10126000C05F07D1B0F5404F04D11068012340F0B2
:1012700004001060106820F001001843106010682E
:1012800000F00100984201D0012038BD002038BD97
:1012900008380240003C0240007000407047FFF7F1
:1012A000C1B9000008B50D48FFF792FEFEF7B6FF82
:1012B0000B48016841F080510160006800F08050E7
:1012C00000900848016841F0040101604015FFF7F3
:1012D00055FABDE80840FFF75FBA0000140000208F
:1012E000243802400070004000B593B034216846B5
:1012F000FEF754FF14210DA8FEF750FF12480168B5
:1013000021F4C05141F4006101600120009001907E
:1013100002200990C0030A904FF440200B904FF434
:1013200000000C906846FFF76DFB0F200D90032026
:101330000E9000200F901090119001210DA8FFF742
:101340003BFA13B000BD00000070004002494FF0AE
:10135000006008607047000008ED00E010B5406ACA
:101360000021C185C184FFF775FD10BD0168CA6801
:1013700022F49072CA6001684A6922F001024A614F
:10138000202180F83A10704710B590F83A102229C1
:1013900001D0022010BD8168B1F5805F11D00169D4
:1013A000002901681FD0496801F07F03816A4A1C47
:1013B00082620B70C18D491E0904090CC18518D0C9
:1013C0002BE00269816A002A0268526805D0D2B215
:1013D0000A80816A491C8162ECE7C2F308020A8034
:1013E000816A891CF7E74A68816A4B1C83620A702C
:1013F000E0E70168CA6822F02002CA600168CA6892
:1014000022F48072CA6001684A6922F001024A61CE
:10141000202180F83A10FFF735FE002010BD0000B3
:101420002DE9F041044600680169E26821F4405169
:10143000114301612169A068E269084361691143B0
:1014400022680843D16849F20C6399430143D16093
:1014500020684169A26921F4407111434161364914
:101460002068884202D1FFF789FA01E0FFF776FA97
:101470000246E36964203221B3F5004F02EBC20358
:1014800003EB021362682BD09200B3FBF2F5B5FBBD
:10149000F0F5B3FBF2F66FF018077D4306EB850518
:1014A000B3FBF2F601EB0515B5FBF0F5B6FBF0F674
:1014B00005F0F00505EB0615B3FBF2F6B3FBF2F20F
:1014C000B2FBF0F27A4306EB820201EB0211B1FBB0
:1014D000F0F000F00F00216828448860BDE8F0813A
:1014E0005200B3FBF2F6B6FBF0F6B3FBF2F7B3FB38
:1014F000F2F56FF0180C06FB0CF607EB860601EB15
:10150000C606B5FBF0F5B6FBF0F62D0106F0F806C1
:1015100005EB4605B3FBF2F6B3FBF2F2B2FBF0F2D9
:1015200002FB0CF206EB820201EBC201B1FBF0F010
:1015300000F00700CFE700000038014090F83910B4
:10154000212901D0022070478168B1F5805F016ACE
:101550000BD04A1C0262026809785160C18C491E96
:101560000904090CC1840ED017E009880268C1F390
:101570000801516001690029016A02D0491C016219
:10158000ECE7891CFBE70168CA6822F08002CA60A8
:101590000068C16841F04001C160002070472DE93A
:1015A000F041984617460E460446069D1DE0681C0D
:1015B0001BD02DB1FFF730F8A0EB0800A84214D9DA
:1015C0002068C16821F4D071C1602068416921F0B0
:1015D00001014161202084F8390084F83A0000209C
:1015E00084F838000320BDE8F0812068006836EAFE
:1015F000000004D00020B842D9D00020F3E7012039
:10160000F9E700000148FFF727BC000014000020A4
:10161000FEE70000014A024900F023B885160008E1
:10162000100000200907090E002804DB00F1E0206B
:1016300080F80014704700F00F0000F1E02080F8FF
:10164000141D704702E008C8121F08C1002AFAD111
:1016500070477047002001E001C1121F002AFBD132
:1016600070472DE9F04116460F460446002503E079
:101670003946B047641C6D1C20780028F8D12846F4
:10168000BDE8F08113B54FF47A7301226946024830
:10169000FFF7F9FC00981CBD14000020FEF7CAFFFC
:1016A000FFF722FEFFF74EFDFFF798FD4FF47A7427
:1016B00011A0FFF7AFFF2046FEF720FE11A0FFF7B5
:1016C000A9FF2046FEF71AFE11A0FFF7A3FF204650
:1016D000FEF714FE11A0FFF79DFF2046FEF70EFE59
:1016E00011A0FFF797FF2046FEF708FE11A0FFF7B5
:1016F00091FFFFF7D7FDDBE754696D653A20350DA3
:101700000A00000054696D653A20340D0A0000009B
:1017100054696D653A20330D0A00000054696D6507
:101720003A20320D0A00000054696D653A20310DEF
:101730000A000000456E7465726564205374616E22
:10174000646279204D6F64652E2E2E506C65617336
:1017500065207072657373204B45595F5550207436
:101760006F2077616B6575702073797374656D2177
:101770000D0A0000030406080C10182030000000B9
:101780000000000000010203040607080900000031
:101790000001020304000000B81700080000002048
:1017A0001400000044160008CC17000814000020A4
:1017B000440400005416000810000000010000005E
:0C17C0000000000068FF1F000000000097
:04000005080000F5FA
:00000001FF
