:020000040800F2
:100000001804002009010008E70C0008490C00084A
:10001000E50C000815020008E90D000800000000CA
:100020000000000000000000000000006D0D00084E
:100030001702000800000000E90C00086F0D00081E
:100040002301000823010008230100082301000800
:1000500023010008230100082301000823010008F0
:1000600023010008230100082301000823010008E0
:1000700023010008230100082301000823010008D0
:1000800023010008230100082301000823010008C0
:1000900023010008230100082301000823010008B0
:1000A00000000000230100082301000823010008CC
:1000B0002301000823010008230100082301000890
:1000C0002301000823010008230100082301000880
:1000D0002301000823010008230100082301000870
:1000E0001902000823010008230100082301000869
:1000F00023010008DFF80CD000F07AF80048004730
:10010000290E0008180400200648804706480047CA
:10011000FEE7FEE7FEE7FEE7FEE7FEE7FEE7FEE7B7
:10012000FEE7FEE7D90D0008F50000082DE9F05FB5
:100130000546002092469B46884606468146402456
:100140001BE0284641464746224600F041F8534608
:100150005A46C01A914110D311461846224600F063
:1001600028F82D1A67EB01084F462246012000218E
:1001700000F01FF817EB00094E41201EA4F1010406
:10018000DFDC484631462A464346BDE8F09FD2B2FE
:1001900001E000F8012B491EFBD270470022F6E770
:1001A00010B513460A4604461946FFF7F0FF2046ED
:1001B00010BD202A04DB203A00FA02F1002070472B
:1001C0009140C2F1200320FA03F319439040704795
:1001D000202A04DB203A21FA02F00021704721FA9C
:1001E00002F3D040C2F12002914008431946704703
:1001F000064C074D06E0E06840F0010394E8070074
:1002000098471034AC42F6D3FFF778FF500E000841
:10021000700E0008FEE770474FF4005000F050B831
:1002200070B5044600F040F90546601C02D0044851
:100230004068044400F038F9401BA042FAD370BD76
:100240000400002070B54FF40054A04231D11420B6
:10025000FFF7E6FF2146174800F01CF9002828D1D7
:10026000154C164D207878B1012815D0022820D1E0
:1002700001220721284600F012F900220421284615
:1002800000F00DF9002013E001220721284600F0BC
:1002900006F90022012106E001220721284600F08C
:1002A000FEF800220221284600F0F9F82078401CD0
:1002B000207070BD000802400000002000000240D5
:1002C000044910B50A68024202D00860FFF7BAFF7D
:1002D00010BD0000140401402DE9FC4FDFF894A18B
:1002E000002301250AF1040B03244FF00F0C0BF13E
:1002F000040EB8E005FA03F6324071D04F68012FC2
:1003000005D0022F03D0112F01D0122F17D1D0F812
:1003100008905F0004FA07F829EA08090097D1F865
:100320000C8008FA07F848EA0908C0F8088047680E
:10033000B7430E79C6F300169E403E434660C6683A
:100340004FEA430804FA08F7BE4301978F6807FA9B
:1003500008F73743C7604E68022E01D0122E13D122
:10036000DE0800EB86060096366A5F07FF0E0CFA81
:1003700007F926EA0906D1F8109009FA07F949EABF
:100380000609009EC6F820900768019EB7430E79C3
:1003900006F0030606FA08F63E4306604E68F600CD
:1003A00060D5354E376847F001073760366823F06F
:1003B000030706F001060096304E3E44B146B6688B
:1003C0009F074FEA17780CFA08F7BE432C4FB84244
:1003D00001D1002715E02B4FB84202D1012710E0D0
:1003E00040E0294FB84201D102270AE0274FB84226
:1003F00001D1032705E0264FB84201D1042700E0D0
:10040000052707FA08F73743C9F80870DAF80070CB
:100410005646D1F8048097435FEAC83800D51743A1
:100420003760DBF800605F46D1F8048096435FEAEE
:10043000883800D516433E60DEF800607746D1F874
:10044000048096435FEAC82800D516433E60094FF2
:100450000C373E68D1F8048096435FEA882800D5BF
:1004600016433E605B1C0A6832FA03F67FF442AF23
:10047000BDE8FC8F0004014020380240000001402C
:10048000000002400004024000080240000C02404C
:10049000001002400069084000D0012070470AB1F6
:1004A000816170470904FBE70148806870470000DC
:1004B000040000200248816842681144816070474E
:1004C0000400002010B50024032000F07DF8002077
:1004D00000F008F808B1012401E000F025F82046FA
:1004E00010BD000070B50E4E05460024706898B12E
:1004F0004FF47A71B1FBF0F00A490968B1FBF0F0F2
:1005000000F08EFB40B9102D06D200222946501E65
:1005100000F03AF8356000E00124204670BD00008C
:1005200004000020100000200F4882B0016841F054
:1005300000410160016801F000410091011F0A685B
:1005400042F001020A60096801F0010100910168AE
:1005500041F080510160006800F08050009005205B
:1005600002B000F031B8000024380240002809DB56
:1005700000F01F02012191404009800000F1E020BD
:10058000C0F8001170470000F0B40E4B1B680C4619
:10059000C3F30223C3F10705042D00D90425191D57
:1005A000072901D2002300E0DB1E012606FA05F12F
:1005B000491E214099409E40761E16403143F0BCB2
:1005C00000F013BC0CED00E0064900F007020868DB
:1005D0004FF6FF03184040EA0220034A1043086028
:1005E000704700000CED00E00000FA052DE9F0472F
:1005F0000E46050079D0DFF88481D8F8000000F0BD
:100600000100B04214D2012E05D1D8F8001041F0FB
:100610000401C8F80010D8F8001021F0010131439E
:10062000C8F80010D8F8000000F00100B0425CD11A
:100630002878534C800705D52068A96820F0F00081
:10064000084320602878C0075CD04D4968680839A5
:1006500002281AD003281BD0096801281BD089055D
:10066000002966DA216821F0030101432160FFF7C8
:100670001BFF6968074641F28830022914D003291C
:1006800020D0012981462AD038E009688903E7E7AC
:1006900009688901E4E78907E2E700BFFFF704FF83
:1006A000C11B494501D926E081462068C0F381007D
:1006B0000228F3D126E000BFFFF7F6FEC11B494533
:1006C00001D918E081462068C0F381000328F3D1E6
:1006D00018E000BFFFF7E8FEC11B49450BD82068B2
:1006E000C0F381000128F5D10CE022E0FFF7DCFE29
:1006F000C11B494502D90320BDE8F087206810F0EE
:100700000C0FF3D1D8F80010404601F00101B142BE
:1007100011D9012E03D1016841F004010160016883
:1007200021F0010131430160006800F00100B04296
:1007300001D00120E0E72878400705D52068E96866
:1007400020F4E060084320602878000706D5206880
:10075000296920F4605040EAC100206000F018F8D8
:100760002168084AC1F30311515CC840064908607A
:1007700006480068BDE8F047FFF7B4BE003C024001
:10078000083802403F0E000810000020040000203E
:1007900070B5154D2968154801F00C02042A0CD0DB
:1007A000134C082A0AD00C2A0AD0281F0068C0F36C
:1007B00042314FF40040491C884070BD204670BD56
:1007C0000C4AC1F38343D35CC1F381522968521CA4
:1007D000C90302D5A3FB040101E0A3FB0001002330
:1007E000FFF7A4FC70BD0000083802400024F400AC
:1007F000001BB700360E00082DE9F84F04007DD02D
:10080000FC480168006801F00C0700F4803620788D
:10081000F94DC00741D0082F12D00C2F02D1B6F5E8
:10082000803F0DD06068012811D008B1052818D08C
:10083000286820F480302860286820F4802009E0AF
:100840002868800329D560680028D8D025E028686A
:1008500040F480302860606890B1FFF725FE804644
:100860000AE0286840F480202860F0E7FFF71CFECB
:10087000A0EB080064287BD828688003F6D50CE03C
:10088000FFF712FE804605E0FFF70EFEA0EB080022
:100890006428F0D828688003F6D42078DFF85CB3A9
:1008A000DFF85C8380074FF001094FF0000A35D56F
:1008B000042F0AD00C2F00D13EB1E068F8B1C8F87F
:1008C0000090FFF7F1FD06460BE0286880070BD586
:1008D000E068012812D107E0FFF7E6FD801B02283F
:1008E000C9D828688007F7D5DBF80010226921F401
:1008F000F85141EA0221CBF800100FE077E1C8F887
:1009000000A0FFF7D1FD064605E000BFFFF7CCFDD4
:10091000801B0228AFD828688007F7D42078C0064B
:1009200074D53FB1A069E0B3C8F82090FFF7BCFDD3
:1009300006464AE02868800502D5A069002884D0D0
:10094000206ADBF800105E4601F46041884210D94D
:1009500000F0CCF90028BDD13068216A20F4604055
:1009600008433060217F306861F31F6030600FE022
:1009700096E0316821F4604101433160217F3068A5
:1009800061F31F603060206A00F0B0F90028A1D147
:10099000216A4FF4004009EB5131884095490968BC
:1009A00000E025E0974AC1F30311515CC840964925
:1009B000086096480068FFF795FD00286FD125E094
:1009C000FFF772FD801B02286AD828688005F7D5DA
:1009D000DBF80010226A21F460411143CBF80010CB
:1009E000227FDBF8001062F31F61CBF800100DE0EE
:1009F000C8F820A0FFF758FD064604E0FFF754FDB5
:100A0000801B02284CD828688005F7D42078804EB7
:100A1000000722D57F48616981B1C0F80090FFF7D7
:100A200043FD834606E000BFFFF73EFDA0EB0B0051
:100A3000022835D830688007F6D50EE0C0F800A04F
:100A4000FFF732FD834605E0FFF72EFDA0EB0B001C
:100A5000022825D830688007F6D4207840076DD565
:100A60006B484FF0000B10380068C0000BD468488A
:100A70001038016841F08051016000684FF0010BAF
:100A800000F08050009064480168C90514D40168E2
:100A900041F480710160FFF707FD009008E08DE0F0
:100AA00079E000BFFFF700FD0099401A642872D872
:100AB00059480068C005F5D5A06801280AD008B1DA
:100AC000052811D0306820F480703060306820F440
:100AD000806002E0306840F480703060A068A8B1A7
:100AE000FFF7E2FC00900DE0306840F48060306079
:100AF000F0E700BFFFF7D8FC0099411A41F28830B7
:100B000081425AD830688005F4D50EE0FFF7CCFC5E
:100B1000009007E0FFF7C8FC0099411A41F28830C5
:100B200081424AD830688005F4D4BBF1000F05D06B
:100B300037481038016821F080510160606A58B36D
:100B40000C2F41D00228504605D0C8F86000FFF7AE
:100B5000ABFC044634E04746C8F86000FFF7A4FC4D
:100B6000064604E0FFF7A0FC801B022825D8286871
:100B70008001F7D4D4E90A1001431E48226B0368B0
:100B800023F47D031A4311430160C7F86090FFF717
:100B90008BFC044607E010E040E000BFFFF784FC58
:100BA000001B022809D828688001F7D536E000BF6D
:100BB000FFF77AFC001B022802D90320BDE8F88F5A
:100BC00028688001F4D429E00128F7D0094800689A
:100BD000A26A00F48031914209D1E26A00F47011F6
:100BE000914204D1216B00F44000884216D00120CC
:100BF000E4E70000083802400038024004380240B0
:100C0000000047423F0E00081000002004000020B2
:100C10003438024080064742007000400020CDE793
:100C200010B5401EB0F1807F01D3012010BD4FF000
:100C3000E02460610F21601700F0D7F80020A06168
:100C400007202061002010BDFEE7000030B587B00E
:100C500014216846FFF7A2FA1E48016841F004011A
:100C60000160016801F004010591016841F0200173
:100C70000160016801F020010591016841F0010166
:100C800001600068144D00F0010005900122072169
:100C90002846FFF704FC4FF4005000900F48012451
:100CA000CDE9010469460E48FFF716FB07200090C6
:100CB0000021CDE90141039169462846FFF70CFB6D
:100CC000002201212820FFF75FFC2820FFF74EFCBF
:100CD00007B030BD1C380240000002400000211067
:100CE00000080240FEE770477047000038B51C4915
:100CF000002309681B4A11F0F00F23D118491C3159
:100D00000C68E500184C03D5216801F4C0540EE0CE
:100D10000D6845F080550D600D6805F08055009513
:100D200024680D6804F4C05425F080550D60B4F5B6
:100D3000C05F07D1B0F5404F04D11068012340F0E7
:100D400004001060106820F0010018431060106863
:100D500000F00100984201D0012038BD002038BDCC
:100D600008380240003C0240007000407047FFF726
:100D7000A1BB000000B593B034216846FFF70EFA1E
:100D800014210DA8FFF70AFA1248016821F4C05196
:100D900041F400610160012000900190022009905F
:100DA000C0030A904FF440200B904FF400000C90C9
:100DB0006846FFF721FD0F200D9003200E900020C4
:100DC0000F901090119001210DA8FFF70FFC13B0A8
:100DD00000BD00000070004002494FF00060086054
:100DE0007047000008ED00E0FEE70907090E002843
:100DF00004DB00F1E02080F80014704700F00F00E1
:100E000000F1E02080F8141D704702E008C8121FAE
:100E100008C1002AFAD170477047002001E001C1E3
:100E2000121F002AFBD17047FFF74CFBFFF7A2FF10
:100E3000FFF70CFFFEE7030406080C101820300033
:100E4000000000000000000102030406070809007A
:100E5000700E000800000020140000000A0E0008B8
:100E6000840E000814000020040400001A0E00087C
:100E70000000000010000000010000000000000061
:040E800068FF1F00E8
:04000005080000F5FA
:00000001FF
