:020000040800F2
:100000005805002009010008631000088D0F000842
:100010006110000815020008191400080000000013
:10002000000000000000000000000000E9100008CF
:10003000170200080000000065100008EB1000081F
:100040002301000823010008230100082301000800
:1000500023010008230100082301000823010008F0
:1000600023010008230100082301000823010008E0
:1000700023010008230100082301000823010008D0
:1000800023010008230100082301000823010008C0
:1000900023010008230100082301000823010008B0
:1000A00000000000230100082301000823010008CC
:1000B0002301000823010008230100082301000890
:1000C0002301000823010008230100082301000880
:1000D000230100080D140008230100082301000873
:1000E0002301000823010008230100082301000860
:1000F00023010008DFF80CD000F07AF80048004730
:10010000811400085805002006488047064800472B
:10011000FEE7FEE7FEE7FEE7FEE7FEE7FEE7FEE7B7
:10012000FEE7FEE755110008F50000082DE9F05F35
:100130000546002092469B46884606468146402456
:100140001BE0284641464746224600F041F8534608
:100150005A46C01A914110D311461846224600F063
:1001600028F82D1A67EB01084F462246012000218E
:1001700000F01FF817EB00094E41201EA4F1010406
:10018000DFDC484631462A464346BDE8F09FD2B2FE
:1001900001E000F8012B491EFBD270470022F6E770
:1001A00010B513460A4604461946FFF7F0FF2046ED
:1001B00010BD202A04DB203A00FA02F1002070472B
:1001C0009140C2F1200320FA03F319439040704795
:1001D000202A04DB203A21FA02F00021704721FA9C
:1001E00002F3D040C2F12002914008431946704703
:1001F000064C074D06E0E06840F0010394E8070074
:1002000098471034AC42F6D3FFF778FFD8140008B3
:10021000F8140008FEE77047704710B590F82110F9
:100220000024022903D00421816301241AE001681B
:100230000A6822F00E020A6001680A6822F00102D0
:100240000A6090F84010C36B01F01C02012101FA12
:1002500002F25A6080F82110002180F82010416BD2
:1002600001B18847204610BD2DE9FC4FDFF894A16D
:10027000002301250AF1040B03244FF00F0C0BF1AE
:10028000040EB8E005FA03F6324071D04F68012F32
:1002900005D0022F03D0112F01D0122F17D1D0F883
:1002A00008905F0004FA07F829EA08090097D1F8D6
:1002B0000C8008FA07F848EA0908C0F8088047687F
:1002C000B7430E79C6F300169E403E434660C668AB
:1002D0004FEA430804FA08F7BE4301978F6807FA0C
:1002E00008F73743C7604E68022E01D0122E13D193
:1002F000DE0800EB86060096366A5F07FF0E0CFAF2
:1003000007F926EA0906D1F8109009FA07F949EA2F
:100310000609009EC6F820900768019EB7430E7933
:1003200006F0030606FA08F63E4306604E68F6003D
:1003300060D5354E376847F001073760366823F0DF
:10034000030706F001060096304E3E44B146B668FB
:100350009F074FEA17780CFA08F7BE432C4FB842B4
:1003600001D1002715E02B4FB84202D1012710E040
:1003700040E0294FB84201D102270AE0274FB84296
:1003800001D1032705E0264FB84201D1042700E040
:10039000052707FA08F73743C9F80870DAF800703C
:1003A0005646D1F8048097435FEAC83800D5174312
:1003B0003760DBF800605F46D1F8048096435FEA5F
:1003C000883800D516433E60DEF800607746D1F8E5
:1003D000048096435FEAC82800D516433E60094F63
:1003E0000C373E68D1F8048096435FEA882800D530
:1003F00016433E605B1C0A6832FA03F67FF442AF94
:10040000BDE8FC8F0004014020380240000001409C
:10041000000002400004024000080240000C0240BC
:10042000001002400148806870470000040000206E
:1004300002488168426811448160704704000020CE
:1004400010B50024032000F07DF8002000F008F82B
:1004500008B1012401E000F025F8204610BD00009D
:1004600070B50E4E05460024706898B14FF47A714D
:10047000B1FBF0F00A490968B1FBF0F000F0AEFB07
:1004800040B9102D06D200222946501E00F03AF83D
:10049000356000E00124204670BD0000040000200B
:1004A000100000200F4882B0016841F00041016057
:1004B000016801F000410091011F0A6842F0010249
:1004C0000A60096801F001010091016841F0805162
:1004D0000160006800F080500090052002B000F03C
:1004E00031B8000024380240002809DB00F01F0268
:1004F000012191404009800000F1E020C0F8001186
:1005000070470000F0B40E4B1B680C46C3F3022387
:10051000C3F10705042D00D90425191D072901D2AF
:10052000002300E0DB1E012606FA05F1491E2140EA
:1005300099409E40761E16403143F0BC00F080BFCB
:100540000CED00E0064900F0070208684FF6FF03D3
:10055000184040EA0220034A104308607047000038
:100560000CED00E00000FA052DE9F0470E4605000D
:1005700079D0DFF88481D8F8000000F00100B042A3
:1005800014D2012E05D1D8F8001041F00401C8F8AA
:100590000010D8F8001021F001013143C8F8001014
:1005A000D8F8000000F00100B0425CD12878534C2C
:1005B000800705D52068A96820F0F0000843206076
:1005C0002878C0075CD04D496868083902281AD0DD
:1005D00003281BD0096801281BD08905002966DA89
:1005E000216821F0030101432160FFF71BFF6968C7
:1005F000074641F28830022914D0032920D001296E
:1006000081462AD038E009688903E7E7096889014B
:10061000E4E78907E2E700BFFFF704FFC11B494594
:1006200001D926E081462068C0F381000228F3D179
:1006300026E000BFFFF7F6FEC11B494501D918E0CF
:1006400081462068C0F381000328F3D118E000BF81
:10065000FFF7E8FEC11B49450BD82068C0F38100B5
:100660000128F5D10CE022E0FFF7DCFEC11B494573
:1006700002D90320BDE8F087206810F00C0FF3D1F9
:10068000D8F80010404601F00101B14211D9012E05
:1006900003D1016841F004010160016821F001010A
:1006A00031430160006800F00100B04201D0012038
:1006B000E0E72878400705D52068E96820F4E06085
:1006C000084320602878000706D52068296920F4AF
:1006D000605040EAC100206000F038F82168084A04
:1006E000C1F30311515CC840064908600648006820
:1006F000BDE8F047FFF7B4BE003C024008380240B6
:10070000BD14000810000020040000200448054922
:1007100000680968044AC1F30221515CC84070476F
:100720001000002008380240CD1400080448054994
:1007300000680968044AC1F3C221515CC84070478F
:100740001000002008380240CD14000870B5154D87
:100750002968154801F00C02042A0CD0134C082A11
:100760000AD00C2A0AD0281F0068C0F342314FF487
:100770000040491C884070BD204670BD0C4AC1F342
:100780008343D35CC1F381522968521CC90302D54B
:10079000A3FB040101E0A3FB00010023FFF7C6FC5B
:1007A00070BD0000083802400024F400001BB700B0
:1007B000B41400082DE9F84F04007DD0FC4801680E
:1007C000006801F00C0700F480362078F94DC0076E
:1007D00041D0082F12D00C2F02D1B6F5803F0DD09A
:1007E0006068012811D008B1052818D0286820F4C5
:1007F00080302860286820F4802009E02868800381
:1008000029D560680028D8D025E0286840F48030D9
:100810002860606890B1FFF705FE80460AE028680E
:1008200040F480202860F0E7FFF7FCFDA0EB080013
:1008300064287BD828688003F6D50CE0FFF7F2FD2A
:10084000804605E0FFF7EEFDA0EB08006428F0D835
:1008500028688003F6D42078DFF85CB3DFF85C8387
:1008600080074FF001094FF0000A35D5042F0AD058
:100870000C2F00D13EB1E068F8B1C8F80090FFF746
:10088000D1FD06460BE0286880070BD5E0680128FB
:1008900012D107E0FFF7C6FD801B0228C9D82868DF
:1008A0008007F7D5DBF80010226921F4F85141EAFE
:1008B0000221CBF800100FE077E1C8F800A0FFF7A5
:1008C000B1FD064605E000BFFFF7ACFD801B022826
:1008D000AFD828688007F7D42078C00674D53FB118
:1008E000A069E0B3C8F82090FFF79CFD06464AE0F7
:1008F0002868800502D5A069002884D0206ADBF82A
:1009000000105E4601F46041884210D900F0ACFB53
:100910000028BDD13068216A20F46040084330606F
:10092000217F306861F31F6030600FE096E031682E
:1009300021F4604101433160217F306861F31F6021
:100940003060206A00F090FB0028A1D1216A4FF4AA
:10095000004009EB513188409549096800E025E0E5
:10096000974AC1F30311515CC84096490860964804
:100970000068FFF775FD00286FD125E0FFF752FDF5
:10098000801B02286AD828688005F7D5DBF800109C
:10099000226A21F460411143CBF80010227FDBF87A
:1009A000001062F31F61CBF800100DE0C8F820A022
:1009B000FFF738FD064604E0FFF734FD801B0228F0
:1009C0004CD828688005F7D42078804E000722D5BF
:1009D0007F48616981B1C0F80090FFF723FD83462D
:1009E00006E000BFFFF71EFDA0EB0B00022835D884
:1009F00030688007F6D50EE0C0F800A0FFF712FDC2
:100A0000834605E0FFF70EFDA0EB0B00022825D87A
:100A100030688007F6D4207840076DD56B484FF0DA
:100A2000000B10380068C0000BD46848103801680B
:100A300041F08051016000684FF0010B00F08050E0
:100A4000009064480168C90514D4016841F48071BC
:100A50000160FFF7E7FC009008E08DE079E000BF5F
:100A6000FFF7E0FC0099401A642872D859480068E2
:100A7000C005F5D5A06801280AD008B1052811D015
:100A8000306820F480703060306820F4806002E0CC
:100A9000306840F480703060A068A8B1FFF7C2FCF5
:100AA00000900DE0306840F480603060F0E700BFF7
:100AB000FFF7B8FC0099411A41F2883081425AD8B8
:100AC00030688005F4D50EE0FFF7ACFC009007E03D
:100AD000FFF7A8FC0099411A41F2883081424AD8B8
:100AE00030688005F4D4BBF1000F05D037481038CA
:100AF000016821F080510160606A58B30C2F41D029
:100B00000228504605D0C8F86000FFF78BFC044669
:100B100034E04746C8F86000FFF784FC064604E06E
:100B2000FFF780FC801B022825D828688001F7D4B5
:100B3000D4E90A1001431E48226B036823F47D03A5
:100B40001A4311430160C7F86090FFF76BFC04463D
:100B500007E010E040E000BFFFF764FC001B022844
:100B600009D828688001F7D536E000BFFFF75AFCA6
:100B7000001B022802D90320BDE8F88F28688001F5
:100B8000F4D429E00128F7D009480068A26A00F4EB
:100B90008031914209D1E26A00F47011914204D18E
:100BA000216B00F44000884216D00120E4E70000E9
:100BB0000838024000380240043802400000474232
:100BC000BD1400081000002004000020343802404A
:100BD00080064742007000400020CDE710B5401E5F
:100BE000B0F1807F01D3012010BD4FF0E02460619F
:100BF0000F21601700F024FC0020A0610720206175
:100C0000002010BD7047000070B5026804461068EF
:100C1000D168536910F00F0F52D003F0010501F4B1
:100C200090762E435FD0C20705D0CA0503D5E26B8C
:100C300042F00102E263420705D5DA0703D0E26B16
:100C400042F00202E263820705D5DA0703D0E26BC5
:100C500042F00402E263020707D501F020022A43B2
:100C600003D0E26B42F00802E263E26B002A33D069
:100C7000800604D5880602D5204600F089FA20684F
:100C80004069E16BC0F38010090700D428B3204607
:100C900000F070FA2068416949061AD5416921F0CF
:100CA00040014161606BA0B11B494163606BFFF77C
:100CB000B4FA002810D0606B416BBDE87040084763
:100CC000830610D58B060ED52046BDE8704000F097
:100CD0005FBA2046FFF796FF70BD2046FFF792FFF0
:100CE0000020E06370BD030606D50B0604D5204640
:100CF000BDE8704000F026BB4006F3D54806F1D5AC
:100D0000D168204621F04001D160202184F83910BB
:100D100000F03BF970BD00006511000870B50400DB
:100D200004D094F83900002510B106E0012070BD10
:100D300084F83850204600F023F8242084F8390045
:100D40002068C16821F40051C160204600F06CFAAF
:100D50002068016921F4904101612068416921F016
:100D60002A0141612068C16841F40051C160E56316
:100D7000202084F8390084F83A00002070BD00007B
:100D800010B586B0044614216846FFF707FA1849E3
:100D90002068884229D11748016841F480410160E8
:100DA000006800F4804005901248001F016841F07F
:100DB000010101600068694600F0010005904FF4F0
:100DC000C060009002200190002002900320039058
:100DD000072004900848FFF747FA01220021252048
:100DE000FFF790FB2520FFF77FFB06B010BD00004A
:100DF00000380140203802400000024090F83A30AC
:100E0000202B22D1F9B1F2B190F83830012B1CD04F
:100E100081628285C2850021C163222280F83A2046
:100E200080F838100168CA6842F48072CA600168AC
:100E30004A6942F001024A610068C16841F020013C
:100E4000C1600020704701207047022070470000F9
:100E500070B5194C00254FF480762078FF280CD30C
:100E6000257031461548FFF799F94FF47A730A2235
:100E700013A1164800F02CF816E0104962780A54C5
:100E8000401CC0B22070084410F8011C0A290BD184
:100E900010F8020C0D2807D1084800F0BFFA2570A1
:100EA00031460648FFF77AF9BDE870400249012251
:100EB000491C0648FFF7A2BF0000002014000020D4
:100EC000CAFDBEDDD2E7B3F6000000001401002029
:100ED0002DE9F843044690F839001F4616460D46A2
:100EE000202850D1B5B1AEB194F8380001284AD0CD
:100EF000012084F838004FF00008C4F83C8021201D
:100F000084F83900FFF78EFAA6848146E68484F8D7
:100F1000388026E00120BDE8F883E08C401EE084A4
:100F2000A0684B46B0F5805F4FF000024FF08001A3
:100F30002046009703D000F036FAE8B90DE000F043
:100F400032FAC8B928882168C0F3080048602069CF
:100F500008B16D1C05E0AD1C03E0216815F8010B1C
:100F60004860E08C0028D8D14B4600224021204622
:100F7000009700F018FA08B10320CCE7202084F88D
:100F800039000020C7E70220C5E77047FEE70000F0
:100F900030B587B014216846FFF700F91E48016894
:100FA00041F004010160016801F00401059101684C
:100FB00041F020010160016801F020010591016804
:100FC00041F001010160016801F001010591016832
:100FD00041F0020101600068032400F00200059066
:100FE0004FF4604000258DE8310069460B48FFF75B
:100FF0003BF949F6FF108DE8310069460848FFF7D4
:1010000033F94FF6FF708DE8310069460548FFF768
:101010002BF907B030BD00001C3802400008024028
:1010200000000240000402400C4810B50A4901606B
:101030004FF4E1314160002181600C22C160C0E9C0
:1010400004128161C161FFF769FE002803D0BDE889
:101050001040FFF7E1B810BD003801401401002036
:10106000FEE770477047000038B51C490023096847
:101070001B4A11F0F00F23D118491C310C68E50010
:10108000184C03D5216801F4C0540EE00D6845F0FA
:1010900080550D600D6805F08055009524680D6839
:1010A00004F4C05425F080550D60B4F5C05F07D13D
:1010B000B0F5404F04D11068012340F004001060E7
:1010C000106820F0010018431060106800F0010063
:1010D000984201D0012038BD002038BD08380240B8
:1010E000003C0240007000407047FFF7A1B90000CB
:1010F00000B593B034216846FFF750F814210DA8CD
:10110000FFF74CF81248016821F4C05141F4006126
:10111000016001200090019002200990C0030A9014
:101120004FF440200B904FF400000C906846FFF7FE
:1011300041FB0F200D9003200E9000200F90109087
:10114000119001210DA8FFF70FFA13B000BD0000A8
:101150000070004002494FF00060086070470000D6
:1011600008ED00E010B5406A0021C185C184FFF799
:1011700049FD10BD0168CA6822F49072CA60016816
:101180004A6922F001024A61202180F83A10704732
:1011900010B590F83A10222901D0022010BD8168C4
:1011A000B1F5805F11D00169002901681FD049683D
:1011B00001F07F03816A4A1C82620B70C18D491E57
:1011C0000904090CC18518D02BE00269816A002A44
:1011D0000268526805D0D2B20A80816A491C8162D5
:1011E000ECE7C2F308020A80816A891CF7E74A68C3
:1011F000816A4B1C83620A70E0E70168CA6822F0CA
:101200002002CA600168CA6822F48072CA6001685C
:101210004A6922F001024A61202180F83A10FFF762
:1012200017FE002010BD00002DE9F04104460068C3
:101230000169E26821F44051114301612169A0680C
:10124000E26908436169114322680843D16849F2A1
:101250000C6399430143D16020684169A26921F47C
:1012600040711143416136492068884202D1FFF73D
:101270005DFA01E0FFF74AFA0246E3696420322191
:10128000B3F5004F02EBC20303EB021362682BD0ED
:101290009200B3FBF2F5B5FBF0F5B3FBF2F66FF09D
:1012A00018077D4306EB8505B3FBF2F601EB051548
:1012B000B5FBF0F5B6FBF0F605F0F00505EB06150D
:1012C000B3FBF2F6B3FBF2F2B2FBF0F27A4306EBB9
:1012D000820201EB0211B1FBF0F000F00F00216877
:1012E00028448860BDE8F0815200B3FBF2F6B6FBFB
:1012F000F0F6B3FBF2F7B3FBF2F56FF0180C06FB58
:101300000CF607EB860601EBC606B5FBF0F5B6FB5F
:10131000F0F62D0106F0F80605EB4605B3FBF2F6F4
:10132000B3FBF2F2B2FBF0F202FB0CF206EB82022C
:1013300001EBC201B1FBF0F000F00700CFE70000C5
:101340000038014090F83910212901D0022070475F
:101350008168B1F5805F016A0BD04A1C02620268A5
:1013600009785160C18C491E0904090CC1840ED052
:1013700017E009880268C1F308015160016900297A
:10138000016A02D0491C0162ECE7891CFBE7016895
:10139000CA6822F08002CA600068C16841F040015A
:1013A000C160002070472DE9F041984617460E466F
:1013B0000446069D1DE0681C1BD02DB1FFF732F8D6
:1013C000A0EB0800A84214D92068C16821F4D071AC
:1013D000C1602068416921F001014161202084F849
:1013E000390084F83A00002084F838000320BDE872
:1013F000F0812068006836EA000004D00020B8427E
:10140000D9D00020F3E70120F9E700000148FFF7F9
:10141000FBBB000014010020FEE7000070B505468C
:1014200000244FF47A762919334601220348FFF746
:101430004FFD641C285D0028F5D170BD140100200B
:101440000907090E002804DB00F1E02080F80014F1
:10145000704700F00F0000F1E02080F8141D704785
:1014600002E008C8121F08C1002AFAD1704770476D
:10147000002001E001C1121F002AFBD170470000CB
:10148000FEF7DEFFFFF734FEFFF782FDFFF7CCFD2E
:101490004FF480710448FEF781FE0122034904489D
:1014A000FFF7ACFCFEE70000140000200100002064
:1014B00014010020030406080C101820300000005E
:1014C00000000000000102030406070809000000F4
:1014D0000001020304000000F814000800000020CE
:1014E00014000000601400080C150008140000200F
:1014F0004405000070140008000000001000000007
:0C150000010000000000000068FF1F0058
:04000005080000F5FA
:00000001FF
